:100000000C9434000C943E000C943E000C943E0082
:100010000C943E000C943E000C943E000C943E0068
:100020000C943E000C943E000C943E000C943E0058
:100030000C943E000C943E000C943E000C943E0048
:100040000C943E000C943E000C943E000C943E0038
:100050000C943E000C943E000C943E000C943E0028
:100060000C943E000C943E0011241FBECFEFD8E04C
:10007000DEBFCDBF0E9440000C9473000C940000C2
:1000800080EF8AB98FE084B98BB18FEF8BB98BB1D8
:1000900080778BB92A982B9A8BB18470E9F38BB156
:1000A0008FEF8BB98BB1807E8BB92B98289A8BB14F
:1000B0008870E9F38BB18FEF8BB98BB1807D8BB9F1
:1000C0002898299A8BB18870E9F38BB18FEF8BB99F
:1000D0008BB1807B8BB929982A9A8BB183FFFDCF96
:0A00E00082FDFBCFD1CFF894FFCFD3
:00000001FF
