S01900003530302D313031375F4D696469546F43562E7372656342
S113000045C000000DC500005FC000005DC00000D9
S11300105BC0000059C0000057C0000055C000007C
S113002053C0000051C000004FC000004DC000008C
S11300304BC0000049C0000047C0000045C000009C
S113004043C0000041C000003EC500000C94D6111E
S11300500C9476100C94CE1037C0000035C000000C
S113006033C0000031C000002FC000002DC00000CC
S11300700C9426110C947E1127C0000025C00000AA
S113008023C0000021C000001FC0000011241FBEB7
S1130090CFEFD0E4DEBFCDBF11E0A0E0B1E0E6EAEF
S11300A0F7E200E00BBF02C007900D92A83AB10737
S11300B0D9F722E0A8EAB1E001C01D92A83BB2073B
S11300C0E1F74FD50C94D1139BCF8FB7F894807878
S11300D008959FB7982B9FBF08951092A90110927D
S11300E0A8014CE251E060E070E081E090E077D15B
S11300F090930902809308020895CF93DF93EC0153
S113010060E070E080910802909109020E94B30BB4
S11301108091B6019091B7019B878A87D093B701EC
S1130120C093B60160E070E08091080290910902EA
S11301300E941F0CDF91CF9108950F931F93CF93CB
S1130140DF938C01EB01C1DF2091A8013091A9015B
S113015024313105A4F4F901EE0FFF1FEE0FFF1F48
S1130160E854FE4F11830083D383C2832F5F3F4F34
S11301703093A9012093A801C0E0D0E002C0C0ECF4
S1130180DFEFA7DFCE01DF91CF911F910F9108958B
S11301908F929F92AF92BF92CF92DF92EF92FF9293
S11301A00F931F93CF93DF9300D000D0CDB7DEB76A
S11301B06C018B018091B6019091B701892B29F4D0
S11301C08CE090E056D54C011BC060E070E080915B
S11301D00802909109020E94B30B8090B60190909E
S11301E0B701F401828593859093B7018093B6019A
S11301F060E070E080910802909109020E941F0C57
S11302008114910409F47DC0F401D582C48217835A
S1130210068368E371E0C6010E949D135C010091AE
S1130220A8011091A901C801880F991F880F991F6F
S11302309C012C543E4F7901015011095AF45DC0C0
S11302400150110934E0E31AF1080F3F8FEF18074A
S113025009F453C0F70160817181A501C6010E94B0
S1130260AC13892B69F711237CF1CA0CDB1C62E403
S113027071E0C6010E949D137C01009731F481E076
S113028090E0F4019383828323C0AC01B601CE01D4
S113029001960E94BA13E1E0F0E0EC0FFD1FEE0DB1
S11302A0FF1D1082CE0101960E947913F4019383FD
S11302B082830EC0C40121DF812C912C22C0C40191
S11302C01CDF812C912C1DC0F40111830083F2CF1B
S11302D0F40111830083000F111F000F111FF80197
S11302E0E854FE4F0280F381E02D0190F081E02D6F
S11302F0C401099599232CF4E2CFF40111830083FE
S1130300D9CFC4010F900F900F900F90DF91CF9130
S11303101F910F91FF90EF90DF90CF90BF90AF901F
S11303209F908F900895DC0116962C91169720FFCC
S113033010C0ED91FC91EE0FFF1FEE0FFF1FE8546C
S1130340FE4F0280F381E02D0480F581E02D0995B4
S113035008958EEB9FEF0895DC01ED91FC91EE0F73
S1130360FF1FEE0FFF1FE854FE4F0280F381E02DC4
S11303700684F785E02D09950895CF93DF93EC016A
S11303807B876A8759874887B9010C960E94961320
S1130390198218821B821A8298DE288539852130B9
S11303A03105C9F4E0910A02F0910B02309759F03B
S11303B0FD83EC831F821E82D783C683D0930B02F6
S11303C0C0930A0208C0D0930B02C0930A021D8294
S11303D01C821F821E827DDEDF91CF910895CF9211
S11303E0DF92EF92FF920F931F93CF93DF938C01D1
S11303F07B016A016ADEC091AA01D091AB0120970A
S113040041F02C813D813093AB012093AA0161DE40
S113041007C05FDE80E290E02CD4EC01892B29F048
S11304209601A701B801CE01A8DFCE01DF91CF91DB
S11304301F910F91FF90EF90DF90CF9008956F92EE
S11304407F928F929F92AF92BF92CF92DF92EF9260
S1130450FF920F931F93CF93DF936C01662E772E39
S1130460EA014901CA0105D45C011C161D064CF4BD
S1130470FC019C012C0F3D1F8DEC8193E217F307C7
S1130480E1F723DEC114D10409F48CC0D6011F9610
S11304901C921E921E971596DC93CE931497179672
S11304A09C928E9216971D961C921E921C975396A0
S11304B01C930E9352971396BC92AE921297559634
S11304C01C921E92549757961C921E925697FE01A8
S11304D03197EA0DFB1D6082DF0111977C92119721
S11304E09FE19C93119790E89C9311979EE19C93B4
S11304F011979DE19C9311979CE19C9311979BE12B
S11305009C9311979AE19C931197FC921197EC920A
S1130510119797E19C93119796E19C93119795E11C
S11305209C93119794E19C93119793E19C93119759
S113053092E19C93119791E19C93119790E19C9384
S113054011979FE09C9311979EE09C9311979DE0D7
S11305509C9311979CE09C9311979BE09C9311971B
S11305609AE09C93119799E09C93119798E09C933F
S1130570119797E09C93119796E09C93119795E0BF
S11305809C93119794E09C93119793E09C931197FB
S113059092E09C9311971C9211971C92B397D601E9
S11305A0ED93FC9396DDDF91CF911F910F91FF9016
S11305B0EF90DF90CF90BF90AF909F908F907F90FF
S11305C06F900895CF93DF93EC010796880F991FDE
S11305D08C0F9D1F4ED3FC01118210821382128254
S11305E0D783C683158214820E96938782872E96AC
S11305F0CE0FDF1FD187C087CF01DF91CF91089540
S1130600FC01A081B181AA0FBB1F80859185A80F31
S1130610B91F6D937C93A485B58580819181A80FC2
S1130620B91F2C932285338580819181BC016F5F32
S11306307F4F71836083D901A80FB91F4C93268122
S11306403781808191812817390711F41182108232
S1130650848195810196958384830895DC011296A3
S1130660ED91FC911397EE0FFF1F18968D919C91BD
S11306701997E80FF91F808191810895DC011C9678
S1130680ED91FC911D9712968D919C911397E80F13
S1130690F91F80810895FC014285538582819381ED
S11306A09C012F5F3F4F33832283DA01A80FB91FC8
S11306B08C91468157812417350711F413821282D5
S11306C02481358121503109358324830895FF9392
S11306D0FFB7F894FF93EF93DF93CF93BF93AF9358
S11306E09F938F937F936F935F934F933F932F9336
S11306F01F930F93FF92EF92DF92CF92BF92AF922C
S11307009F928F927F926F925F924F923F922F921D
S11307101F9211240F92A0911A02B0911B020DB6E0
S11307200D920EB60D92809116029091170290933D
S11307301B0280931A02A0911602B0911702CD9168
S1130740CDBFDD91DEBF0F901F902F903F904F9053
S11307505F906F907F908F909F90AF90BF90CF905D
S1130760DF90EF90FF900F911F912F913F914F9148
S11307705F916F917F918F919F91AF91BF91CF9135
S1130780DF91EF91FF91F7FD03C0FFBFFF91089543
S1130790FF77FFBFFF91189580911E0290911F0271
S11307A0019790931F0280931E0280911E029091E4
S11307B01F02892B09F067C080911C0290911D02D1
S11307C0892B09F060C040911A0250911B0280915C
S11307D0B6029091B702FA019587848766E172E0C8
S11307E08CE092E00E94AA0DE0911602F0911702AB
S11307F080911A0290911B02E817F90709F443C08B
S1130800868597850196978786879EB78DB70296CA
S1130810A0911A02B0911B028D939D93F0931B0239
S1130820E0931A02A0911602B0911702CD91CDBFA8
S1130830DD91DEBF0F901F902F903F904F905F90FF
S11308406F907F908F909F90AF90BF90CF90DF90EC
S1130850EF90FF900F911F912F913F914F915F91D6
S11308606F917F918F919F91AF91BF91CF91DF91C4
S1130870EF91FF91F7FD03C0FFBFFF910895FF774C
S1130880FFBFFF911895089580911E0290911F0259
S1130890019690931F0280931E0208959091210265
S11308A021E030E002C0220F331F8A95E2F7292BA2
S11308B02093210261E070E081E292E00E945212F2
S11308C004DC5D985D9A05CC08959091210221E0A5
S11308D030E002C0220F331F8A95E2F720952923C6
S11308E02093210261E070E081E292E00E945212C2
S11308F0ECDB5D985D9AEDCB089580918C0290912C
S11309008D02019690938D0280938C02F6CF60E065
S113091070E080918A0290918B0225D780E090E06C
S1130920FDD3FC0111821082BC0180913B029091A5
S11309303C0277D3ECCFCF93DF9300D0CDB7DEB7B3
S113094088E090E03FDE7C0180E190E092D14C01B0
S1130950A12CB12C80913B0290913C02AAD38C0132
S1130960FC0180819181009751F0019709F04BC0FF
S11309706685778525854485C70142DE44C0F70135
S113098084819581892B41F1C70168DE9A8389832B
S1130990C70174DED82EC7017EDEC82E62E070E087
S11309A0CE0101960E94521285B1887F85B995B116
S11309B08C2D8770892B85B92B982B9ADD202CF4EC
S11309C08D2D877090E06ADF1EC0D6FE1CC08D2D71
S11309D0877090E07ADF17C0C501880F991F62E025
S11309E070E0880D991D0E94521285B1887F85B9E7
S11309F025B1C50187709927822B85B92B982B9A2D
S1130A00C50101965C01C801A6D3A4CF8C01B1D362
S1130A10EC01B3D3C80187DC682FCE016BD5FACFC4
S1130A20FF93FFB7F068FF93EF93DF93CF93BF93E8
S1130A30AF939F938F937F936F935F934F933F9362
S1130A402F931F930F93FF92EF92DF92CF92BF9257
S1130A50AF929F928F927F926F925F924F923F924A
S1130A602F921F9211240F920FDF5C985C9A60E022
S1130A7070E080918A0290918B02E1D68DDE0F9016
S1130A801F902F903F904F905F906F907F908F902A
S1130A909F90AF90BF90CF90DF90EF90FF900F9119
S1130AA01F912F913F914F915F916F917F918F9102
S1130AB09F91AF91BF91CF91DF91EF91FF91FF771C
S1130AC0FFBFFF911895FF93FFB7F068FF93EF9373
S1130AD0DF93CF93BF93AF939F938F937F936F9342
S1130AE05F934F933F932F931F930F93FF92EF9234
S1130AF0DF92CF92BF92AF929F928F927F926F922A
S1130B005F924F923F922F921F9211240F92BCDE5C
S1130B1080E886BD0E94BF123FDE0F901F902F9089
S1130B203F904F905F906F907F908F909F90AF9089
S1130B30BF90CF90DF90EF90FF900F911F912F9176
S1130B403F914F915F916F917F918F919F91AF9161
S1130B50BF91CF91DF91EF91FF91FF77FFBFFF919D
S1130B601895CF93DF9300D0CDB7DEB783E085BD72
S1130B7081E080936E00EFD560E070E080E090E06B
S1130B80F8D1ABDA0E94340EE8D26FEB7FEF84E445
S1130B9091E0FEDA90933E0280933D0222E13AE72F
S1130BA03A832983AE014F5F5F4F60E070E0D4DB8E
S1130BB069E471E088E090E0FDD190933C02809379
S1130BC03B0240E551E060E070E080E090E007DC4B
S1130BD090938B0280938A020E943012E12CF12CB4
S1130BE006E511E021E030E040E051E06DE774E01B
S1130BF08AE592E024DC6AE572E08CE092E0EFD6CC
S1130C00E0903D02F0903E020BE511E028E030E078
S1130C1040E051E066E075E082E792E010DC62E7D4
S1130C2072E08CE092E0DBD6E12CF12C00E611E0DE
S1130C302AE030E040E051E06BE974E083E292E0C6
S1130C40FEDB63E272E08CE092E0C9D600E511E0DD
S1130C5029E030E040E051E067E874E082E492E0AB
S1130C60EEDB62E472E08CE092E0B9D60E9481127D
S1130C70FFCFEF92FF920F931F93CF93DF938C01DB
S1130C8060E070E080E992E06ED50230110510F466
S1130C9002E010E0A091B002B091B102109709F403
S1130CA083C04D915C9111970417150791F0CA0107
S1130CB0FD0120E030E01EC08881998108171907E2
S1130CC0C1F4309729F08A819B81938382830AC07F
S1130CD0DE0112968D919C9113979093B1028093AB
S1130CE0B002ED0160E070E080E992E0A8D52296C0
S1130CF0A8C0FE010817190748F42115310529F089
S1130D008217930718F49C0101C09C01C281D3810E
S1130D10209791F62115310509F446C0C901801BBD
S1130D20910B049708F487C087C0F70180819181F3
S1130D302817390781F520173107D9F4109739F0AE
S1130D408281938113969C938E9312970AC0D70144
S1130D5012968D919C9113979093B1028093B00257
S1130D607D0160E070E080E992E069D5E7012296B8
S1130D7068C0201B310BE701C20FD31F09931993DD
S1130D8022503109F7013183208360E070E080E96B
S1130D9092E055D556C0D7011296ED90FC9013976A
S1130DA0E114F10409F0C1CF80918E0290918F0279
S1130DB0892B41F4809102019091030190938F0259
S1130DC080938E028091000190910101009741F47B
S1130DD08DB79EB72091040130910501821B930BBE
S1130DE0C0918E02D0918F028C1B9D0B80179107AE
S1130DF0A0F098012E5F3F4F8217930770F02C0FDD
S1130E003D1F30938F0220938E020993199360E063
S1130E1070E080E992E013D514C060E070E080E9EE
S1130E2092E00DD5C0E0D0E00CC02017310709F4E2
S1130E308FCF7D019ECF89012417350709F0ACCFF0
S1130E40F4CFCE01DF91CF911F910F91FF90EF90DE
S1130E5008950F931F93CF93DF93009709F484C0F1
S1130E608C0160E070E080E992E07DD4D8011297B3
S1130E7013961C921E921297E091B002F091B10267
S1130E80309721F0EA17FB0778F05FC0B093B10206
S1130E90A093B00260E070E080E992E0D0D464C036
S1130EA08A179B0730F4FC01828193810097C1F774
S1130EB02EC0980122503109E9019B838A8328813D
S1130EC03981A801420F531F84179507A1F402C06A
S1130ED0E0E0F0E0EC01688179816E5F7F4F260FDE
S1130EE0371FE8013A932A93AE01EC018A819B8172
S1130EF0EA019B838A83309751F4B093B102A093A3
S1130F00B00260E070E080E992E099D42DC0B38330
S1130F10A283EF0129913991CE01820F931FA81763
S1130F20B90769F4E8015A914A91240F351F2E5FDD
S1130F303F4F318320838A819B819383828360E046
S1130F4070E080E992E07BD40FC0C8010297EC0105
S1130F50FB83EA8328813981C801820F931FE81734
S1130F60F90709F4B5CFC9CFDF91CF911F910F9144
S1130F7008950F931F93CF93DF938C01EB0124E625
S1130F8031E040E050E061E070E080E992E0F5D9C2
S1130F900115110521F0109303010093020120971C
S1130FA021F0D0930101C0930001DF91CF911F91F3
S1130FB00F910895EF92FF920F931F93CF93DF93B6
S1130FC08C017B010696880F991F53DEEC0160E0CB
S1130FD070E08091AE019091AF01C5D31B821A825B
S1130FE01D821C821F821E82CE010C969B878A87DB
S1130FF019870887A70160E070E080E090E0EFD9EE
S11310009983888360E070E08091AE019091AF0194
S113101016D4CE01DF91CF911F910F91FF90EF90E5
S11310200895FF920F931F93CF93DF930097D9F105
S11310308B01EC0180911E0290911F02892B11F407
S113104044D8F82E2E813F81888599852817390741
S113105014F5EA85FB858A819B819C012F5F3F4FB4
S11310603B832A83880F991FE80FF91F118300839C
S11310702A813B81888599852817390711F41B82B9
S11310801A828E819F8101969F838E8360E070E037
S113109088819981D4D380911E0290911F02892B5B
S11310A011F48F2D16D8DF91CF911F910F91FF90DE
S11310B008950F931F93CF93DF93009739F1EC01B9
S11310C060E070E0888199814ED30E946500EA85D2
S11310D0FB852C813D81A9014F5F5F4F5D834C836C
S11310E0220F331FE20FF31F0081118128853985F8
S11310F04217530711F41D821C822E813F81215017
S113110031093F832E830E94690002C000E010E091
S1131110C801DF91CF911F910F910895CF93DF9371
S1131120EC010D96A6DD009799F02091AC01309169
S1131130AD012F5F3F4F3093AD012093AC01FC0113
S1131140D583C48311861086138212821386128675
S1131150DF91CF9108957DCE08954BE651E060E094
S113116070E081E090E03BD99093AF018093AE01B1
S113117008958CE090E07DCD0895CF93DF93EC014A
S11311801A8219821D821F821E8280E890E071DD1E
S11311909987888718821B821C82DF91CF910895DA
S11311A0FC018085918526813781A9014F5F5F4FBE
S11311B057834683FC01E20FF31F608308950F9366
S11311C01F93CF93DF93C62FD42F90913F02981390
S11311D02DC083E090E0A2DFFC0180E2C89F900173
S11311E0112437872687148680E4858701E010E080
S11311F011830083BF0180913B0290913C0211DF77
S113120083E090E08BDFFC0180E2D89FA0011124F1
S11312105787468781E08487158611830083BF0141
S113122080913B0290913C02FCDE31C090914002DF
S113123089132DC083E090E071DFFC0180E2C89F38
S1131240900111243787268784E0848780E485878A
S113125001E010E011830083BF0180913B02909173
S11312603C02DFDE83E090E059DFFC0180E2D89F9E
S1131270A00111245787468785E08487158611834A
S11312800083BF0180913B0290913C02CADEDF9152
S1131290CF911F910F9108950F931F93CF93DF93D5
S11312A0D62FC42F90913F02981332C083E090E070
S11312B035DFFC0180E2D89F90011124378726870F
S11312C01486CC2319F080E8858702C080E48587E2
S11312D001E010E011830083BF0180913B029091F3
S11312E03C029FDE83E090E019DFFC0180E2C89FAE
S11312F0A00111245787468781E0848715861183CE
S11313000083BF0180913B0290913C028ADE36C08B
S113131090914002891332C083E090E0FFDEFC012B
S113132080E2D89F900111243787268784E0848740
S1131330CC2319F080E8858702C080E4858701E02A
S113134010E011830083BF0180913B0290913C0225
S113135068DE83E090E0E2DEFC0180E2C89FA00149
S113136011245787468785E0848715861183008377
S1131370BF0180913B0290913C0253DEDF91CF91FB
S11313801F910F910895CF93C42F90913F0298130A
S113139018C083E090E0C2DEFC0180E2C89FA00197
S11313A011245787468782E08487158681E090E080
S11313B091838083BF0180913B0290913C0231DE96
S11313C01BC090914002891317C083E090E0A6DE11
S11313D0FC0180E2C89FA00111245787468786E05C
S11313E08487158681E090E091838083BF0180919A
S11313F03B0290913C0215DECF910895CF93C62F06
S113140090913F02981318C083E090E087DEFC01BE
S113141080E2C89F900111243787268782E0848761
S1131420158681E090E091838083BF0180913B0227
S113143090913C02F6DD1BC090914002891317C0C5
S113144083E090E06BDEFC0180E2C89F90011124F0
S11314503787268786E08487158681E090E091832C
S11314608083BF0180913B0290913C02DADDCF91F1
S11314700895CF93DF93EB0190913F0298131AC024
S113148083E090E04BDEFC01D595C795D595C795D3
S1131490D595C795D787C68787E08487158681E069
S11314A090E091838083BF0180913B0290913C0244
S11314B0B8DD1DC090914002891319C083E090E00B
S11314C02DDEFC01D595C795D595C795D595C795BE
S11314D0D787C68787E08487158681E090E091836B
S11314E08083BF0180913B0290913C029ADDDF91A1
S11314F0CF910895CF93DF93FC01662394F5603F69
S113150048F4862F807F8183462F4F70428381E089
S1131510858300C1623FB9F028F4603F41F0613F28
S113152069F0F8C0633FA1F0673FB9F0F3C085E00C
S1131530858380EF818317821682ECC081EF8183DB
S113154084E08583E7C082EF818381E08583E2C004
S113155083EF818384E08583DDC0158287EF8183F7
S1131560D9C09181903D09F468C0EF01913D80F4A8
S1131570903A09F44CC028F49038E1F0903969F1BC
S1131580C9C0903B09F456C0903C09F486C0C2C05F
S1131590913F09F49FC038F4903E09F45DC0903F38
S11315A009F47EC0B7C0923F09F496C0933F09F492
S11315B0B0C0B0C08581813019F0823029F0AAC052
S11315C0638382E08583A6C083818483462F682F4A
S11315D08281F5DD81E08D839DC08581813019F0A4
S11315E0823029F097C0638382E0858393C083812E
S11315F08483662329F0462F682F82814DDE04C040
S113160040E0682F8281DBDD81E08D8383C08581AA
S1131610813019F0823029F07DC0638382E08583B4
S113162079C081E0858383818483462F682F8281FA
S1131630AADE70C08281E2DE6DC08581813019F03E
S1131640823029F067C082E08583638363C081E0D0
S11316508583838184835EC08581813019F08230E3
S113166041F058C0462F50E05387428782E085837B
S113167051C080E8689FA001112462857385462BC0
S1131680572BBA01660F771F660F771F7387628720
S113169081E085838281EDDE3DC081E085833AC0AF
S11316A08581863061F0873091F0853099F56D370A
S11316B019F486E085832EC088E085832BC06031D1
S11316C019F487E0858326C088E0858323C0CF0191
S11316D067DD20C015821EC08581813019F08230FB
S11316E041F018C0462F50E05387428782E085833B
S11316F011C080E8689FA001112462857385462B80
S1131700572B440F551F440F551F5387428715828B
S113171001C0158280E090E0DF91CF910895CF93CE
S1131720DF93DC01ED91FC91EB01A881B981868105
S1131730978116962D913C911797821B930B41F438
S11317401C968D919C911D9724853585821B930B46
S1131750DF91CF9108954FE85BE060E270E08CE0A8
S113176092E0D9C00895EF92FF921F93CF93DF9335
S1131770EC017B010E946500182F8A859B85181651
S113178019064CF401979B878A87812F0E94690070
S113179080E090E04EC001979B878A878881998179
S11317A0892B39F480911A0290911B0299838883C2
S11317B008C0EA81FB8180911A0290911B02958BEB
S11317C0848BE0911A02F0911B02FB83EA83118659
S11317D0108688859985892B11F0F18AE08A809199
S11317E0B6029091B7029587848766E172E08CE037
S11317F092E085D1892B61F0E0911602F0911702F5
S1131800868597850196978786870E94670308C017
S1131810E0911A02F0911B028FEF9FEF918780876E
S1131820812F0E946900E0911A02F0911B028085C9
S11318309185DF91CF911F91FF90EF900895EF92E2
S1131840FF921F93CF93DF93EC017B0180911E02E3
S113185090911F02892B21F40E946500182F01C06A
S113186010E08A859B858E3F2FE79207CCF599235C
S11318706CF001969B878A87C0911E02D0911F024B
S11318802097D1F5812F0E9469003EC001969B8765
S11318908A87E881F9813097C9F084899589998389
S11318A08883158A148AF186E086BF018CE092E071
S11318B096D080911E0290911F02892B19F4812FDA
S11318C00E946900AED6C0E0D0E01EC0C0911E02E6
S11318D0D0911F02209799F4812F0E94690014C0AF
S11318E080911E0290911F02892B61F4812F0E9426
S11318F06900CEEFDFEF08C0C0E0D0E005C0C0E073
S1131900D0E002C0CEEFDFEFCE01DF91CF911F9187
S1131910FF90EF900895CF93DF93EC0159834883B0
S11319201B821A827D836C83CB01880F991FA1D9F6
S11319309987888702979F838E83DF91CF9108953B
S1131940CF92DF92EF92FF920F931F93CF93DF9387
S11319506C01DC0112968D919C911397EC012197F7
S113196002977C011AF4BFEFEB1AFB0AF594E79493
S1131970FF2014F42BC07C01F60180859185CC0FE7
S1131980DD1FC80FD91F8701000F111F080F191F72
S11319900190F081E02DBE01C80109959923B4F4AA
S11319A0D8018D919C911197288139812D933C9375
S11319B099838883970121503109C90199230CF433
S11319C0019695958795E7019923ACF6DF91CF9120
S11319D01F910F91FF90EF90DF90CF900895CF93D8
S11319E0DF93FC0122813381C481D581C21BD30BD7
S11319F01C161D0694F4DC012F5F3F4F33832283B2
S1131A000680F781E02D9F012E5F3F4F17963C9390
S1131A102E9316977383628393DFCE01DF91CF9168
S1131A2008956F927F928F929F92AF92BF92CF92BE
S1131A30DF92EF92FF920F931F93CF93DF93DC011A
S1131A401896AD90BC90199712962D913C911397CE
S1131A50223031050CF444C06C01EE24E394F12CE3
S1131A60C0E0D0E002C0E7017C01CC0FDD1FCA0D4D
S1131A70DB1D8701000F111F0A0D1B1D3701BFEF6E
S1131A806B1A7B0A6216730674F44801E2E08E0E48
S1131A90911CD601ED91FC91B401C80109959923DB
S1131AA014F484017301D601ED91FC91B801CE01C7
S1131AB009959923ACF488819981F80120813181B9
S1131AC03983288391838083C701880F991F0196E6
S1131AD0D60112962D913C911397821793071CF20D
S1131AE0DF91CF911F910F91FF90EF90DF90CF90F6
S1131AF0BF90AF909F908F907F906F900895CF93F9
S1131B00DF93DC011296CD91DC9113971C161D0610
S1131B10ECF4FC01A085B1858D919C91DB018D9342
S1131B209C9380859185A681B7819D0122503109BE
S1131B30378326832D913C91DC012D933C93828144
S1131B409381019793838283CF016BDFCE01DF9171
S1131B50CF910895CF92DF92EF92FF920F931F934C
S1131B60CF93DF9300D0CDB7DEB75A834983DC012E
S1131B701296CD90DC9013971C141D044CF57B0138
S1131B808C01FC01608571850190F081E02DCE010E
S1131B90019609951816190634F489819A81D7019A
S1131BA08D939C931AC0D8011896ED91FC911997C6
S1131BB080819181F701918380831896ED91FC9146
S1131BC0199789819A8191838083C8012ADF05C08E
S1131BD089819A81DB018D939C93C6010F900F90AC
S1131BE0DF91CF911F910F91FF90EF90DF90CF90F5
S1131BF00895DC011896ED91FC9119976115710512
S1131C0021F06130710521F00BC084819581089524
S1131C1081E090E024893589232B21F080E0089528
S1131C2080E090E00895CF93DF93672BC1F4DC014B
S1131C301896ED91FC91199700A0F1A1E02DC085B3
S1131C40D185FA01208131814281538160E472E4BB
S1131C508FE090E010D5215031093983288380E04A
S1131C6090E0DF91CF9108956AE171E087E791E018
S1131C700E949D0080E090E00895CF93DF93EC01F3
S1131C80E8A1F9A1A281B3818C918823B4F583FFE3
S1131C9009C08091B4019091B50101969093B5016A
S1131CA08093B4014E855F85888199819C012F5F63
S1131CB03F4F398328830190F081E02D2081FA0180
S1131CC0E80FF91F2083288139818E819F8128178D
S1131CD0390711F4198218828C819D8101969D83A4
S1131CE08C8360E070E08A859B85A9DDE8A1F9A179
S1131CF0A281B3818C91882354F2DF91CF9108950E
S1131D000F931F93CF93DF93EC0101E010E039C0F0
S1131D108C899D898038910529F460E070E08A8D72
S1131D209B8D8DDD8C899D89892B11F1E8A1F9A109
S1131D300190F081E02D2E8D3F8D8A899B89AC0125
S1131D404F5F5F4F5B8B4A8BD901A80FB91F8C91F2
S1131D5080832A893B898E899F892817390711F442
S1131D601B8A1A8A8C899D8901979D8B8C8B09C04B
S1131D70E8A1F9A10480F581E02D80818F7D808325
S1131D80012FE8A1F9A10280F381E02D808185FF74
S1131D9002C00111BDCFDF91CF911F910F91089522
S1131DA01F93CF93DF93162FFC01C085D1852C8917
S1131DB03D898E899F892817390729F460E070E0EE
S1131DC08A8D9B8DD0DC0E9465004C895D892E89AB
S1131DD03F894217530748F54E8D5F8D288939890D
S1131DE0B9016F5F7F4F798B688BFA01E20FF31FA4
S1131DF01083488959892E893F894217530711F462
S1131E00198A188A2C893D89232B41F4E8A1F9A168
S1131E100480F581E02D9081906290832C893D8926
S1131E202F5F3F4F3D8B2C8B06C0288D398D2F5F44
S1131E303F4F398F288F0E94690080E090E0DF9146
S1131E40CF911F9108958F929F92AF92BF92CF929C
S1131E50DF92EF92FF920F931F93CF93DF938C0146
S1131E607B016A01FC01A084B18460E070E0F501AB
S1131E70848D958D78DC1C141D04CCF4E701EC0CE6
S1131E80FD1C4E0188818A3041F4F801868186FF69
S1131E9004C06DE070E0C80183DF2196F401608125
S1131EA070E0C8017DDFCE15DF0559F702C0C12CF3
S1131EB0D12C60E070E0F501848D958DC0DCC60105
S1131EC0DF91CF911F910F91FF90EF90DF90CF9012
S1131ED0BF90AF909F908F9008950F931F93CF93CF
S1131EE0DF93FC01C085D18560E070E08A859B8525
S1131EF03ADC0E9465002C813D8121153105C9F031
S1131F00EE85FF854A815B81BA016F5F7F4F7B83DA
S1131F106A83E40FF51F008110E04E815F8164172E
S1131F20750711F41B821A82215031093D832C83D9
S1131F3002C00FEF1FEF0E946900C801DF91CF912B
S1131F401F910F910895AF92BF92CF92DF92EF92BB
S1131F50FF920F931F93CF93DF93DC0112960D91A1
S1131F601C911397023011050CF0B3C07C0182E27E
S1131F7090E00E943906EC01F70191878087C8013F
S1131F80880F991F880F991F880F991F9801220F96
S1131F90331F820F931F8A5F9E4F99A388A380E00B
S1131FA091E00E9439069F8F8E8F20E030E0EE8D05
S1131FB0FF8DE20FF31F10822F5F3F4F2115F1E0D9
S1131FC03F07A9F7198E188E198A188A1B8A1A8A4C
S1131FD01D8A1C8AC12CDD24D394DF8ACE8AF801A1
S1131FE0EE0FFF1FE557FE4FA080B180A50160E012
S1131FF070E081E090E00E94EF019D8F8C8FA5013D
S113200060E070E080E090E00E94EF019B8F8A8F97
S11320101986188680E091E00E9439069F878E8792
S1132020198218821B821A821D821C82DF82CE8250
S113203020E030E0EE85FF85E20FF31F10822F5F72
S11320403F4F211581E03807A9F7000F111FF80150
S1132050E157FE4F4081518160E070E080E090E004
S11320600E94EF019B878A87E8A1F9A10480F5818A
S1132070E02D1082E8A1F9A10280F381E02D108205
S1132080E8A1F9A10680F781E02D86E08083E8A12C
S1132090F9A10084F185E02D83E390E091838083AE
S11320A0E8A1F9A10480F581E02D88E98083D701B6
S11320B01296ED91FC911397EE0FFF1FE055FE4F22
S11320C018968D919C9119979183808380E090E07C
S11320D002C08FEF9FEFDF91CF911F910F91FF907F
S11320E0EF90DF90CF90BF90AF900895FF93FFB72C
S11320F0F068FF93EF93DF93CF93BF93AF939F93D6
S11321008F937F936F935F934F933F932F931F937B
S11321100F93FF92EF92DF92CF92BF92AF929F9272
S11321208F927F926F925F924F923F922F921F9263
S113213011240F9280911E0290911F020196909398
S11321401F0280931E028091B0019091B10195DD30
S11321500E94CC030F901F902F903F904F905F9060
S11321606F907F908F909F90AF90BF90CF90DF90B3
S1132170EF90FF900F911F912F913F914F915F919D
S11321806F917F918F919F91AF91BF91CF91DF918B
S1132190EF91FF91FF77FFBFFF911895FF93FFB772
S11321A0F068FF93EF93DF93CF93BF93AF939F9325
S11321B08F937F936F935F934F933F932F931F93CB
S11321C00F93FF92EF92DF92CF92BF92AF929F92C2
S11321D08F927F926F925F924F923F922F921F92B3
S11321E011240F9280911E0290911F0201969093E8
S11321F01F0280931E028091B0019091B10180DD95
S11322000E94CC030F901F902F903F904F905F90AF
S11322106F907F908F909F90AF90BF90CF90DF9002
S1132220EF90FF900F911F912F913F914F915F91EC
S11322306F917F918F919F91AF91BF91CF91DF91DA
S1132240EF91FF91FF77FFBFFF911895FF93FFB7C1
S1132250F068FF93EF93DF93CF93BF93AF939F9374
S11322608F937F936F935F934F933F932F931F931A
S11322700F93FF92EF92DF92CF92BF92AF929F9211
S11322808F927F926F925F924F923F922F921F9202
S113229011240F9280911E0290911F020196909337
S11322A01F0280931E028091B2019091B301E5DC7C
S11322B00E94CC030F901F902F903F904F905F90FF
S11322C06F907F908F909F90AF90BF90CF90DF9052
S11322D0EF90FF900F911F912F913F914F915F913C
S11322E06F917F918F919F91AF91BF91CF91DF912A
S11322F0EF91FF91FF77FFBFFF911895FF93FFB711
S1132300F068FF93EF93DF93CF93BF93AF939F93C3
S11323108F937F936F935F934F933F932F931F9369
S11323200F93FF92EF92DF92CF92BF92AF929F9260
S11323308F927F926F925F924F923F922F921F9251
S113234011240F9280911E0290911F020196909386
S11323501F0280931E028091B2019091B301D0DCE0
S11323600E94CC030F901F902F903F904F905F904E
S11323706F907F908F909F90AF90BF90CF90DF90A1
S1132380EF90FF900F911F912F913F914F915F918B
S11323906F917F918F919F91AF91BF91CF91DF9179
S11323A0EF91FF91FF77FFBFFF911895FF93FFB760
S11323B0F068FF93EF93DF93CF93BF93AF939F9313
S11323C08F937F936F935F934F933F932F931F93B9
S11323D00F93FF92EF92DF92CF92BF92AF929F92B0
S11323E08F927F926F925F924F923F922F921F92A1
S11323F011240F9280911E0290911F0201969093D6
S11324001F0280931E0260E070E08091B4029091FC
S1132410B50215DA0E94CC030F901F902F903F90C5
S11324204F905F906F907F908F909F90AF90BF90F0
S1132430CF90DF90EF90FF900F911F912F913F91DC
S11324404F915F916F917F918F919F91AF91BF91C8
S1132450CF91DF91EF91FF91FF77FFBFFF91189527
S113246043E951E060E070E081E090E00E94EF0118
S11324709093B3028093B2024EE951E060E070E0C1
S113248080E090E00E94EF019093B5028093B40243
S11324908CB583658CBD8CB5877D8CBD8CB580680F
S11324A08CBD0895EF92FF920F931F93CF93DF9308
S11324B07C018B0160E070E08091B2029091B302E4
S11324C052D9101611067CF4E7010E0D1F1D9991C7
S11324D09EBD60E070E08091B4029091B50243D952
S11324E0C017D107A1F760E070E08091B20290912B
S11324F0B302A5D9DF91CF911F910F91FF90EF9077
S1132500089566E172E08CE092E0F9DA80911602B7
S11325109091170290931B0280931A02A0911602C5
S1132520B0911702CD91CDBFDD91DEBF0F901F900A
S11325302F903F904F905F906F907F908F909F90DF
S1132540AF90BF90CF90DF90EF90FF900F911F91CD
S11325502F913F914F915F916F917F918F919F91B7
S1132560AF91BF91CF91DF91EF91FF91F7FD03C040
S1132570FFBFFF910895FF77FFBFFF911895EF927A
S1132580FF920F931F93CF93DF938091B6029091A4
S1132590B70201969093B7028093B602E0900A02C4
S11325A0F0900B02E114F104A9F10DEF1FEFF70114
S11325B0C081D181209741F188899989181619061B
S11325C0E4F40197998B888B18161906B4F0D70197
S11325D01A968D919C911B9701961B969C938E93B2
S11325E01A97198708878C899D89918380831D8A0E
S11325F01C8ABE018CE092E0F2D9FE0174960C882C
S1132600DD89C02D2097C1F6F701E480F580E1143F
S1132610F10469F6DF91CF911F910F91FF90EF9034
S11326200895CF9380911E0290911F02892B09F582
S11326300E946500C82F40911A0250911B0280919C
S1132640B6029091B702FA019587848766E172E039
S11326508CE092E07FDAE0911602F0911702868511
S113266097850196978786870E9467038C2F0E941F
S11326706900CF910895052E97FB16F400940FD0AE
S113268057FD05D014D007FC02D046F408C050957D
S11326904095309521953F4F4F4F5F4F089590954A
S11326A08095709561957F4F8F4F9F4F0895A1E25C
S11326B01A2EAA1BBB1BFD010DC0AA1FBB1FEE1FB8
S11326C0FF1FA217B307E407F50720F0A21BB30B03
S11326D0E40BF50B661F771F881F991F1A9469F77F
S11326E060957095809590959B01AC01BD01CF01DB
S11326F00895FC0188279927E89421912032E9F371
S1132700293010F02E30C8F32B3239F02D3231F449
S1132710689403C03ED0820F911D219120532A302A
S1132720C8F31EF4909581959F4F0895FB01DC0139
S113273001900D920020E1F70895DC015D9155238D
S113274031F0FB01019005160110E1F7B9F780950E
S113275090958A0F9B1F0895FB01DC014150504066
S113276030F08D910190801919F40020B9F7881B7D
S1132770990B0895FB01DC014150504048F0019051
S11327800D920020C9F701C01D9241505040E0F75E
S113279008957AE0979F902D879F802D910D1124A5
S10927A00895F894FFCF38
S11327A6FF40B8022000C600C000C100C200C40039
S11327B6CE00C800C900CA00CC00A30F00006D0FEC
S11327C60000D00E230FF90D130E340E494F434269
S11327D6426C6F636B657200393837363534333281
S11327E631303A00434F4D30004461634D73670006
S11327F654696D65720049646C65004D494449002D
S1132806444143004D616C6C6F63004D53475F4216
S11328164C4F434B455200434F4D005458300054DF
S113282658310052583000525831007B017F0183E1
S11328360187015350492041636365737300535004
S10B28464920446F6E65000097
S9030000FC
