S01800004669726D776172653130302D313035392E7372656342
S113000055C00000CCC4000021C5000074C5000028
S11300106BC0000069C0000067C0000065C000003C
S113002063C0000061C000005FC000005DC000004C
S11300305BC0000059C0000057C0000055C000005C
S113004053C0000051C0000043C400004DC0000074
S11300500C94560F0C940E1047C0000045C00000CD
S1130060DAC3000041C000003FC000003DC00000F2
S11300703BC0000039C0000037C0000035C000009C
S113008033C0000031C000002FC00000060A0D0A72
S1130090120A170AFF0AFF0AFF0A1C0A200AFF0AAB
S11300A0220A240A260AFF0AFF0A280A11241FBE6C
S11300B0CFEFD0E4DEBFCDBF11E0A0E0B1E0E2E8D5
S11300C0F2E200E00BBF02C007900D92A83AB1071C
S11300D0D9F722E0A8EAB1E001C01D92AD3FB20712
S11300E0E1F772D50C943F118BCF8FB7F8948078D9
S11300F008959FB7982B9FBF0895CF93DF93EC018A
S11301007B876A8759874887B9010C960E94051135
S1130110198218821B821A82E8DF288539852130EA
S11301203105C9F4E091CA01F091CB01309759F03F
S1130130FD83EC831F821E82D783C683D093CB01B9
S1130140C093CA0108C0D093CB01C093CA011D82D9
S11301501C821F821E82CDDFDF91CF910895CF9242
S1130160DF92EF92FF920F931F93CF93DF938C0153
S11301707B016A01BADFC091A801D091A90120973F
S113018041F02C813D813093A9012093A801B1DF76
S113019007C0AFDF80E290E0C3D5EC01892B29F0E2
S11301A09601A701B801CE01A8DFCE01DF91CF915E
S11301B01F910F91FF90EF90DF90CF900895FF92E1
S11301C00F931F93CF93DF93EC018FDFF82EE88119
S11301D0F981309799F00CEF1FEF84899589998301
S11301E08883158A148A11870087BF018CEC91E0FB
S11301F00E94630DE881F981309779F776DF2885CD
S11302003985232BE9F02091CA013091CB01C21723
S1130210D30731F42C813D813093CB012093CA0163
S1130220EE81FF81309721F02C813D813583248339
S1130230EC81FD81309721F02E813F813783268325
S11302402091A8013091A9013D832C83D093A90169
S1130250C093A8014EDF8F2D4CDFDF91CF911F910A
S11302600F91FF9008956F927F928F929F92AF9219
S1130270BF92CF92DF92EF92FF920F931F93CF938F
S1130280DF936C01662E772EEA014901CA0148D535
S11302905C011C161D064CF4FC019C012C0F3D1F37
S11302A08DEC8193E217F307E1F71FDFC114D1044A
S11302B009F48CC0D6011F961C921E921E971596A7
S11302C0DC93CE93149717969C928E9216971D9654
S11302D01C921E921C9753961C930E93529713963E
S11302E0BC92AE92129755961C921E9254975796B2
S11302F01C921E925697FE013197EA0DFB1D6082F7
S1130300DF0111977C9211979FE19C93119790E8DC
S11303109C9311979EE19C9311979DE19C93119757
S11303209CE19C9311979BE19C9311979AE19C9378
S11303301197FC921197EC92119797E19C93119766
S113034096E19C93119795E19C93119794E19C936A
S1130350119793E19C93119792E19C93119791E1EA
S11303609C93119790E19C9311979FE09C93119714
S11303709EE09C9311979DE09C9311979CE09C9325
S113038011979BE09C9311979AE09C93119799E0A5
S11303909C93119798E09C93119797E09C931197E5
S11303A096E09C93119795E09C93119794E09C930D
S11303B0119793E09C93119792E09C9311971C9250
S11303C011971C92B397D601ED93FC9392DEDF91C3
S11303D0CF911F910F91FF90EF90DF90CF90BF903E
S11303E0AF909F908F907F906F900895FF93FFB789
S11303F0F894FF93EF93DF93CF93BF93AF939F93BF
S11304008F937F936F935F934F933F932F931F9398
S11304100F93FF92EF92DF92CF92BF92AF929F928F
S11304208F927F926F925F924F923F922F921F9280
S113043011240F92A091D601B091D7010DB60D925F
S11304400EB60D928091DA019091DB019093D70161
S11304508093D601A091DA01B091DB01CD91CDBF9B
S1130460DD91DEBF0F901F902F903F904F905F90D3
S11304706F907F908F909F90AF90BF90CF90DF90C0
S1130480EF90FF900F911F912F913F914F915F91AA
S11304906F917F918F919F91AF91BF91CF91DF9198
S11304A0EF91FF91F7FD03C0FFBFFF910895FF7720
S11304B0FFBFFF9118958091DC019091DD010197B8
S11304C09093DD018093DC018091DC019091DD014A
S11304D0892B09F060C04091D6015091D7018091D9
S11304E0FB029091FC02FA01958784876AED71E022
S11304F08CEC91E00E94F90DE091DA01F091DB01BE
S11305008091D6019091D701E817F90709F443C007
S1130510868597850196978786879EB78DB70296BD
S1130520A091D601B091D7018D939D93F093D701FB
S1130530E093D601A091DA01B091DB01CD91CDBF5A
S1130540DD91DEBF0F901F902F903F904F905F90F2
S11305506F907F908F909F90AF90BF90CF90DF90DF
S1130560EF90FF900F911F912F913F914F915F91C9
S11305706F917F918F919F91AF91BF91CF91DF91B7
S1130580EF91FF91F7FD03C0FFBFFF910895FF773F
S1130590FFBFFF91189508958091DC019091DD01D2
S11305A001969093DD018093DC0108958091D5023A
S11305B09091D60201969093D6028093D502F6CFFD
S11305C0EAE7F0E080818068808310927C0080817B
S11305D08064808380818F608083C0E0D0E0CC24FD
S11305E0C394D12C0F2EFCE7EF2EF12CF02D0AE74B
S11305F010E060E070E080912302909124020E9458
S1130600280BCD2B69F09C014CE050E062E070E0D7
S113061080918B0290918C024ED5C0E0D0E00CC04A
S11306209C014DE050E062E070E080918B0290917B
S11306308C0241D5CC2DDD2D82E390E00E94C90EC1
S1130640F701C083F801808180648083D2CF20E0E9
S113065030E040E050E061E070E080918B029091E6
S11306608C0229D5C0E0D0E080918B0290918C025D
S113067073D5DC012D913C9122303105E1F038F045
S11306802330310541F12430310591F1EDCFFE01E4
S1130690EE0FFF1FE050FF4F8081918101969183FF
S11306A08083BE010E945E0E2196CE30D105E1F614
S11306B0C0E0D0E0D9CFFC01C281D381FE01EE0FAE
S11306C0FF1FE050FF4FDC0114968D919C9115970C
S11306D091838083C9CFFC0182810E94590E80E0FE
S11306E090E00E94FE0B80E090E00E94E70BBCCFFC
S11306F0DC0112968D919C9113979C0121703327F4
S1130700969587958230910521F128F4009749F058
S1130710019799F0A9CF8330910539F1049789F1B4
S1130720A3CF232B29F087E090E00E94160C9CCFE6
S113073087E090E00E942D0C97CF232B29F085E0D1
S113074090E00E94450C90CF85E090E00E945C0C04
S11307508BCF232B29F086E090E00E94450C84CFB8
S113076086E090E00E945C0C7FCF232B29F087E089
S113077090E00E94450C78CF87E090E00E945C0CEA
S113078073CF232B29F083E090E00E94E70B6CCF1A
S113079083E090E00E94FE0B67CF60E070E0809100
S11307A057029091580254D781E090E00E94C90EFC
S11307B086E090E00E942D0CF0CFCF93DF9300D021
S11307C0CDB7DEB7FFD402D58CE090E0A9D28C017E
S11307D00E94CE0F9A83898369817A81C801F9D5F1
S11307E0F7CF60E070E0809171029091720230D78F
S11307F082E090E00E94C90E82E090E0B3D7F1CF8E
S113080080E184BD83E085BD81E080936E008EEF3E
S113081087BD249A0895FF93FFB7F068FF93EF9381
S1130820DF93CF93BF93AF939F938F937F936F93F4
S11308305F934F933F932F931F930F93FF92EF92E6
S1130840DF92CF92BF92AF929F928F927F926F92DC
S11308505F924F923F922F921F9211240F929CDE2F
S11308606091780070917900EAE7F0E0808180611E
S11308708083660F771F660F771F80912302909104
S113088024020E94740C17DE0F901F902F903F904B
S11308904F905F906F907F908F909F90AF90BF909C
S11308A0CF90DF90EF90FF900F911F912F913F9188
S11308B04F915F916F917F918F919F91AF91BF9174
S11308C0CF91DF91EF91FF91FF77FFBFFF911895D3
S11308D0FF93FFB7F068FF93EF93DF93CF93BF933A
S11308E0AF939F938F937F936F935F934F933F93B4
S11308F02F931F930F93FF92EF92DF92CF92BF92A9
S1130900AF929F928F927F926F925F924F923F929B
S11309102F921F9211240F923FDE8AED86BD0E9412
S1130920040FC9DD0F901F902F903F904F905F9060
S11309306F907F908F909F90AF90BF90CF90DF90FB
S1130940EF90FF900F911F912F913F914F915F91E5
S11309506F917F918F919F91AF91BF91CF91DF91D3
S1130960EF91FF91FF77FFBFFF91189583E090E02F
S1130970E2D684E090E0A0D784E090E086D7E89ABD
S11309800895E9E6F0E080818C608083E99A089517
S1130990E9E6F0E0808180638083EA9A0895FF931A
S11309A0FFB7F068FF93EF93DF93CF93BF93AF93B9
S11309B09F938F937F936F935F934F933F932F9363
S11309C01F930F93FF92EF92DF92CF92BF92AF9259
S11309D09F928F927F926F925F924F923F922F924B
S11309E01F9211240F92D8DD5C985C9A20E030E0CD
S11309F040E050E060E070E080918B0290918C02C6
S1130A005AD359DD0F901F902F903F904F905F90D5
S1130A106F907F908F909F90AF90BF90CF90DF901A
S1130A20EF90FF900F911F912F913F914F915F9104
S1130A306F917F918F919F91AF91BF91CF91DF91F2
S1130A40EF91FF91FF77FFBFFF911895FF93FFB7D9
S1130A50F068FF93EF93DF93CF93BF93AF939F938C
S1130A608F937F936F935F934F933F932F931F9332
S1130A700F93FF92EF92DF92CF92BF92AF929F9229
S1130A808F927F926F925F924F923F922F921F921A
S1130A9011240F9281DD20E030E040E050E060E07E
S1130AA070E0809155029091560205D304DD0F90B9
S1130AB01F902F903F904F905F906F907F908F90FA
S1130AC09F90AF90BF90CF90DF90EF90FF900F91E9
S1130AD01F912F913F914F915F916F917F918F91D2
S1130AE09F91AF91BF91CF91DF91EF91FF91FF77EC
S1130AF0FFBFFF911895FF93FFB7F068FF93EF9343
S1130B00DF93CF93BF93AF939F938F937F936F9311
S1130B105F934F933F932F931F930F93FF92EF9203
S1130B20DF92CF92BF92AF929F928F927F926F92F9
S1130B305F924F923F922F921F9211240F922CDDBD
S1130B4020E030E040E050E060E070E08091DE01C1
S1130B509091DF01B0D2AFDC0F901F902F903F90A7
S1130B604F905F906F907F908F909F90AF90BF90C9
S1130B70CF90DF90EF90FF900F911F912F913F91B5
S1130B804F915F916F917F918F919F91AF91BF91A1
S1130B90CF91DF91EF91FF91FF77FFBFFF91189500
S1130BA080EF8AB980EC87B98BEB84B98CEF81B97B
S1130BB0E8EFF1E0108289E081838AE082838BE0B0
S1130BC083838CE08483089590DAEADFADD518DE60
S1130BD060E070E080E090E023D2C8DE31D50E946E
S1130BE0480E0E948610E1D280E190E03AD29093C0
S1130BF08C0280938B0288E090E033D2909356026B
S1130C008093550288E090E02CD29093DF0180938A
S1130C10DE0142E251E060E070E080E090E09FDAC3
S1130C20909358028093570241E351E060E070E0F2
S1130C3080E090E094DA909372028093710240E431
S1130C4051E060E070E080E090E089DA9093240263
S1130C5080932302E12CF12C08E411E023E030E03E
S1130C6040E051E060EE72E085EA92E0FCDA65EA89
S1130C7072E08CEC91E027D70CE411E021E030E045
S1130C8040E051E066ED72E085E292E0ECDA65E284
S1130C9072E08CEC91E017D706E511E024E130E036
S1130CA040E051E067E273E080EE91E0DCDA60EE70
S1130CB071E08CEC91E007D70FE511E022E030E021
S1130CC040E051E06DEC73E08DEB92E0CCDA6DEB3B
S1130CD072E08CEC91E0F7D609E611E022E030E016
S1130CE040E051E061EF73E08DE892E0BCDA6DE83A
S1130CF072E08CEC91E0E7D604E711E02AE030E002
S1130D0040E051E06DED73E083E792E0ACDA63E735
S1130D1072E08CEC91E0D7D634DE3ADEFCD7FFCF1C
S1130D20EF92FF920F931F93CF93DF938C0160E0B8
S1130D3070E089ED92E08CD40230110510F402E0E9
S1130D4010E0A091F902B091FA02109709F483C05F
S1130D504D915C9111970417150791F0CA01FD019B
S1130D6020E030E01EC08881998108171907C1F47A
S1130D70309729F08A819B81938382830AC0DE01A4
S1130D8012968D919C9113979093FA028093F90295
S1130D90ED0160E070E089ED92E0A6D52296A8C04E
S1130DA0FE010817190748F42115310529F08217A7
S1130DB0930718F49C0101C09C01C281D381209740
S1130DC091F62115310509F446C0C901801B910B28
S1130DD0049708F487C087C0F701808191812817A0
S1130DE0390781F520173107D9F4109739F082813A
S1130DF0938113969C938E9312970AC0D7011296EF
S1130E008D919C9113979093FA028093F9027D013E
S1130E1060E070E089ED92E067D5E701229668C052
S1130E20201B310BE701C20FD31F099319932250E2
S1130E303109F7013183208360E070E089ED92E0AD
S1130E4053D556C0D7011296ED90FC901397E11438
S1130E50F10409F0C1CF8091D7029091D802892B77
S1130E6041F480911E0190911F019093D8028093C8
S1130E70D70280911C0190911D01009741F48DB718
S1130E809EB72091200130912101821B930BC091C8
S1130E90D702D091D8028C1B9D0B80179107A0F02C
S1130EA098012E5F3F4F8217930770F02C0F3D1F60
S1130EB03093D8022093D7020993199360E070E02D
S1130EC089ED92E011D514C060E070E089ED92E004
S1130ED00BD5C0E0D0E00CC02017310709F48FCF48
S1130EE07D019ECF89012417350709F0ACCFF4CFDB
S1130EF0CE01DF91CF911F910F91FF90EF90089554
S1130F000F931F93CF93DF93009709F484C08C0150
S1130F1060E070E089ED92E09BD3D80112971396BC
S1130F201C921E921297E091F902F091FA02309706
S1130F3021F0EA17FB0778F05FC0B093FA02A093A0
S1130F40F90260E070E089ED92E0CED464C08A17C3
S1130F509B0730F4FC01828193810097C1F72EC076
S1130F60980122503109E9019B838A8328813981C0
S1130F70A801420F531F84179507A1F402C0E0E0B3
S1130F80F0E0EC01688179816E5F7F4F260F371F97
S1130F90E8013A932A93AE01EC018A819B81EA012C
S1130FA09B838A83309751F4B093FA02A093F90299
S1130FB060E070E089ED92E097D42DC0B383A28302
S1130FC0EF0129913991CE01820F931FA817B90718
S1130FD069F4E8015A914A91240F351F2E5F3F4F5F
S1130FE0318320838A819B819383828360E070E0D4
S1130FF089ED92E079D40FC0C8010297EC01FB831C
S1131000EA8328813981C801820F931FE817F90701
S113101009F4B5CFC9CFDF91CF911F910F910895F6
S11310200F931F93CF93DF938C01EB012CE731E0F7
S113103040E050E061E070E089ED92E05ED8011597
S1131040110521F010931F0100931E01209721F038
S1131050D0931D01C0931C01DF91CF911F910F917B
S113106008950F931F93CF93DF938C018CE090E04E
S113107057DEEC01C801880F991F800F911F880F5C
S1131080991F4EDE9B878A8743E851E060E070E059
S113109080E090E064D8998388831D821C8219873C
S11310A008871F821E821B821A82CE01DF91CF9194
S11310B01F910F910895FC01A281B38180859185D0
S11310C0A817B9070CF047C084819581DC01AA0FE9
S11310D0BB1F8A0F9B1F880F991FA285B385A80F7A
S11310E0B91F6D937C9384819581DC01AA0FBB1F8A
S11310F08A0F9B1F880F991FA285B385A80FB91F5C
S113110013965C934E93129784819581DC01AA0F08
S1131110BB1F8A0F9B1F880F991FA285B385A80F39
S1131120B91F15963C932E9314978481958101964B
S113113095838483208531858217930711F4158262
S113114014828281938101969383828360E070E0AC
S113115080819181C9C30895CF93DF93EC0160E04E
S113116070E08881998174D22E813F81C901880FF2
S1131170991F820F931F880F991F4A855B85840FDF
S1131180951F2F5F3F4F3F832E8348855985241732
S1131190350711F41F821E822A813B8121503109B7
S11311A03B832A83DF91CF9108954BE851E060E0BF
S11311B070E081E090E00E94AF009093AB018093D7
S11311C0AA0108958CE090E0ABCD0895CF93DF930E
S11311D0EC011A8219821D821F821E8280E890E02F
S11311E09FDD9987888718821B821C82DF91CF91AB
S11311F00895FC018085918526813781A9014F5F7F
S11312005F4F57834683FC01E20FF31F6083089509
S113121087E090E00BC3089587E090E007C308954A
S113122087E090E01AC3089582E090E084D260E001
S113123070E0809171029091720256C3089586E025
S113124090E0F4D260E070E08091570290915802EF
S11312504BC308959091F801981324C080E2689FCD
S11312609001112440E050E062E070E080918B0234
S113127090918C0220DF20E030E040E050E063E019
S113128070E0809155029091560215DF20E030E025
S113129040E050E063E070E08091DE019091DF0176
S11312A00ACF08959091F901891749F09091FA01B4
S11312B0891729F09091FB0189138091FC0108950D
S11312C0CF93DF93C42F9091F801981329C080E243
S11312D0689F9001112440E050E062E070E080914A
S11312E08B0290918C02E7DEC11103C0C3E0D0E011
S11312F002C0C2E0D0E020E030E040E050E0BE01B7
S11313008091550290915602D6DE20E030E040E014
S113131050E0BE018091DE019091DF01CCDE47C038
S11313209091F90189130EC080E2689F9001112405
S113133044E050E062E070E080918B0290918C0276
S1131340BADE35C09091FA0189130EC080E2689F1D
S11313509001112445E050E062E070E080918B023E
S113136090918C02A8DE23C09091FB0189130EC0DA
S113137080E2689F9001112446E050E062E070E052
S113138080918B0290918C0296DE11C09091FC01A9
S113139089130DC080E2689F9001112447E050E05A
S11313A062E070E080918B0290918C0284DEDF9188
S11313B0CF9108959091F80198130AC0AB0120E0F1
S11313C030E063E070E080918B0290918C0273CEE8
S11313D00895CF93DF93EC0166230CF03BC0603F8C
S11313E048F4862F807F8983E62FEF70EA8381E0BB
S11313F08D8305C1462F50E0FA01E05FF109E03129
S1131400F10508F0FCC0EA5BFF4FF6C685E08D836A
S113141080EF89831F821E82F2C081EF898384E07A
S11314208D83EDC082EF898381E08D83E8C083EFF3
S1131430898384E08D83E3C01D8287EF8983DFC0C5
S1131440FEDEDDC0E5DEDBC0E7DED9C0E9DED7C005
S1131450EBDED5C08981803D09F464C080F4803A14
S113146009F44CC028F48038E1F0803969F1C7C030
S1131470803B09F454C0803C09F484C0C0C0813F5F
S113148009F49DC038F4803E09F45BC0803F09F440
S11314907CC0B5C0823F09F494C0833F09F4AEC058
S11314A0AEC08D81813019F0823029F0A8C06B83E1
S11314B082E08D83A4C08B818C83462F682F8A8120
S11314C0C9DE81E08D839BC08D81813019F082302B
S11314D029F095C06B8382E08D8391C08B818C83CE
S11314E0662329F0462F682F8A81EADE04C040E093
S11314F0682F8A81AFDE81E08D8381C08D81813048
S113150019F0823029F07BC06B8382E08D8377C031
S113151081E08D838B818C838091F80170C08091F0
S1131520F8016DC08D81813019F0823029F067C0D7
S113153082E08D836B8363C081E08D838B818C8398
S11315405EC08D81813019F0823041F058C0E62FA1
S1131550F0E0FB87EA8782E08D8351C080E8689FD2
S1131560F00111246A857B85E62BF72BBF01660FFA
S1131570771F660F771F7B876A8781E08D838A8157
S113158019DF3DC081E08D833AC08D81863061F0E2
S1131590873091F0853099F56D3719F486E08D83A5
S11315A02EC088E08D832BC0603119F487E08D83D1
S11315B026C088E08D8323C0CE011BDE20C01D829F
S11315C01EC08D81813019F0823041F018C0E62FA1
S11315D0F0E0FB87EA8782E08D8311C080E8689F92
S11315E0F00111244A855B85E42BF52BEE0FFF1FD8
S11315F0EE0FFF1FFB87EA871D8201C01D8280E07A
S113160090E0DF91CF910895CF93DF93DC01ED91CA
S1131610FC91EB01A881B9818681978116962D9161
S11316203C911797821B930B41F41C968D919C91CE
S11316301D9724853585821B930BDF91CF910895E7
S113164044E05BE060E270E08CEC91E027C2089536
S1131650EF92FF921F93CF93DF93EC017B010E94E3
S11316607500182F8A859B85181619064CF4019766
S11316709B878A87812F0E94790080E090E04EC08A
S113168001979B878A8788819981892B39F4809176
S1131690D6019091D7019983888308C0EA81FB81A0
S11316A08091D6019091D701958B848BE091D601DE
S11316B0F091D701FB83EA8311861086888599858A
S11316C0892B11F0F18AE08A8091FB029091FC024F
S11316D0958784876AED71E08CEC91E05FD2892B69
S11316E061F0E091DA01F091DB018685978501963E
S11316F0978786870E94F60108C0E091D601F09191
S1131700D7018FEF9FEF91878087812F0E94790007
S1131710E091D601F091D70180859185DF91CF9139
S11317201F91FF90EF90089512B881E485B918B81D
S113173080E18BB90895CF93C82F0E9475009091D2
S1131740AF0121E030E002C0220F331FCA95E2F757
S1131750292B2093AF019091AF0192B90E94790097
S1131760CF910895CF93C82F0E9475009091AF0137
S113177021E030E002C0220F331FCA95E2F7209522
S113178029232093AF019091AF0192B90E9479006F
S1131790CF910895CF93DF93EC010E94750090914F
S11317A0AF019F709093AF019091AF01C295D29514
S11317B0D07FDC27C07FDC27C92BC093AF01909179
S11317C0AF0192B90E947900DF91CF910895CF9330
S11317D0C82F0E9475009091AE0121E030E002C054
S11317E0220F331FCA95E2F7292B2093AE01909163
S11317F0AE0195B90E947900CF910895CF93C82F77
S11318000E9475009091AE0121E030E002C0220FE9
S1131810331FCA95E2F7209529232093AE019091B6
S1131820AE0195B90E947900CF910895CF93C82F46
S11318300E9475009091AD0121E030E002C0220FBA
S1131840331FCA95E2F7292B2093AD019091AD0186
S113185098B90E947900CF910895CF93C82F0E9420
S113186075009091AD0121E030E002C0220F331FDA
S1131870CA95E2F7209529232093AD019091AD01FB
S113188098B90E947900CF910895CF93C82F0E94F0
S113189075009091AC0121E030E002C0220F331FAB
S11318A0CA95E2F7292B2093AC019091AC019BB926
S11318B00E947900CF910895CF93C82F0E9475009C
S11318C09091AC0121E030E002C0220F331FCA9591
S11318D0E2F7209529232093AC019091AC019BB9A8
S11318E00E947900CF910895EF92FF921F93CF93B6
S11318F0DF93EC017B018091DC019091DD01892B68
S113190021F40E947500182F01C010E08A859B8580
S11319108E3F2FE79207CCF599236CF001969B87B5
S11319208A87C091DC01D091DD012097D1F5812F08
S11319300E9479003EC001969B878A87E881F981DD
S11319403097C9F08489958999838883158A148A84
S1131950F186E086BF018CEC91E0B5D08091DC018A
S11319609091DD01892B19F4812F0E9479001AD4FA
S1131970C0E0D0E01EC0C091DC01D091DD01209711
S113198099F4812F0E94790014C08091DC01909118
S1131990DD01892B61F4812F0E947900CEEFDFEF06
S11319A008C0C0E0D0E005C0C0E0D0E002C0CEEF87
S11319B0DFEFCE01DF91CF911F91FF90EF9008955B
S11319C06F927F928F929F92AF92BF92CF92DF924B
S11319D0EF92FF920F931F93CF93DF93DC0118963E
S11319E0AD90BC90199712962D913C91139722308B
S11319F031050CF444C06C01EE24E394F12CC0E0F6
S1131A00D0E002C0E7017C01CC0FDD1FCA0DDB1D55
S1131A108701000F111F0A0D1B1D3701BFEF6B1A41
S1131A207B0A6216730674F44801E2E08E0E911C80
S1131A30D601ED91FC91B401C8010995992314F4E0
S1131A4084017301D601ED91FC91B801CE01099591
S1131A509923ACF488819981F801208131813983FB
S1131A60288391838083C701880F991F0196D6012B
S1131A7012962D913C911397821793071CF2DF91D4
S1131A80CF911F910F91FF90EF90DF90CF90BF9077
S1131A90AF909F908F907F906F900895CF93DF9336
S1131AA0EC01598348831B821A827D836C83CB01AA
S1131AB0880F991F35D99987888702979F838E83CA
S1131AC0DF91CF910895AF92BF92CF92DF92EF92C0
S1131AD0FF920F931F93CF93DF93DC0112962D9106
S1131AE03C9113971496ED90FC901597E21AF30A23
S1131AF01E141F040CF046C08C012F5F3F4FFC01E5
S1131B00338322830680F781E02DCF010296179656
S1131B109C938E9316977383628312966D917C9136
S1131B201397615071091616170664F5CB010197D6
S1131B306C011AF4BFEFCB1ADB0AD594C794F801F1
S1131B4080859185660F771FEC01C60FD71F56015C
S1131B50AA0CBB1CA80EB91E0190F081E02DBE0199
S1131B60C5010995992374F4D5018D919C91119720
S1131B70288139812D933C9399838883B6011C1461
S1131B801D04A4F2C701DF91CF911F910F91FF9023
S1131B90EF90DF90CF90BF90AF900895CF93DF93F5
S1131BA0DC011296CD91DC9113971C161D06ECF402
S1131BB0FC01A085B1858D919C91DB018D939C9353
S1131BC080859185A681B7819D0122503109378393
S1131BD026832D913C91DC012D933C93828193814A
S1131BE0019793838283CF01EBDECE01DF91CF9106
S1131BF00895CF92DF92EF92FF920F931F93CF93AA
S1131C00DF9300D0CDB7DEB75A834983DC01129647
S1131C10CD90DC9013971C141D044CF57B018C01B2
S1131C20FC01608571850190F081E02DCE01019663
S1131C3009951816190634F489819A81D7018D9370
S1131C409C931AC0D8011896ED91FC911997808144
S1131C509181F701918380831896ED91FC911997F6
S1131C6089819A8191838083C801AADE05C0898114
S1131C709A81DB018D939C93C6010F900F90DF91A5
S1131C80CF911F910F91FF90EF90DF90CF90089527
S1131C908CB580658CBD8CB5877D8CBD08958DB564
S1131CA0082E000C990B892F881F8827881F90E025
S1131CB008958EBDF4DF892BE9F30895FF920F9305
S1131CC01F93CF93DF9300D0CDB7DEB79A83898378
S1131CD08B018A8199819A838EBDE1DF892BE9F397
S1131CE08A818EBDDCDF892BE9F30E947500F82E12
S1131CF083E090E037DD83E090E01DDD8F2D0E94CE
S1131D007900C80147DD0F900F90DF91CF911F91AB
S1131D100F91FF9008956AED71E08CEC91E03EDF45
S1131D208091DA019091DB019093D7018093D601E1
S1131D30A091DA01B091DB01CD91CDBFDD91DEBF81
S1131D400F901F902F903F904F905F906F907F90D7
S1131D508F909F90AF90BF90CF90DF90EF90FF90C7
S1131D600F911F912F913F914F915F916F917F91AF
S1131D708F919F91AF91BF91CF91DF91EF91FF919F
S1131D80F7FD03C0FFBFFF910895FF77FFBFFF91E9
S1131D901895EF92FF920F931F93CF93DF937C01DB
S1131DA080E290E00E949006D82FC92F682F792FE7
S1131DB084E4FB018193BF018091B0019091B10152
S1131DC09C012F5F3F4F3093B1012093B0014AE053
S1131DD023D24D2F5C2F61E070E080E090E00E9400
S1131DE0AF008C018D2F9C2F8BD8B701C80130DC3C
S1131DF0EC01C8010E94DF00CE01DF91CF911F9159
S1131E000F91FF90EF900895EF92FF920F931F931D
S1131E10CF93DF938091FB029091FC020196909303
S1131E20FC028093FB02E090CA01F090CB01E11424
S1131E30F104A9F10DEF1FEFF701C081D1812097C3
S1131E4041F18889998918161906E4F40197998B48
S1131E50888B18161906B4F0D7011A968D919C91A7
S1131E601B9701961B969C938E931A971987088744
S1131E708C899D89918380831D8A1C8ABE018CEC88
S1131E8091E021DEFE0174960C88DD89C02D209737
S1131E90C1F6F701E480F580E114F10469F6DF91FD
S1131EA0CF911F910F91FF90EF900895FF93FFB78B
S1131EB0F068FF93EF93DF93CF93BF93AF939F9318
S1131EC08F937F936F935F934F933F932F931F93BE
S1131ED00F93FF92EF92DF92CF92BF92AF929F92B5
S1131EE08F927F926F925F924F923F922F921F92A6
S1131EF011240F920E94CC02EEEBF1E0228533858F
S1131F0084819581281739071CF5EF0160E070E0A2
S1131F1080819181E9DC4091C6006A817B818E8158
S1131F209F819C012F5F3F4F3F832E83FB01E80F6E
S1131F30F91F40838A859B8501969B878A878C81BC
S1131F409D812817390721F41092C5011092C4010C
S1131F500E945B020F901F902F903F904F905F90D4
S1131F606F907F908F909F90AF90BF90CF90DF90B5
S1131F70EF90FF900F911F912F913F914F915F919F
S1131F806F917F918F919F91AF91BF91CF91DF918D
S1131F90EF91FF91FF77FFBFFF9118950F931F9368
S1131FA0CF93DF93CEEBD1E060E070E0888199813C
S1131FB04FDB0E9475006A817B8128853985A901E0
S1131FC04F5F5F4F59874887FB01E20FF31F008182
S1131FD010E02A853B85215031093B872A872C81D3
S1131FE03D814217530721F41092C7011092C60194
S1131FF00E947900C801DF91CF911F910F9108953C
S1132000882331F0E1ECF0E08081806280830895E0
S1132010E1ECF0E080818F7D80830895FF93FFB72A
S1132020F068FF93EF93DF93CF93BF93AF939F93A6
S11320308F937F936F935F934F933F932F931F934C
S11320400F93FF92EF92DF92CF92BF92AF929F9243
S11320508F927F926F925F924F923F922F921F9234
S113206011240F920E94CC02C2EBD1E060E070E038
S11320708881998139DC2A813B8188859985AC01E5
S11320804F5F5F4F59874887F901E80FF91F808137
S11320908093C6008A859B8501979B878A87892BB5
S11320A011F480E0ADDFE2EBF1E02085318584813D
S11320B095812817390721F41092BB011092BA01B7
S11320C00E945B020F901F902F903F904F905F9063
S11320D06F907F908F909F90AF90BF90CF90DF9044
S11320E0EF90FF900F911F912F913F914F915F912E
S11320F06F917F918F919F91AF91BF91CF91DF911C
S1132100EF91FF91FF77FFBFFF9118950F931F93F6
S1132110CF93DF9380E890E00E949006C2EBD1E079
S11321209B838A831F821E82198618861B861A86C1
S113213000E810E01D830C8347E951E060E070E0A3
S113214080E890E00E94AF009983888380E890E063
S11321500E949006CEEBD1E09B838A831F821E826D
S1132160198618861B861A864FE951E060E070E0F4
S113217080E090E00E94AF00998388831D830C83E4
S11321801092C50087E28093C4001092C00088E9D1
S11321908093C10086E08093C200DF91CF911F91AC
S11321A00F910895CF938091DC019091DD01892BEB
S11321B009F50E947500C82F4091D6015091D701AE
S11321C08091FB029091FC02FA01958784876AED65
S11321D071E08CEC91E00DDDE091DA01F091DB012E
S11321E0868597850196978786870E94F6018C2FAE
S11321F00E947900CF910895EE0FFF1F0024001C68
S11322000BBE0790F691E02D0994FB01DC010190CF
S11322100D920020E1F70895BB274A3031F4992349
S113222022F4BDE2909581959F4F01C0BB27FB012D
S11322305527AA27880F991FAA1FA41710F0A41BBB
S113224083955051B9F7A05DAA3308F0A95DA19315
S1132250009779F7B111B1931192CB0100C0DC0161
S1132260FC01672F71917723E1F7329704C07C91C9
S11322706D9370836291AE17BF07C8F30895F89405
S1052280FFCF8A
S11322820000F401FA00E803F401D007DC0520039E
S11322925E01A00F05009301B80B0000FF40FD0290
S11322A220004D69646920436C6F636B2053656D34
S11322B2004D6964692052657365742053656D002D
S11322C24164632053656D004144430049646C6575
S11322D2205461736B00446163205461736B004D3D
S11322E2696469436C6F636B004D6964692052656C
S11322F2736574004D69646920496E004D616C6CAC
S11323026F63004D657373616765004D53475F42A8
S11323124C4F434B4552005478426C6F636B0052EE
S10B232278426C6F636B00004C
S9030000FC
