:100000000C943C000C944F030C94A1030C945900E5
:100010000C9459000C9459000C9459000C945900FC
:100020000C9459000C9459000C9459000C945900EC
:100030000C9459000C9459000C9459000C945900DC
:100040000C9459000C9459000C9459000C945900CC
:100050000C9459000C9459000C9459000C945900BC
:100060000C9459000C945900FB03FF0304040A0488
:10007000100415041B04210411241FBECFEFD8E087
:10008000DEBFCDBF11E0A0E0B1E0ECE3F2E102C0E1
:1000900005900D92AE30B107D9F721E0AEE0B1E0A6
:1000A00001C01D92AC38B207E1F70E94EB040C943A
:1000B0001C090C9400008FB7F894807808959FB7BE
:1000C000982B9FBF0895FC0111821082738762876D
:1000D00051874087158214821782168213821282FA
:1000E0000895FF920F931F93CF93DF93EC010E942B
:1000F0005B00F82E2A813B8121153105E9F06A85E4
:100100007B858C819D81AC014F5F5F4F5D834C830C
:10011000FB01E80FF91F008110E0888599854817D9
:10012000590711F41D821C82215031093B832A8317
:100130008F2D0E945F004DC080911A0190911B018C
:1001400099838883E0911A01F0911B011186108632
:1001500080918A0190918B01958784876EE171E08F
:1001600080E191E00E942908892B31F1E0911E0184
:10017000F0911F01868597850196978786870E9453
:1001800050024A855B858C819D819C012F5F3F4F8A
:100190003D832C83FA01E80FF91F008110E0888568
:1001A00099852817390711F41D821C828A819B8149
:1001B00001979B838A830AC0E0911A01F0911B0189
:1001C0008FEF9FEF918780870FEF1FEF8F2D0E949A
:1001D0005F00C801DF91CF911F910F91FF900895AB
:1001E000FF920F931F93CF93DF93EC01162F809113
:1001F000200190912101892B21F40E945B00F82EAF
:1002000001C0F12C2A813B818885998528173907FF
:10021000F0F42A853B858E819F81AC014F5F5F4F53
:100220005F834E83F901E80FF91F10832E813F8110
:10023000888599852817390711F41F821E828A81C3
:100240009B8101969B838A8300E010E002C00EEF41
:100250001FEFE881F9813097B1F01187008768813D
:10026000798180E191E00E94BE0719821882809115
:10027000200190912101892B19F48F2D0E945F009C
:100280000E94E40809C08091200190912101892BEE
:1002900019F48F2D0E945F00C801DF91CF911F914B
:1002A0000F91FF900895CF93DF93EC017B876A87CE
:1002B000598748872115310521F0B9010C960E9414
:1002C0001509198218821B821A820E945B002885F8
:1002D000398521303105C9F4E0910E01F0910F010B
:1002E000309759F0FD83EC831F821E82D783C6832B
:1002F000D0930F01C0930E0108C0D0930F01C0939B
:100300000E011D821C821F821E820E945F00DF91EF
:10031000CF9108956F927F928F929F92AF92BF92EA
:10032000CF92DF92EF92FF920F931F93CF93DF93C1
:100330006C01662E772EEA014901CA010E9422054E
:100340005C011C161D064CF4FC019C012C0F3D1F8A
:100350008DEC8193E217F307E1F70E945B00C11473
:10036000D10409F48CC0D6011F961C921E921E97D0
:100370001596DC93CE93149717969C928E921697AF
:100380001D961C921E921C9753961C930E93529787
:100390001396BC92AE92129755961C921E92549749
:1003A00057961C921E925697FE013197EA0DFB1D3F
:1003B0006082DF0111977C9211979FE19C931197C6
:1003C00090E89C9311979EE19C9311979DE19C93DB
:1003D00011979CE19C9311979BE19C9311979AE153
:1003E0009C931197FC921197EC92119797E19C9333
:1003F000119796E19C93119795E19C93119794E145
:100400009C93119793E19C93119792E19C93119780
:1004100091E19C93119790E19C9311979FE09C939D
:1004200011979EE09C9311979DE09C9311979CE0FF
:100430009C9311979BE09C9311979AE09C93119742
:1004400099E09C93119798E09C93119797E09C9367
:10045000119796E09C93119795E09C93119794E0E7
:100460009C93119793E09C93119792E09C93119722
:100470001C9211971C92B397D601ED93FC930E94A6
:100480005F00DF91CF911F910F91FF90EF90DF9070
:10049000CF90BF90AF909F908F907F906F90089576
:1004A000FF93FFB7F894FF93EF93DF93CF93BF933E
:1004B000AF939F938F937F936F935F934F933F93EC
:1004C0002F931F930F93FF92EF92DF92CF92BF92E1
:1004D000AF929F928F927F926F925F924F923F92D4
:1004E0002F921F9211240F92A0911A01B0911B011B
:1004F0000DB60D920EB60D9280911E0190911F01C6
:1005000090931B0180931A01A0911E01B0911F01CD
:10051000CD91CDBFDD91DEBF0F901F902F903F900A
:100520004F905F906F907F908F909F90AF90BF9013
:10053000CF90DF90EF90FF900F911F912F913F91FF
:100540004F915F916F917F918F919F91AF91BF91EB
:10055000CF91DF91EF91FF91F7FD03C0FFBFFF91B6
:100560000895FF77FFBFFF9118958091200190912A
:100570002101019790932101809320018091200116
:1005800090912101892B09F060C040911A0150918E
:100590001B0180918A0190918B01FA0195878487D4
:1005A0006EE171E080E191E00E945508E0911E014A
:1005B000F0911F0180911A0190911B01E817F90732
:1005C00009F443C0868597850196978786879EB7ED
:1005D0008DB70296A0911A01B0911B018D939D9346
:1005E000F0931B01E0931A01A0911E01B0911F012D
:1005F000CD91CDBFDD91DEBF0F901F902F903F902A
:100600004F905F906F907F908F909F90AF90BF9032
:10061000CF90DF90EF90FF900F911F912F913F911E
:100620004F915F916F917F918F919F91AF91BF910A
:10063000CF91DF91EF91FF91F7FD03C0FFBFFF91D5
:100640000895FF77FFBFFF911895089580912001CD
:1006500090912101019690932101809320010895AA
:1006600080E090E000E010E0D1E0C0E05C9B0BC0D7
:100670000097E1F763E070E08AE591E00E94F00006
:100680008D2F9C2FF3CF8130910581F764E070E0CE
:100690008AE591E00E94F000802F912FE7CFFF9331
:1006A000FFB7F068FF93EF93DF93CF93BF93AF93C0
:1006B0009F938F937F936F935F934F933F932F936A
:1006C0001F930F93FF92EF92DF92CF92BF92AF9260
:1006D0009F928F927F926F925F924F923F922F9252
:1006E0001F9211240F920E94260361E070E08AE5B8
:1006F00091E00E94F0000E94B5020F901F902F9091
:100700003F904F905F906F907F908F909F90AF90B1
:10071000BF90CF90DF90EF90FF900F911F912F919E
:100720003F914F915F916F917F918F919F91AF9189
:10073000BF91CF91DF91EF91FF91FF77FFBFFF91C5
:100740001895FF93FFB7F068FF93EF93DF93CF9374
:10075000BF93AF939F938F937F936F935F934F93C9
:100760003F932F931F930F93FF92EF92DF92CF92BD
:10077000BF92AF929F928F927F926F925F924F92B1
:100780003F922F921F9211240F920E94260362E043
:1007900070E08AE591E00E94F0000E94B5020F909F
:1007A0001F902F903F904F905F906F907F908F9011
:1007B0009F90AF90BF90CF90DF90EF90FF900F9100
:1007C0001F912F913F914F915F916F917F918F91E9
:1007D0009F91AF91BF91CF91DF91EF91FF91FF7703
:1007E000FFBFFF91189588309105A8F5FC01EC5CDE
:1007F000FF4F0C940F0988B1817090E0089588B183
:100800008695817090E0089588B182FB882780F9F1
:1008100090E0089588B183FB882780F990E00895DF
:1008200088B18295817090E0089588B185FB882712
:1008300080F990E008958BB186FB882780F990E0DD
:1008400008958BB1082E000C990B892F881F8827DB
:10085000881F90E0089580E090E00895892B11F0C2
:100860005D9A08955D980895892B11F0589A08951E
:1008700058980895892B11F0599A08955998089518
:1008800095B1987F95B995B18770982B95B90895D2
:1008900080E090E00E94340480E090E00E943A04FE
:1008A00080E090E00E942E0480E090E00E944004EE
:1008B000C12CD12CA12CB12CE12CF12CC0E0D0E02A
:1008C00000E010E08AE591E00E947100823091051D
:1008D00009F476C01CF4019759F0F4CF83309105E8
:1008E00021F0049709F474C0EDCFC1E0D0E0EACF65
:1008F000E114F10451F1802F912F0E942E0481E028
:1009000090E00E943A04802F912F0E944004802F93
:10091000912F0E94F303892B61F081E090E00E9407
:100920003404CC24C394D12CA12CB12CE02EF12E74
:10093000C9CF802F912F0E943404CC24C394D12C92
:10094000A12CB12CE02EF12EBDCFC114D10409F49D
:10095000B9CF209789F0802F912F0E943A04802FE1
:10096000912F0E943404802F912F0E944004C02EAA
:10097000D12EA12CB12CA6CF8FEFA81AB80A88E0EF
:10098000A816B10494F4C5010E944004C5010E9458
:10099000F303892B29F081E090E00E94340492CF88
:1009A000802F912F0E9434048DCF802F912F0E9491
:1009B0003404802F912F0E943A04C02ED12E82CF72
:1009C00081E090E00E942E04EE24E394F12C7ACF93
:1009D000C02FD12F77CF0E94560660E070E080E0F4
:1009E00090E00E941806E12CF12C00E010E021E0DC
:1009F00030E040E850E060E373E08AE291E00E947A
:100A00008A016AE271E080E191E00E94BE072AE07B
:100A100030E040E850E068E474E082E491E00E9455
:100A20008A0162E471E080E191E00E94BE0748E043
:100A300050E062E271E08AE591E00E9463000E946A
:100A4000A508FFCFEF92FF920F931F93CF93DF93F1
:100A50008C0160E070E088E691E00E945F06023061
:100A6000110510F402E010E0A0918801B091890115
:100A7000109709F486C04D915C91119704171507E2
:100A800091F0CA01FD0120E030E01FC0888199810A
:100A900008171907C9F4309729F08A819B8193833D
:100AA00082830AC0DE0112968D919C9113979093D8
:100AB000890180938801ED0160E070E088E691E0B3
:100AC0000E94CC062296ACC0FE010817190748F414
:100AD0002115310529F08217930718F49C0101C0F4
:100AE0009C01C281D381209789F62115310509F433
:100AF00048C0C901801B910B049708F48BC08BC0C0
:100B0000F701808191812817390791F52017310766
:100B1000E1F4109739F08281938113969C938E9320
:100B200012970AC0D70112968D919C9113979093BA
:100B30008901809388017D0160E070E088E691E0A2
:100B40000E94CC06E70122966BC0201B310BE70107
:100B5000C20FD31F0993199322503109F701318332
:100B6000208360E070E088E691E00E94CC0658C0E7
:100B7000D7011296ED90FC901397E114F10409F05F
:100B8000BFCF8091660190916701892B41F48091DC
:100B90000201909103019093670180936601809117
:100BA000000190910101009741F48DB79EB720910B
:100BB000040130910501821B930BC0916601D09115
:100BC00067018C1B9D0B80179107A8F098012E5F81
:100BD0003F4F8217930778F02C0F3D1F309367012A
:100BE000209366010993199360E070E088E691E034
:100BF0000E94CC0615C060E070E088E691E00E949B
:100C0000CC06C0E0D0E00CC02017310709F48BCF30
:100C10007D019BCF89012417350709F0AACFF4CFB6
:100C2000CE01DF91CF911F910F91FF90EF9008952A
:100C30000F931F93CF93DF938C01EB0126E031E0FC
:100C400040E050E061E070E088E691E00E945301EE
:100C50000115110521F01093030100930201209763
:100C600021F0D0930101C0930001DF91CF911F913A
:100C70000F910895CF93DF93DC01ED91FC91EB018F
:100C8000A881B9818681978116962D913C911797FD
:100C9000821B930B41F41C968D919C911D9724858A
:100CA0003585821B930BDF91CF9108954AE356E07F
:100CB00060E170E080E191E00E94A8070895EF9262
:100CC000FF921F93CF93DF93EC017B010E945B00A7
:100CD000182F8A859B85181619064CF401979B8757
:100CE0008A87812F0E945F0080E090E04FC00197CB
:100CF0009B878A8788819981892B39F480911A0191
:100D000090911B019983888308C0EA81FB818091BF
:100D10001A0190911B01958B848BE0911A01F0913F
:100D20001B01FB83EA831186108688859985892BB0
:100D300011F0F18AE08A80918A0190918B01958768
:100D400084876EE171E080E191E00E942908892B9F
:100D500061F0E0911E01F0911F0186859785019653
:100D6000978786870E94500208C0E0911A01F0918F
:100D70001B018FEF9FEF91878087812F0E945F007B
:100D8000E0911A01F0911B0180859185DF91CF914F
:100D90001F91FF90EF900895EF92FF921F93CF93D2
:100DA000DF93EC017B018091200190912101892B3F
:100DB00021F40E945B00182F01C010E08A859B85FA
:100DC0008E3F2FE79207DCF599236CF001969B8705
:100DD0008A87C0912001D09121012097E1F5812FD0
:100DE0000E945F0040C001969B878A87E881F98155
:100DF0003097D9F08489958999838883158A148AD4
:100E0000F186E086BF0180E191E00E94BE078091FB
:100E1000200190912101892B19F4812F0E945F00FC
:100E20000E94E408C0E0D0E01EC0C0912001D09133
:100E30002101209799F4812F0E945F0014C08091B6
:100E4000200190912101892B61F4812F0E945F0084
:100E5000CEEFDFEF08C0C0E0D0E005C0C0E0D0E0DA
:100E600002C0CEEFDFEFCE01DF91CF911F91FF9057
:100E7000EF9008956F927F928F929F92AF92BF9260
:100E8000CF92DF92EF92FF920F931F93CF93DF9356
:100E9000DC011896AD90BC90199712962D913C915B
:100EA0001397223031050CF444C06C01EE24E39416
:100EB000F12CC0E0D0E002C0E7017C01CC0FDD1FC7
:100EC000CA0DDB1D8701000F111F0A0D1B1D370105
:100ED000BFEF6B1A7B0A6216730674F44801E2E0F6
:100EE0008E0E911CD601ED91FC91B401C8010995BB
:100EF000992314F484017301D601ED91FC91B8019A
:100F0000CE0109959923ACF488819981F80120815B
:100F100031813983288391838083C701880F991F8A
:100F20000196D60112962D913C9113978217930743
:100F30001CF2DF91CF911F910F91FF90EF90DF9006
:100F4000CF90BF90AF909F908F907F906F900895BB
:100F5000CF93DF93EC01598348831B821A827D83F0
:100F60006C83CB01880F991F0E942205998788877F
:100F700002979F838E83DF91CF910895AF92BF92A6
:100F8000CF92DF92EF92FF920F931F93CF93DF9355
:100F9000DC0112962D913C9113971496ED90FC90E4
:100FA0001597E21AF30A1E141F040CF046C08C01B8
:100FB0002F5F3F4FFC01338322830680F781E02DB2
:100FC000CF01029617969C938E9316977383628334
:100FD00012966D917C911397615071091616170640
:100FE00064F5CB0101976C011AF4BFEFCB1ADB0A51
:100FF000D594C794F80180859185660F771FEC0121
:10100000C60FD71F5601AA0CBB1CA80EB91E019013
:10101000F081E02DBE01C5010995992374F4D50135
:101020008D919C911197288139812D933C939983BF
:101030008883B6011C141D04A4F2C701DF91CF916F
:101040001F910F91FF90EF90DF90CF90BF90AF90E6
:101050000895CF93DF93DC011296CD91DC91139725
:101060001C161D06F4F4FC01A085B1858D919C91A0
:10107000DB018D939C9380859185A681B7819D012D
:1010800022503109378326832D913C91DC012D9329
:101090003C9382819381019793838283CF010E9445
:1010A0003A07CE01DF91CF910895CF92DF92EF9270
:1010B000FF920F931F93CF93DF9300D0CDB7DEB78E
:1010C0005A834983DC011296CD90DC9013971C144F
:1010D0001D0454F57B018C01FC0160857185019034
:1010E000F081E02DCE01019609951816190634F409
:1010F00089819A81D7018D939C931BC0D801189642
:10110000ED91FC91199780819181F7019183808302
:101110001896ED91FC91199789819A81918380832A
:10112000C8010E943A0705C089819A81DB018D932D
:101130009C93C6010F900F90DF91CF911F910F915B
:10114000FF90EF90DF90CF9008956EE171E080E125
:1011500091E00E94290880911E0190911F019093B7
:101160001B0180931A01A0911E01B0911F01CD9126
:10117000CDBFDD91DEBF0F901F902F903F904F901D
:101180005F906F907F908F909F90AF90BF90CF9027
:10119000DF90EF90FF900F911F912F913F914F9112
:1011A0005F916F917F918F919F91AF91BF91CF91FF
:1011B000DF91EF91FF91F7FD03C0FFBFFF9108950D
:1011C000FF77FFBFFF911895CF93809120019091F9
:1011D0002101892B11F50E945B00C82F40911A0153
:1011E00050911B0180918A0190918B01FA019587A2
:1011F00084876EE171E080E191E00E945508E09102
:101200001E01F0911F018685978501969787868735
:101210000E9450028C2F0E945F00CF910895EE0F24
:10122000FF1F0590F491E02D0994FB01DC01019072
:0C1230000D920020E1F70895F894FFCF24
:0E123C00FF088C0120004D616C6C6F63000098
:00000001FF
