S011000053796E7468526576422E737265638E
S11300002AC044C043C042C041C040C03FC0E1C256
S1130010D3CBFECCF4CD3AC039C038C037C036C0DB
S113002035C034C73AC73BC73DC7E9C7E8C7E7C7C8
S11300303DC742C7E4C742C743C744C7E0C7DFC799
S113004043C794CA90CAADCAE5CA8BCB8ACB02CB4C
S113005055CB6FCB81CB11241FBECFE5D2E0DEBFE1
S1130060CDBF10E0A0E6B0E0E2EDFDE102C00590F6
S11300700D92A637B107D9F721E0A6E7B0E001C099
S11300801D92A236B207E1F7FFD2A1CEB9CF8FB746
S1130090F894807808959FB7982B9FBF089521E026
S11300A030E001C0220F8A95EAF780917600282B70
S11300B020937600209300C08091760080958093F1
S11300C000C4089521E030E001C0220F8A95EAF7C8
S11300D0209580917600282320937600209300C0F9
S11300E0809176008095809300C40895CF93DF9328
S11300F0EC017B876A8759874887198218821B829B
S11301001A82C5DF2885398521303105C9F4E0918B
S11301109600F0919700309759F0FD83EC831F828D
S11301201E82D783C683D0939700C093960008C0DD
S1130130D0939700C09396001D821C821F821E825A
S1130140DF91CF91A8CFEF92FF920F931F93CF939C
S1130150DF938C017B019BDFC0917700D091780005
S1130160209741F02C813D813093780020937700D3
S113017092DF07C090DF8CE090E0E3D2EC01892BA2
S113018021F0A701B801CE01B1DFCE01DF91CF91FB
S11301901F910F91FF90EF900895EF92FF921F939C
S11301A0CF93DF93EC0173DF182F8CEFE82EFF243D
S11301B0FA94E881F981309769F084899589998363
S11301C08883158A148AF186E086BF0188E990E065
S11301D06FD8EFCF5CDF28853985232BD9F0409188
S11301E09600509197002C813D81C417D50721F4C6
S11301F03093970020939600EE81FF81309711F0A1
S113020035832483AC81BD81109721F01796FC932C
S1130210EE93169720917700309178003D832C83DC
S1130220D0937800C093770036DF812FDF91CF9190
S11302301F91FF90EF902FCF8F929F92AF92BF921A
S1130240CF92DF92EF92FF920F931F93CF93DF939E
S11302507C014B01EA015901CA0173D26C0117DF19
S1130260E114F10409F46CC0D7011F961C921E928C
S11302701E971596DC93CE9314971796BC92AE9264
S113028016971D961C921E921C971396DC92CE9282
S1130290129755961C921E92549757961C921E9232
S11302A05697FE013197EC0DFD1D8082DF011197F9
S11302B09C9211971C92119790E89C9311971C9211
S11302C011971C9211971C9211971C9211971C92D2
S11302D011971C9311970C9311971C9211971C92D0
S11302E011971C9211971C9211971C9211971C92B2
S11302F011971C9211971C9211971C9211971C92A2
S113030011971C9211971C9211971C9211971C9291
S113031011971C9211971C9211971C9211971C9281
S113032011971C9211971C9211971C9211971C9271
S113033011971C9211971C92B397D701ED93FC93DC
S1130340DF91CF911F910F91FF90EF90DF90CF90AD
S1130350BF90AF909F908F909ECEAF92BF92CF925E
S1130360DF92EF92FF920F931F93CF93DF937C0161
S11303706B015A01890188E190E0E3D1EC01950118
S1130380A601B70159DFCE01DF91CF911F910F91E3
S1130390FF90EF90DF90CF90BF90AF900895FF93C0
S11303A0FFB7F894FF93EF93DF93CF93BF93AF938B
S11303B09F938F937F936F935F934F933F932F9369
S11303C01F930F93FF92EF92DF92CF92BF92AF925F
S11303D09F928F927F926F925F924F923F922F9251
S11303E01F9211240F92A091A200B091A3000DB608
S11303F00D920EB60D928091A6009091A700909355
S1130400A3008093A200A091A600B091A700CD9173
S1130410CDBFDD91DEBF0F901F902F903F904F9086
S11304205F906F907F908F909F90AF90BF90CF9090
S1130430DF90EF90FF900F911F912F913F914F917B
S11304405F916F917F918F919F91AF91BF91CF9168
S1130450DF91EF91FF91F7FD03C0FFBFFF91089576
S1130460FF77FFBFFF9118958091A8009091A90094
S113047001979093A9008093A8008091A80090917F
S1130480A900892B09F05FC04091A2005091A300FC
S11304908091600190916101FA019587848766EAF1
S11304A070E088E990E08ED7E091A600F091A70073
S11304B08091A2009091A300E817F90709F443C0C2
S11304C0868597850196978786879EB78DB702960E
S11304D0A091A200B091A3008D939D93F093A300EB
S11304E0E093A200A091A600B091A700CD91CDBF4A
S11304F0DD91DEBF0F901F902F903F904F905F9043
S11305006F907F908F909F90AF90BF90CF90DF902F
S1130510EF90FF900F911F912F913F914F915F9119
S11305206F917F918F919F91AF91BF91CF91DF9107
S1130530EF91FF91F7FD03C0FFBFFF910895FF778F
S1130540FFBFFF91189508958091A8009091A9008C
S113055001969093A9008093A8000895CF93DF9308
S113056000D0CDB7DEB71A82198289819A810196AB
S11305709A838983FACF84EF90E0E6D2CDDA682FAC
S113058084EF90E069D4FACF60E070E080911801C4
S1130590909119015CD581E090E0D4D983E092DD9B
S11305A0F3CF60E070E080913201909133014FD538
S11305B08AE090E0C7D981E085DDF3CF13BE80E8FF
S11305C082BF8FEF81BF83E083BF89B7826089BF19
S11305D00895FF93FFB7F068FF93EF93DF93CF93F2
S11305E0BF93AF939F938F937F936F935F934F9337
S11305F03F932F931F930F93FF92EF92DF92CF922B
S1130600BF92AF929F928F927F926F925F924F921E
S11306103F922F921F9211240F9296DF80E882BF9F
S1130620A7D922DF0F901F902F903F904F905F909B
S11306306F907F908F909F90AF90BF90CF90DF90FE
S1130640EF90FF900F911F912F913F914F915F91E8
S11306506F917F918F919F91AF91BF91CF91DF91D6
S1130660EF91FF91FF77FFBFFF91189585B78068E1
S113067085BF87B3876087BB109200C08FEF8093DC
S113068000C48AD89BDF3CCB0F931F9300DDEEDFC1
S113069060E070E080E090E07CD1D2D400E010E033
S11306A02AE030E040E051E06BEB72E08AE191E057
S11306B0C3DD6AE171E088E990E0FAD521E030E039
S11306C040E051E06EEA72E080E091E0B5DD60E088
S11306D071E088E990E0ECD525E030E040E051E0BD
S11306E064EC72E08CED90E0A7DD6CED70E088E9DD
S11306F090E0DED525E030E040E051E061ED72E0CD
S113070084EC90E099DD64EC70E088E990E0D0D569
S11307102BD860E070E080E090E015DD9093190143
S11307208093180160E070E080E090E00CDD90932D
S1130730330180933201C8D880E090E01F910F917B
S11307400895EF92FF920F931F93CF93DF938C0141
S113075060E070E08EE491E07AD40230110510F488
S113076002E010E0E0907900F0907A00E70180E088
S113077090E0E0E0F0E0209719F1288139815A8176
S11307804B810217130779F4309719F0528343838E
S113079004C05093790040937A0060E070E08EE4E6
S11307A091E0B5D432C00217130730F4009719F062
S11307B02817390708F4C901FE01C52FD42FDBCF50
S11307C00097B1F19C01201B310B2430310528F432
S11307D08C0103C0E701E280F380E114F10441F1EC
S11307E0F7012081318182179307A1F708171907B0
S11307F099F482819381209751F09B838A8360E0EE
S113080070E08EE491E083D4E701229651C0909386
S11308107A0080937900F3CF801B910BE701C80F16
S1130820D91F099319930297F7019183808333C0E9
S113083080914C0190914D01892B41F4809162008B
S11308409091630090934D0180934C0180916000DE
S113085090916100009741F48DB79EB72091640098
S113086030916500821B930BC0914C01D0914D01D6
S11308708C1B9D0B80179107A0F098012E5F3F4FB2
S11308808217930770F02C0F3D1F30934D01209376
S11308904C010993199360E070E08EE491E037D441
S11308A007C060E070E08EE491E031D4C0E0D0E0B5
S11308B0CE01DF91CF911F910F91FF90EF9008959A
S11308C0CF93DF93009709F461C0EC0160E070E01E
S11308D08EE491E0BCD3FE01329713821282A09180
S11308E07900B0917A00109749F180E090E0AE175A
S11308F0BF0750F412962D913C911397CD01211509
S1130900310509F1D901F3CFB383A2834081518129
S1130910C40FD51FAC17BD0779F42D913C911197E5
S1130920240F351F2E5F3F4F3183208312962D9164
S11309303C91139733832283009729F4F0937A0030
S1130940E09379001CC0DC011396FC93EE9312979C
S11309504D915D91A40FB51FEA17FB0781F4208127
S11309603181240F351F2E5F3F4FDC0111963C93DC
S11309702E932281338113963C932E93129760E039
S113098070E08EE491E0DF91CF91C1C3DF91CF910C
S113099008950F931F93CF93DF938C01EB0140E0F5
S11309A050E061E070E08EE491E0A0DB01151105F8
S11309B021F01093630000936200209721F0D093FC
S11309C06100C0936000DF91CF911F910F91089552
S11309D00F931F93CF93DF938C010696880F991F73
S11309E0B0DEEC011B821A821D821C821F821E82D1
S11309F00C969B878A871987088760E070E080E0FF
S1130A0090E0A1DB99838883CE01DF91CF911F9180
S1130A100F910895FF920F931F93CF93DF93009745
S1130A20E9F18B01EC018091A8009091A900892B38
S1130A3019F42DDBF82E01C0F12C2E813F8168853D
S1130A40798526173707ECF4EA85FB858A819B8133
S1130A50AC014F5F5F4F5B834A83880F991FE80F98
S1130A60F91F118300836417750711F41B821A821E
S1130A702F5F3F4F3F832E8360E070E08881998130
S1130A8046D38091A8009091A900892B39F48F2D29
S1130A90DF91CF911F910F91FF90FDCADF91CF910C
S1130AA01F910F91FF9008950F931F93CF93DF939E
S1130AB0009729F1EC0160E070E088819981C7D248
S1130AC0E6DAEA85FB852C813D81A9014F5F5F4F02
S1130AD05D834C83220F331FE20FF31F00811181CA
S1130AE0288539854217530711F41D821C822E81F3
S1130AF03F81215031093F832E83CDDA02C000E0CB
S1130B0010E0C801DF91CF911F910F910895CF9309
S1130B10DF93EC010D9615DE009799F020917B0090
S1130B2030917C002F5F3F4F30937C0020937B00FB
S1130B30FC01D583C4831186108613821282138626
S1130B401286DF91CF910895FC01128211821582E1
S1130B5017821682108213821482138612860895D5
S1130B60CF93DF93EC011F821E8280E890E0E9DDE1
S1130B709B878A87DF91CF910895FC012681378175
S1130B802038310558F482859385A9014F5F5F4F62
S1130B9057834683FC01E20FF31F608308950F938C
S1130BA01F93CF93DF931F92CDB7DEB78C01DC0187
S1130BB01A96ED91FC911B9780818D3709F095C0B1
S1130BC08181843009F457C088F4813009F44FC01E
S1130BD0833009F08AC080917D00898343E050E02E
S1130BE061E070E0CE0101963AD47FC0883009F408
S1130BF049C0893009F461C0853009F076C088E0C5
S1130C0090E085DFFC0183E090E091838083D8014C
S1130C101A966D917C911B97DB0112968C91129719
S1130C2090E09587848713968C91139790E097872B
S1130C30868714968C91149790E0918B808B1596EF
S1130C402C91B0E82B9F90011124822B932B918B34
S1130C50808BDB0116968C91838BD8011A968D912B
S1130C609C911B97DC0117968C91828B24C0828106
S1130C7080937D003AC084E090E049DFFC0182E08B
S1130C8090E006C084E090E042DFFC0187E090E061
S1130C9091838083D8011A962D913C911B97D90199
S1130CA012968C91129790E09587848713968C9175
S1130CB090E097878687BF0113C084E090E027DF28
S1130CC028E030E0FC0131832083D8011A96ED91AD
S1130CD0FC911B97228130E0FC0135872487BC01FD
S1130CE080915C0190915D0195DED8011A968D91F9
S1130CF09C911B97E5DDF801178216820F90DF9116
S1130D00CF911F910F91089580E090E000DF26E0DD
S1130D1030E0FC0131832083BC0180915C0190911F
S1130D205D0178DE83E0BBD960E070E0809118015A
S1130D3090911901ECC180E090E0E9DEFC011182A0
S1130D401082BC0180915C0190915D0163DE82E0C0
S1130D50A6C980E090E0DBDE29E030E0FC013183CD
S1130D602083BC0180915C0190915D0153CE80E0B1
S1130D7090E0CDDE21E030E0FC0131832083BC0132
S1130D8080915C0190915D0145DE82E09BC981E028
S1130D9086D960E070E08091320190913301B7C14F
S1130DA0CF9390917D00981313C0C42F862F60E0D9
S1130DB070E020E2829FC00111246ED561E070E0F2
S1130DC020E2C29FC001112467D580E0CF917AC987
S1130DD0CF910895CF9390917D00981318C0C42F9C
S1130DE0862F60E070E020E2829FC001112454D578
S1130DF0C11103C080E0CF9165C961E070E020E2D9
S1130E00C29FC001112448D580E0CF9148C9CF9139
S1130E10089590917D00981307C062E070E020E28D
S1130E20429FC001112438C50895962F20917D005A
S1130E30281307C062E070E020E2929FC0011124F1
S1130E402BC508959B0190917D00981304C063E025
S1130E5070E0C90121C50895CF93DF93EC01462FBB
S1130E6067FF34C0603F38F4862F807F8983E62F84
S1130E70EF70EA83B0C050E0FA01E05FF109E031BD
S1130E80F10508F0BCC0EF5EFF4F099483E08D8349
S1130E9080EF8983CE0164DEB2C081EF04C082EFAB
S1130EA0898399C083EF898384E096C01D8287EF8C
S1130EB08983CE0174DEA3C027DFA1C03CDF9FC0BD
S1130EC048DF9DC054DF9BC062DF99C08981803DAB
S1130ED009F44DC078F4803AD9F128F48038F1F05F
S1130EE0803929F18CC0803B09F444C0803C09F46A
S1130EF072C085C0813F09F481C048F4803E09F482
S1130F0048C0803F09F07BC0CE0137DE78C0823F05
S1130F1009F458C0833F09F471C071C08D818130D8
S1130F2021F1823009F06BC06B816C830EC08D811E
S1130F308130D9F0823009F062C06B816C83442324
S1130F4019F08A8147DF47C040E08A8129DF43C026
S1130F508D81813051F0823009F051C081E08D8360
S1130F606B816C838A8155DF4AC04B8332C08A818E
S1130F705CDF45C08D81813041F0823009F03FC093
S1130F8081E08D838B818C833AC082E08D836B8377
S1130F9036C08D818130C9F0823089F580E8689F40
S1130FA0F001112468857985E62BF72BBF0176952E
S1130FB06795769567957987688781E08D838A81BF
S1130FC041DF1DC08D81813049F4E42FF0E0F987C1
S1130FD0E88782E001C081E08D8311C0823079F41A
S1130FE080E8689FF001112448855985E42BF52B8E
S1130FF0EE0FFF1FEE0FFF1FF987E8871D8280E0C9
S113100090E0DF91CF910895CF93DF93DC01ED91D0
S1131010FC91EB01A881B9818681978116962D9167
S11310203C911797821B930B41F41C968D919C91D4
S11310301D9724853585821B930BDF91CF910895ED
S113104044E058E060E270E088E990E01CC1EF926F
S1131050FF921F93CF93DF93EC017B0118D8182FD5
S11310602A853B85C90101979B878A871216130637
S11310702CF4812F10D880E090E043C088819981BE
S1131080E091A200F091A300892B19F4F983E8837D
S113109006C0AA81BB815596FC93EE935497FB83BB
S11310A0EA831186108688859985892B11F0F18A47
S11310B0E08A80916001909161019587848766EA56
S11310C070E088E990E053D1892B59F0E091A600B3
S11310D0F091A700868597850196978786875FD9C3
S11310E008C0E091A200F091A3008FEF9FEF9187D9
S11310F08087812FD0D7E091A200F091A300808552
S11311009185DF91CF911F91FF90EF900895EF9219
S1131110FF921F93CF93DF93EC017B018091A80092
S11311209091A900892B19F4B2D7182F01C010E0AF
S11311308A859B858E3F2FE7920764F59C012F5F7C
S11311403F4F3B872A8797FF1CC0E881F98130977E
S1131150C1F08489958999838883158A148AF186D4
S1131160E086BF0188E990E0A3D08091A800909127
S1131170A900892B11F4812F8ED701D6C0E0D0E0CD
S113118013C0C091A800D091A9002097B9F7812F6E
S113119082D70AC08091A8009091A900892B11F4EC
S11311A0812F79D7CEEFDFEFCE01DF91CF911F9161
S11311B0FF90EF9008956F927F928F929F92AF92DB
S11311C0BF92CF92DF92EF92FF920F931F93CF9330
S11311D0DF936C01DC0118966D907C901997EE24D6
S11311E0E394F12C00E010E0D60112968D919C91CD
S11311F01397E816F906C4F5000F111F060D171D05
S1131200E701CC0FDD1FC60DD71D5701BFEFAB1A89
S1131210BB0AA816B90674F44E01E2E08E0E911CC6
S1131220D601ED91FC91B401CE01099597FF02C05E
S1131230E4017501D601ED91FC91BE01C801099547
S113124097FF12C0F801808191812881398131830F
S1131250208399838883C701880F991F87019C0184
S11312602F5F3F4F7901C0CFDF91CF911F910F9135
S1131270FF90EF90DF90CF90BF90AF909F908F90B2
S11312807F906F900895CF93DF93EC015983488347
S11312901B821A827D836C83CB01880F991F51DADC
S11312A09987888702979F838E83DF91CF910895D2
S11312B0AF92BF92CF92DF92EF92FF920F931F9360
S11312C0CF93DF93DC0112962D913C9113971496E2
S11312D0CD90DC901597C21AD30A1C141D04DCF5BA
S11312E08C01C9010196FD01938382830680F781F5
S11312F0E02DCF01029617969C938E9316977383D5
S11313006283121613063CF55901B1E0AB1AB10819
S1131310B594A794F80180859185220F331FEC01C1
S1131320C20FD31F7501EE0CFF1CE80EF91E0190CD
S1131330F081E02DBE01C701099597FF0CC0D701CC
S11313408D919C911197288139812D933C93998398
S113135088839501D6CFC601DF91CF911F910F915C
S1131360FF90EF90DF90CF90BF90AF900895CF9310
S1131370DF93DC011296CD91DC9113971C161D06A8
S1131380ECF4FC0180859185DC018D919C91DB015D
S11313908D939C9380859185A681B7819D01225070
S11313A03109378326832D913C91DC012D933C93A5
S11313B0CE01019793838283CF01FDDECE01DF91BD
S11313C0CF910895CF92DF92EF92FF920F931F93E4
S11313D0CF93DF9300D0CDB7DEB75A834983DC01C6
S11313E01296ED90FC9013971E141F043CF56B01AC
S11313F08C01FC01608571850190F081E02DCE01A6
S11314000196099529813A811816190624F4D60102
S11314102D933C9318C0D8011896ED91FC9119971F
S113142080819181F601918380831896ED91FC91DE
S1131430199731832083C801BEDE05C089819A8152
S1131440DB018D939C93C7010F900F90DF91CF9197
S11314501F910F91FF90EF90DF90CF900895EF923E
S1131460FF920F931F93CF93DF938C017B01EA01CB
S113147080EF90E089D38DE790E086D3CE0184D3CA
S1131480E801CE01801B910B8E159F0524F48991F0
S113149090E07AD3F6CF87EF90E0DF91CF911F9160
S11314A00F91FF90EF9070C30F931F93CF93DF932F
S11314B0082F162F80E290E044D9EC0108831983A9
S11314C04AE050E062E070E0CADFCE01DF91CF91E4
S11314D01F910F91F5C980E091E033D98C0188E028
S11314E090E02FD96C01EC01E4E09E2EF8E0EF2EA1
S11314F0F12CA8E18A2EB2E17B2E892DE3D586E07A
S113150090E01FD95C0189939993DC011196FC92B8
S1131510EE9213961C921E92129788E290E011D9D3
S1131520F50184839583FC01889683828482728288
S11315301182108235968E179F07B9F79394F8E0BD
S11315409F12DBCFE12CF12C80915C0190915D0125
S1131550ABDAEC01E881F981EA30F10508F001C168
S1131560EF5DFF4F0994E12CF12CFBC0760174E090
S1131570B72E8B2DA7D5D701ED91FD917D01138257
S113158012820480F581E02DCF0188962381248383
S113159035968E179F07D1F7B394B8E0BB12E9CF05
S11315A0DDC08C859D85FC01EE0FFF1FEC0DFD1D3C
S11315B00190F081E02D4E855F8565E0649F900188
S11315C0659F300D11240480F581E02DE20FF31F97
S11315D0D8018C938E8511968C93119780818F7787
S11315E012968C93129780819181880F892F881F7E
S11315F0990B91958F7713968C93139783811496F7
S11316008C931497828115968C9344E050E066E0A5
S113161070E09FC0EC85FD85EE0FFF1FEC0DFD1DF6
S11316200190F081E02D2E853F85B5E0B29FC00189
S1131630B39F900D11240480F581E02DE80FF91F6C
S113164088899989918380838B89838384838A8918
S1131650828387C0E114F10409F483C0160134E0E5
S1131660A32EB12C2501E4E04E1A5108D1018D902E
S11316709D901D01F401848195810097B1F16280F0
S11316807380F5E0F69D7001F79DF00C1124E80ECF
S1131690F91ED70114969C91149713968C91139765
S11316A0981309C0B5018D919C91F6D08A2DF7D479
S11316B0B301C201F9DEF70184818150848388304B
S11316C019F48A2DFFD411C081110FC08381848342
S11316D0BFEF6B1A7B0AF40173826282808191816D
S11316E06816790611F413821282FFEFAF1ABF0A4B
S11316F028E0A216B10409F0B5CF30C0EC85FD8511
S1131700EE0FFF1FEC0DFD1DA080B1808E859F851F
S1131710D5018D939C9325E0FC012E9FC0012F9F42
S1131720900D11240ED8D50115969C938E93149781
S113173018C0EC85FD85EE0FFF1FEC0DFD1D01901B
S1131740F081E02D8081F801808349E050E061E080
S113175070E0C80184DE05C082E0A1D4EE24E394E5
S1131760F12CCE01ADD8F0CE80E490E031D9909345
S11317705D0180935C0120E030E042E050E060E0F5
S113178072E08BE69AE0E9D590935B0180935A016D
S1131790BC0188E990E08CCD87B3806B87BB8CE576
S11317A08DB908958EB1082E000C990B892F881FCE
S11317B08827881F90E00895FF93FFB7F068FF9390
S11317C0EF93DF93CF93BF93AF939F938F937F93C5
S11317D06F935F934F933F932F931F930F93FF92B6
S11317E0EF92DF92CF92BF92AF929F928F927F92AD
S11317F06F925F924F923F922F921F9211240F92F9
S1131800E0915E01F0915F0186819781892B01F15E
S11318102081318184819581AC014F5F5F4F558375
S11318204483F901E80FF91F80818FB9E0915E01CB
S1131830F0915F01248135818085918528173907CE
S113184011F4158214828681978101979783868388
S11318500F901F902F903F904F905F906F907F90CC
S11318608F909F90AF90BF90CF90DF90EF90FF90BC
S11318700F911F912F913F914F915F916F917F91A4
S11318808F919F91AF91BF91CF91DF91EF91FF9194
S1131890FF77FFBFFF9118951F93CF93DF93182F06
S11318A0EB019FB97FDF892BE9F31FB97BDF892B1C
S11318B0E9F3CC0FDD1FCA59DF4FE881F9811082AB
S11318C0DF91CF911F91089566EA70E088E990E076
S11318D04EDD8091A6009091A7009093A300809381
S11318E0A200A091A600B091A700CD91CDBFDD913B
S11318F0DEBF0F901F902F903F904F905F906F909E
S11319007F908F909F90AF90BF90CF90DF90EF909B
S1131910FF900F911F912F913F914F915F916F9184
S11319207F918F919F91AF91BF91CF91DF91EF9173
S1131930FF91F7FD03C0FFBFFF910895FF77FFBF3D
S1131940FF9118950F931F93CF93DF938C0161E060
S113195070E080E090E0F7D3EC01B80178DB8C0113
S1131960CE011BD4C801DF91CF911F910F9108952F
S1131970EF92FF920F931F93CF93DF9380916001B7
S113198090916101019690936101809360010091AF
S11319909600109197008DEFE82EFF24FA9401151C
S11319A0110579F1F801C081D181209731F188893D
S11319B0998918161906DCF40197998B888B892B61
S11319C0B1F4D8011A968D919C911B9701961B96A0
S11319D09C938E931A97F986E8868C899D899183C6
S11319E080831D8A1C8ABE0188E990E061DCFE01C7
S11319F074960C88DD89C02DD8CFF8010481158137
S1131A00CECFDF91CF911F910F91FF90EF9008956A
S1131A10FF93FFB7F068FF93EF93DF93CF93BF93E8
S1131A20AF939F938F937F936F935F934F933F9362
S1131A302F931F930F93FF92EF92DF92CF92BF9257
S1131A40AF929F928F927F926F925F924F923F924A
S1131A502F921F9211240F9277D5209194003091E8
S1131A60950080918E0090918F00281739077CF59E
S1131A7060E070E080918A0090918B0048DB609177
S1131A808C0070918D0080919000909191009C0148
S1131A902F5F3F4F30939100209390004CB1FB0196
S1131AA0E80FF91F4083809194009091950001966E
S1131AB0909395008093940080918E0090918F0074
S1131AC02817390721F41092910010929000CCD479
S1131AD00F901F902F903F904F905F906F907F904A
S1131AE08F909F90AF90BF90CF90DF90EF90FF903A
S1131AF00F911F912F913F914F915F916F917F9122
S1131B008F919F91AF91BF91CF91DF91EF91FF9111
S1131B10FF77FFBFFF911895CF93DF9360E070E0EC
S1131B2080918A0090918B0092DAB1D260918C00FE
S1131B3070918D002091920030919300A9014F5F24
S1131B405F4F5093930040939200FB01E20FF31F09
S1131B50C081D0E02091940030919500215031094A
S1131B60309395002093940020918E0030918F0043
S1131B704217530721F410929300109292008BD2D3
S1131B80CE01DF91CF910895CF93C82F60E070E02C
S1131B9080917E0090917F005ADA79D26091800022
S1131BA0709181002091840030918500A9014F5FDC
S1131BB05F4F5093850040938400FB01E20FF31FB5
S1131BC0C08320918200309183004217530721F48F
S1131BD01092850010928400209188003091890031
S1131BE02F5F3F4F3093890020938800559ACF91FF
S1131BF052C2882311F0559A089555980895FF9379
S1131C00FFB7F068FF93EF93DF93CF93BF93AF9346
S1131C109F938F937F936F935F934F933F932F93F0
S1131C201F930F93FF92EF92DF92CF92BF92AF92E6
S1131C309F928F927F926F925F924F923F922F92D8
S1131C401F9211240F9280D460E070E080917E0096
S1131C5090917F005CDA2091800030918100809126
S1131C60860090918700AC014F5F5F4F50938700CF
S1131C7040938600F901E80FF91F80818CB98091A7
S1131C80880090918900019790938900809388003F
S1131C90892B11F480E0ADDF20918600309187001C
S1131CA080918200909183002817390721F41092C3
S1131CB0870010928600D8D30F901F902F903F90EA
S1131CC04F905F906F907F908F909F90AF90BF9058
S1131CD0CF90DF90EF90FF900F911F912F913F9144
S1131CE04F915F916F917F918F919F91AF91BF9130
S1131CF0CF91DF91EF91FF91FF77FFBFFF9118958F
S1131D000F931F93CF93DF9380E890E01AD5CEE72B
S1131D10D0E09B838A831F821E82198618861B86C5
S1131D201A8600E810E01D830C8360E070E080E810
S1131D3090E009D29983888380E890E002D5CAE8CC
S1131D40D0E09B838A831F821E82198618861B8695
S1131D501A8660E070E080E090E0F5D19983888392
S1131D601D830C8310BC8FE089B91BB888E98AB93C
S1131D7086E880BDDF91CF911F910F910895CF9395
S1131D808091A8009091A900892BF9F480D1C82FE3
S1131D904091A2005091A300809160019091610153
S1131DA0FA019587848766EA70E088E990E00ADBA7
S1131DB0E091A600F091A700868597850196978704
S1131DC08687EDD28C2FCF9166C1CF910895F89478
S1051DD0FFCF3F
S1131DD2FF7F6002200000AC00A400A800A000B0B5
S1091DE200B400B800BCCF
S9030000FC
