:1000000010C02AC029C028C027C026C025C0D0C221
:1000100023C022C021C020C01FC01EC01DC01CC0E4
:100020001BC011241FBECFE5D2E0DEBFCDBF10E064
:10003000A0E6B0E0E8EEF6E002C005900D92AC3626
:10004000B107D9F710E0ACE6B0E001C01D92AF38BF
:10005000B107E1F702D046C3D3CF80E090E0089526
:10006000FC0182810895CF92DF92EF92FF920F936D
:100070001F93CF93DF9367017801E0E6F0E0F09300
:100080007900E09378009093770080937600109247
:100090007200109273001092740060937500509378
:1000A000710040937000CCE6D0E0188219821A8269
:1000B0002B83E0916400F09165001082E09178005C
:1000C000F09179000280F381E02D1082E0917800B8
:1000D000F09179000680F781E02D86E88083E09139
:1000E0007800F09179000085118560E271EA87E07F
:1000F00090E0A7019601B9D221503040F801208349
:10010000E0917800F09179000480F581E02D88E994
:100110008083CE01DF91CF911F910F91FF90EF90DF
:10012000DF90CF900895FF93FFB7F068FF93EF93B0
:10013000DF93CF93BF93AF939F938F937F936F93EF
:100140005F934F933F932F931F930F93FF92EF92E1
:10015000DF92CF92BF92AF929F928F927F926F92D7
:100160005F924F923F922F921F9211240F92809193
:10017000850090918600019690938600809385007B
:100180001BC080916C000190F081E02D9081E09186
:100190007000F0917100E80FF11D90838F5F8093E4
:1001A0006C0090916F00891711F410926C0080918F
:1001B0006E008F5F80936E00E0917800F09179007F
:1001C000A281B3818C9187FDDCCF0F901F902F907F
:1001D0003F904F905F906F907F908F909F90AF90E7
:1001E000BF90CF90DF90EF90FF900F911F912F91D4
:1001F0003F914F915F916F917F918F919F91AF91BF
:10020000BF91CF91DF91EF91FF91FFBFFF911895C3
:10021000FF93FFB7F068FF93EF93DF93CF93BF9304
:10022000AF939F938F937F936F935F934F933F937E
:100230002F931F930F93FF92EF92DF92CF92BF9273
:10024000AF929F928F927F926F925F924F923F9266
:100250002F921F9211240F92809185009091860019
:10026000019690938600809385001EC08091740053
:100270008823E1F0A081B18180917300E091760044
:10028000F0917700E80FF11D90819C938F5F809330
:10029000730090917500891711F41092730080918A
:1002A000740081508093740081E007C00480F58160
:1002B000E02D80818F7D808380E0E0917800F09157
:1002C0007900A281B3819C9195FF02C0882371F6C9
:1002D0000F901F902F903F904F905F906F907F9066
:1002E0008F909F90AF90BF90CF90DF90EF90FF9056
:1002F0000F911F912F913F914F915F916F917F913E
:100300008F919F91AF91BF91CF91DF91EF91FF912D
:10031000FFBFFF9118950F931F93DF93CF930F9219
:10032000CDB7DEB78C016983ACD0D80118962C917B
:10033000189719969C9119976981291750F5169667
:100340009C9116971A96ED91FC911B97E90FF11D60
:1003500060839F5F16969C93169719962C91199718
:10036000921719F416961C921697F8019085992306
:1003700049F40484F585E02D0480F581E02D908119
:1003800090629083D80118969C9118979F5F189659
:100390009C937BD00F90CF91DF911F910F91089587
:1003A0001F93CF93DF93EC018A818823D9F069D022
:1003B0009A81992311F41FEF0FC09981EC81FD817F
:1003C000E90FF11D10819F5F99832B81921709F42A
:1003D00019829A8191509A8358D0812FDF91CF91C1
:1003E0001F910895FFCF009749F1809187008823DE
:1003F000C1F483E08093870080918800882369F4AA
:1004000082E08093880080918900882311F48FE333
:1004100001C081508093890007C08150809388007B
:1004200003C081508093870080918900880F880FD6
:10043000909187009370892B85BB089515BA089514
:100440008FE38093890083E08093870082E080932C
:10045000880015BA8FEF85BB08958FE380938900DC
:1004600083E08093870082E08093880015BAD89A51
:100470008FEF85BB0895D8980895D898D99AD998C0
:1004800008958FB7F894807808959FB7982B9FBFF1
:10049000089587FF23C0803F40F4982F907F90936A
:1004A0007D008F7080937E007BC0803F21F0873F6E
:1004B00009F079C00AC093E090937A0010927C0012
:1004C00010927B0080937D006EC010927A00809322
:1004D0007D0010927C0010927B0065C090917D00A1
:1004E000903AB1F1913A30F4903861F0903909F0D6
:1004F0005AC010C0903D61F1903E89F1903C09F0E6
:1005000052C04EC090917A00913061F0923009F063
:100510004AC00FC090917A00913021F0923009F0DA
:1005200042C005C080937F001092800023C08823C2
:10053000B9F190918A0080917E00981789F5809199
:100540007F0090918000909382008093810028C06A
:1005500080917A00813071F0823029F521C090912C
:100560007A00913019F09230F1F406C08093830044
:100570001092840082E015C090E09695982F88270D
:10058000979587952091830030918400822B932B3F
:10059000880F991F880F991F909384008093830080
:1005A00081E080937A0080E090E0089508950895B6
:1005B000FF93FFB7F068FF93EF93DF93CF93BF9361
:1005C000AF939F938F937F936F935F934F933F93DB
:1005D0002F931F930F93FF92EF92DF92CF92BF92D0
:1005E000AF929F928F927F926F925F924F923F92C3
:1005F0002F921F9211240F9280918D0090918E0066
:10060000009729F0019790938E0080938D00809140
:100610008B0090918C00009729F0019790938C00AB
:1006200080938B000F901F902F903F904F905F9082
:100630006F907F908F909F90AF90BF90CF90DF9002
:10064000EF90FF900F911F912F913F914F915F91EC
:100650006F917F918F919F91AF91BF91CF91DF91DA
:10066000EF91FF91FFBFFF91189597FB092E05268B
:100670000ED057FD04D014D00AD0001C38F4509589
:100680004095309521953F4F4F4F5F4F0895F6F7B6
:1006900090958095709561957F4F8F4F9F4F0895EE
:1006A000A1E21A2EAA1BBB1BFD010DC0AA1FBB1F76
:1006B000EE1FFF1FA217B307E407F50720F0A21BE8
:1006C000B30BE40BF50B661F771F881F991F1A9455
:1006D00069F760957095809590959B01AC01BD017F
:0806E000CF010895F894FFCF4B
:0C06E8002C002B002A00400029004000DC
:00000001FF
