:0200000024C01A
:02000E0099C196
:040012008AC0D8C008
:14001A0072037203720372037203720372037203290272038A
:14002E003A0272034B0272037203590200A000A400A800ACE3
:1400420000B000B400B800BCCFE5D2E0CDBFDEBFC051D04022
:140056000AEA08830024E0E6F0E010E0E33BF10711F00192C3
:14006A00FBCF0083EAE4F0E0A0E6B0E010E0EA34F10721F06A
:14007E00C89531960D92F9CF9ED1FFCF66D38AB188618AB906
:1400920009B9222433243092AB002092AA003092AD00209211
:1400A600AC003092AF002092AE0080E290E09093B100809310
:1400BA00B00030928300209282003092850020928400909369
:1400CE008900809388003092870020928600442755278AE820
:1400E20090E0E42FF52FE80FF91F8FE6808382E690E0E42FF1
:1400F600F52FE80FF91F89E680834F5F5F4F4032E0E05E075E
:14010A0054F328D30895F894089578940895579A08955798B3
:14011E000895559A0895559808952A923A924A925A920A932D
:140132008A939A93EA93FA932FB62A920CB12090880030900F
:14014600890040908600509087004214530464F52090820027
:14015A0030908300822D932D0196909383008093820082E6A5
:14016E0090E0E22DF32DE80FF91F00832090880030908900CB
:1401820040908200509083004214530431F422243324309283
:1401960083002092820080918600909187000196909387001E
:1401AA008093860029902FBEF991E991999189910991599037
:1401BE004990399029901895F0D2C7D22090AC003090AD0001
:1401D200822D932D01969093AD008093AC008AE890E0E22D93
:1401E600F32DE80FF91F40818091AE009091AF0001979093CB
:1401FA00AF008093AE002090AE003090AF00222019F4332012
:14020E0009F489DF2090B0003090B1004090AC005090AD009D
:140222004214530431F4222433243092AD002092AC004CB987
:1402360093D2CED218958DD22090860030908700222011F4DF
:14024A003320C1F360DF2090840030908500822D932D0196DB
:14025E00909385008093840082E690E0E22DF32DE80FF91F37
:14027200408155272090880030908900409084005090850001
:140286004214530431F4222433243092850020928400809167
:14029A008600909187000197909387008093860034DF042F01
:1402AE00152F56D2089551D2402F512F2090B0003090B10050
:1402C2004090AE005090AF0042145304A9F31FDF2090AA007A
:1402D6003090AB00822D932D01969093AB008093AA008AE8A6
:1402EA0090E0E22DF32DE80FF91F40832090B0003090B100BE
:1402FE004090AA005090AB004214530431F4222433243092B6
:14031200AB002092AA002090AE003090AF00222019F4332061
:1403260009F4FBDE8091AE009091AF0001969093AF008093E2
:14033A00AE00EBDE0FD208952A928A932FB62A9280EE82BF91
:14034E00809161008150282E20926100882389F482E02090B5
:14036200B20028262092B2002094209200C42090B2002092E5
:1403760000C0209060002092610029902FBE8991299018956A
:14038A0089B7826089BF089589B78D7F89BF089585E083BF80
:14039E0080EE82BF8FE18093610080936000089501E006C001
:1403B20021E001C023952223E9F703950023C1F708952E97C3
:1403C60093D1E8DF0FE010E05DDEA3DEDBDF22242092B200F9
:1403DA00209200C02094209200C497DE7EC129DF0887002EFA
:1403EE0007FF71C0802D003F88F49927807F90708987888580
:1404020099278F7090708B878985803909F069C10024039470
:140416000A8665C1A884BB248A2D9B2D803FE0E09E070CF46E
:14042A005CC18FEF8A159B050CF457C18AE190E00A2D1B2D72
:14043E00005F1040000F111F080F191FA0D1E02FF12F099430
:140452005EDE80E890E02090B2003324282639262092B200B8
:14046600209200C02094209200C451DE38C14DDE8091B200D0
:14047A0080648093B2008F7D8093B200282E209200C0209478
:14048E00209200C440DE27C13CDE8091B2008F7B8093B20032
:1404A200282E209200C02094209200C432DE19C12EDE80914D
:1404B600B2008F7B8093B20080628093B200282E209200C042
:1404CA002094209200C421DE08C169857727603BE0E07E07C0
:1404DE0009F401C180EB90E086179707ACF06039E0E07E07BB
:1404F20009F451C080E990E0861797072CF06038E0E07E07DB
:14050600E9F0EDC0603AE0E07E0709F491C0E7C0603DE0E02A
:14051A007E0709F4A1C080ED90E08617970734F0603CE0E052
:14052E007E0709F4D5C0D7C0603EE0E07E0709F4A7C0D1C033
:140542004A8555274130E0E05E0729F04230E0E05E0759F0CB
:14055600C6C025E030E00885112751D11D870C8782E08A8765
:14056A00BCC00C841D840C141D0469F4CCDD8091B2008E7FB9
:14057E008093B200282E209200C02094209200C4C2DD0024EF
:1405920003940A86A6C02A84332439822882822D932D81303E
:1405A600E0E09E0729F08230E0E09E0759F097C025E030E0F7
:1405BA000885112722D11D870C8782E08A878DC0A2DD2224B9
:1405CE0008842014D8F4CC84DD84222733270C2D1D2D95D051
:1405E2002090B20020FE0AC0822D8E7F8093B200282E209232
:1405F60000C02094209200C48091B20081608093B2000AC0D4
:14060A000C841D84C014D10429F48091B2008E7F8093B20050
:14061E002090B200209200C02094209200C473DD00240394BF
:140632000A8657C02A8433243B822A82822D932D8130E0E0BF
:140646009E0729F08230E0E09E0721F048C082E08A8745C03A
:14065A00002403940A8641C02A8433243D822C82822D932D5F
:14066E008130E0E09E0729F08230E0E09E0721F032C082E0CD
:140682008A872FC0002403940A862BC02A8433243F822E82B8
:14069600822D932D8130E0E09E0729F08230E0E09E0731F07A
:1406AA001CC0E884FF2482E08A8717C027E030E008851127AB
:1406BE00A2D0E02AF12AF594E794F594E79421E030E00E2D3D
:1406D2001F2D1BD0002403940A8603C0002403940A8681CE35
:1406E600002711272E96089587B3806B87BB84E58DB985B7EE
:1406FA00806885BF0895002711272EB127FD01E008953CD037
:14070E00422F532F602F712F22977983688329802FB8EFDFB7
:1407220000300107E1F328802FB8E9DF00300107E1F38AE3E7
:1407360090E0042F152F000F111F080F191F23D0E02FF12F18
:14074A0022242082229601D00895E2E004C05A934A930895A0
:14075E00E1E049915991E0FD089569917991E1FD0895A990D0
:14077200B990E2FD0895C990D990E3FD0895E990F9900895D0
:140786007A936A93E6CFEA93FA930A92E02FF12FC895002D41
:14079A003196C895102D0990F991E9910895FA93EA93BA9359
:1407AE00AA939A938A933A932A931A930A939A928A927A9288
:1407C2006A925A924A923A922A921A920A920FB60A92089591
:1407D60009900FBE0990199029903990499059906990799021
:1407EA0089909990099119912991399189919991A991B99129
:1407FE00E991F9910895222321F0000F111F2A95FACF08958C
:00000001FF
