S01B00003530302D313039335F4D6964694D65726765722E7372656336
S11300004EC000006AC0000068C0000066C0000066
S113001064C0000062C0000060C000005EC0000058
S11300205CC000005AC0000058C0000056C0000068
S113003054C0000052C0000050C000004EC0000078
S11300404CC000004AC0000023C6000046C00000A7
S11300500C94A70E0C94FF0E40C000003EC000009C
S11300603CC000003AC0000038C0000036C00000A8
S11300700C94570F0C94AF0F30C000002EC000003A
S11300802CC000002AC0000028C000007B04940497
S1130090B1047B049404E904B804F0040C051124AD
S11300A01FBECFEFD0E4DEBFCDBF11E0A0E0B1E0D2
S11300B0E4ECF2E200E00BBF02C007900D92AC3911
S11300C0B107D9F722E0ACE9B1E001C01D92A23A30
S11300D0B207E1F72BD60C94601192CF8FB7F89446
S11300E0807808959FB7982B9FBF0895FC011182D3
S11300F01082738762875187408715821482178222
S11301001682138212820895FC0122813381211503
S11301103105D1F06285738584819581AC014F5F8F
S11301205F4F55834483DB01A80FB91F8C9190E086
S1130130608571854617570711F415821482215082
S113014031093383228308958FEF9FEF0895FC01D3
S1130150228133818085918528173907D8F4228537
S1130160338586819781AC014F5F5F4F5783468308
S1130170D901A80FB91F6C93268137818085918599
S11301802817390711F41782168282819381019608
S11301909383828380E090E0089510929D011092F1
S11301A09C014CE251E060E070E081E090E090D18D
S11301B09093FD018093FC010895CF93DF93EC01AC
S11301C060E070E08091FC019091FD010E94D609ED
S11301D08091AA019091AB019B878A87D093AB0150
S11301E0C093AA0160E070E08091FC019091FD0150
S11301F00E94410ADF91CF9108950F931F93CF93EB
S1130200DF938C01EB016ADF20919C0130919D0109
S113021024313105A4F4F901EE0FFF1FEE0FFF1F87
S1130220E455FE4F11830083D383C2832F5F3F4F76
S113023030939D0120939C01C0E0D0E002C0C0EC4B
S1130240DFEF50DFCE01DF91CF911F910F91089521
S11302508F929F92AF92BF92CF92DF92EF92FF92D2
S11302600F931F93CF93DF9300D000D0CDB7DEB7A9
S11302706C018B018091AA019091AB01892B29F427
S11302808CE090E0EAD54C011BC060E070E0809106
S1130290FC019091FD010E94D6098090AA019090E2
S11302A0AB01F401828593859093AB018093AA01FD
S11302B060E070E08091FC019091FD010E94410A90
S11302C08114910409F47DC0F401D582C48217839A
S11302D0068368E371E0C6010E942C115C01009161
S11302E09C0110919D01C801880F991F880F991FC7
S11302F09C0128553E4F7901015011095AF45DC003
S11303000150110934E0E31AF1080F3F8FEF180789
S113031009F453C0F70160817181A501C6010E94EF
S11303203B11892B69F711237CF1CA0CDB1C62E4B5
S113033071E0C6010E942C117C01009731F481E028
S113034090E0F4019383828323C0AC01B601CE0113
S113035001960E944911E1E0F0E0EC0FFD1FEE0D63
S1130360FF1D1082CE0101960E940811F4019383AF
S113037082830EC0C40121DF812C912C22C0C401D0
S11303801CDF812C912C1DC0F40111830083F2CF5A
S1130390F40111830083000F111F000F111FF801D6
S11303A0E455FE4F0280F381E02D0190F081E02DB1
S11303B0C401099599232CF4E2CFF401118300833D
S11303C0D9CFC4010F900F900F900F90DF91CF9170
S11303D01F910F91FF90EF90DF90CF90BF90AF905F
S11303E09F908F900895DC0116962C91169720FF0C
S11303F010C0ED91FC91EE0FFF1FEE0FFF1FE455AF
S1130400FE4F0280F381E02D0480F581E02D0995F3
S113041008958EEB9FEF0895DC0116962C911697A4
S113042021FF10C0ED91FC91EE0FFF1FEE0FFF1F97
S1130430E455FE4F0280F381E02D0084F185E02D28
S1130440099508958DEB9FEF0895DC01ED91FC91E2
S1130450EE0FFF1FEE0FFF1FE455FE4F0280F381E6
S1130460E02D0684F785E02D09950895CF93DF9359
S1130470EC017B876A8759874887B9010C960E94EB
S11304802511198218821B821A8228DE2885398553
S113049021303105C9F4E091FE01F091FF0130975C
S11304A059F0FD83EC831F821E82D783C683D093C9
S11304B0FF01C093FE0108C0D093FF01C093FE0169
S11304C01D821C821F821E820DDEDF91CF91089552
S11304D0CF92DF92EF92FF920F931F93CF93DF930C
S11304E08C017B016A01FADDC0919E01D0919F01CC
S11304F0209741F02C813D8130939F0120939E01F0
S1130500F1DD07C0EFDD80E290E0A7D4EC01892B98
S113051029F09601A701B801CE01A8DFCE01DF9131
S1130520CF911F910F91FF90EF90DF90CF9008959E
S11305306F927F928F929F92AF92BF92CF92DF92EF
S1130540EF92FF920F931F93CF93DF936C01662E6C
S1130550772EEA014901CA0180D45C011C161D06EC
S11305604CF4FC019C012C0F3D1F8DEC8193E21790
S1130570F307E1F7B3DDC114D10409F48CC0D6014B
S11305801F961C921E921E971596DC93CE93149779
S113059017969C928E9216971D961C921E921C97EB
S11305A053961C930E9352971396BC92AE92129745
S11305B055961C921E92549757961C921E925697CB
S11305C0FE013197EA0DFB1D6082DF0111977C92D9
S11305D011979FE19C93119790E89C9311979EE14A
S11305E09C9311979DE19C9311979CE19C93119787
S11305F09BE19C9311979AE19C931197FC9211971C
S1130600EC92119797E19C93119796E19C93119723
S113061095E19C93119794E19C93119793E19C939A
S1130620119792E19C93119791E19C93119790E11A
S11306309C9311979FE09C9311979EE09C93119734
S11306409DE09C9311979CE09C9311979BE09C9355
S113065011979AE09C93119799E09C93119798E0D5
S11306609C93119797E09C93119796E09C93119714
S113067095E09C93119794E09C93119793E09C933D
S1130680119792E09C9311971C9211971C92B39727
S1130690D601ED93FC9326DDDF91CF911F910F914D
S11306A0FF90EF90DF90CF90BF90AF909F908F908E
S11306B07F906F900895FF93FFB7F894FF93EF93A3
S11306C0DF93CF93BF93AF939F938F937F936F9356
S11306D05F934F933F932F931F930F93FF92EF9248
S11306E0DF92CF92BF92AF929F928F927F926F923E
S11306F05F924F923F922F921F9211240F92A091DA
S11307000E02B0910F020DB60D920EB60D928091AD
S11307100A0290910B0290930F0280930E02A09113
S11307200A02B0910B02CD91CDBFDD91DEBF0F90D7
S11307301F902F903F904F905F906F907F908F907D
S11307409F90AF90BF90CF90DF90EF90FF900F916C
S11307501F912F913F914F915F916F917F918F9155
S11307609F91AF91BF91CF91DF91EF91FF91F7FDF1
S113077003C0FFBFFF910895FF77FFBFFF91189556
S11307808091120290911302019790931302809327
S113079012028091120290911302892B09F066C013
S11307A08091100290911102892B09F05FC0409151
S11307B00E0250910F028091A0029091A102FA01C1
S11307C0958784876AE072E080E092E0E5D7E09163
S11307D00A02F0910B0280910E0290910F02E81729
S11307E0F90709F443C0868597850196978786871C
S11307F09EB78DB70296A0910E02B0910F028D9311
S11308009D93F0930F02E0930E02A0910A02B0911F
S11308100B02CD91CDBFDD91DEBF0F901F902F90C5
S11308203F904F905F906F907F908F909F90AF908C
S1130830BF90CF90DF90EF90FF900F911F912F9179
S11308403F914F915F916F917F918F919F91AF9164
S1130850BF91CF91DF91EF91FF91F7FD03C0FFBFEF
S1130860FF910895FF77FFBFFF9118950895809138
S11308701202909113020196909313028093120234
S1130880089580917A0290917B02019690937B0265
S113089080937A02F6CFCF93DF93CDB7DEB72C9750
S11308A00FB6F894DEBF0FBECDBF7C0180E092E0AE
S11308B0D4D240E052E0BC01CE01019617DCC12C39
S11308C0D12C512C412C88248394912C6894772426
S11308D071F8612C8091780290917902E3D48C01B3
S11308E0DC01ED91FC91E930F10508F0BEC0EA5B52
S11308F0FF4F0C94DD10B2E0CB16D1042CF0E2E0F3
S1130900CE16D10451F0B1C0DC011C966C9170E09C
S1130910C70182DDC82CD92CA8C0FC01648570E015
S1130920CE01019614DCA1C0F1E0CF16D10449F048
S113093082E0C816D10469F0C114D10409F095C04D
S113094008C0DC011C966C9170E0CE010196FFDBBF
S11309508CC0F801648570E0C7015EDDC72CD62C1D
S113096084C0DC011C966C9170E0C70155DD7DC02C
S1130970B1E0CB16D10449F0E2E0CE16D10469F01F
S1130980C114D10409F071C008C0DC011C966C913B
S113099070E0CE010196DBDB68C0F801648570E08D
S11309A0C7013ADDAB80BC801A141B040CF04FC0A5
S11309B0C12CD12CCE010196A7DBBC01C7012CDDD3
S11309C0FFEFCF1ADF0AAC14BD04A1F7C82CD92C51
S11309D04CC0DC011C966C9170E0C7011DDD45C064
S11309E0B1E0CB16D10409F040C0AB80BC80A114A7
S11309F0B10481F194F1C12CD12CCE01019684DB98
S1130A00BC01C70109DDEFEFCE1ADE0AAC14BD0448
S1130A10A1F7C72CD62C29C0F2E0CF16D10429F5B2
S1130A20AB80BC80A114B104D9F0ECF0C12CD12C62
S1130A30CE01019669DBBC01C701EEDC8FEFC81A59
S1130A40D80AAC14BD04A1F7C82CD92C0EC0C82CEC
S1130A50D92C0BC0C52CD42C08C0C72CD62C05C04F
S1130A60C52CD42C02C0C82CD92CC8016DD432CFCB
S1130A7080389105C4F09C01205831092037310594
S1130A80A8F0803F9105A9F0873F9105A9F021576F
S1130A9031092630310598F0885F9109089790F460
S1130AA082E090E0089580E090E0089581E090E095
S1130AB0089583E090E0089584E090E0089585E04F
S1130AC090E0089580E090E008956C0100E010E06B
S1130AD0812C912CEE24EA94FF24FA946894AA249D
S1130AE0A3F8B12C6894662461F8712C0F2EF6E0FB
S1130AF02F2EF02D312C6894442442F8512C6E2D65
S1130B007F2DC60170DCEC019923B4F1B1DF823092
S1130B109105B1F02CF4009749F0019759F018C0F1
S1130B208430910599F07CF0059791F4882483949E
S1130B30912C0EC088248394912CE62CF72C08C0A9
S1130B40862C972C05C0842C952C02C0822C932CC7
S1130B5081E090E0DCD3FC0181E090E09583848324
S1130B60C48780829182BF0180917802909179023A
S1130B704CD300E010E0C3CF0F5F1F4F02301105CC
S1130B8019F0E62CF72C06C000E010E0EE24EA94FD
S1130B90FF24FA9481E090E0BAD3FC01B182A082F0
S1130BA0BC0180917802909179022FD3A8CF6C0177
S1130BB0812C912C00E010E0EE24EA94FF24FA94B6
S1130BC06894AA24A3F8B12C6894662461F8712C63
S1130BD0412C512C212C312C6E2D7F2DC60103DC90
S1130BE0EC019923D4F144DF82309105A1F02CF477
S1130BF0009749F0019751F01CC084309105A1F091
S1130C006CF00597B1F4842C952C13C0842C952C8E
S1130C10E62CF72C0EC0862C972C0BC00F2EF3E07D
S1130C208F2EF02D932C05C00F2EF5E08F2EF02D76
S1130C30922C81E090E06BD3FC0181E090E09583FD
S1130C408483C48780829182BF01809178029091CD
S1130C507902DBD200E010E0BFCF0F5F1F4F0230FC
S1130C60110519F0E62CF72C06C000E010E0EE2484
S1130C70EA94FF24FA9481E090E049D3FC01B18224
S1130C80A082BC018091780290917902BED2A4CF57
S1130C90FF93FFB7F068FF93EF93DF93CF93BF9376
S1130CA0AF939F938F937F936F935F934F933F93F0
S1130CB02F931F930F93FF92EF92DF92CF92BF92E5
S1130CC0AF929F928F927F926F925F924F923F92D8
S1130CD02F921F9211240F92CADD80E886BD0E94D4
S1130CE045104EDD0F901F902F903F904F905F90D6
S1130CF06F907F908F909F90AF90BF90CF90DF9038
S1130D00EF90FF900F911F912F913F914F915F9121
S1130D106F917F918F919F91AF91BF91CF91DF910F
S1130D20EF91FF91FF77FFBFFF911895CF93DF936A
S1130D3000D000D0CDB7DEB783E085BD81E08093DD
S1130D406E002CD360E070E080E090E006D225DAFB
S1130D50ADD5FCD26FEB7FEF84E491E079DA909328
S1130D602D0280932C020F2EF2E1CF2EFAE7DF2E14
S1130D70E12CF12CF02DC982DA82EB82FC82AE01E7
S1130D804F5F5F4F60E070E060DB6FEB7FEF89E403
S1130D9091E05EDA90935F0280935E02C982DA8208
S1130DA0EB82FC82AE014F5F5F4F60E070E04DDB91
S1130DB06EE471E088E090E0F1D190937902809341
S1130DC07802E12CF12C05E511E021E030E040E06F
S1130DD051E061E474E086E492E0AADB66E472E048
S1130DE080E092E01ED4E0902C02F0902D020AE5FF
S1130DF011E02AE030E040E051E067ED75E08EE27A
S1130E0092E096DB6EE272E080E092E00AD4E09039
S1130E105E02F0905F0200E611E02AE030E040E07C
S1130E2051E065E675E080E692E082DB60E672E020
S1130E3080E092E0F6D3E0902C02F0902D0206E6DA
S1130E4011E02BE030E040E051E06BE474E084E139
S1130E5092E06EDB0E940710FFCFEF92FF920F9398
S1130E601F93CF93DF938C0160E070E08EE792E0F4
S1130E709DD20230110510F402E010E0A0919E0210
S1130E80B0919F02109709F483C04D915C91119722
S1130E900417150791F0CA01FD0120E030E01EC0DF
S1130EA08881998108171907C1F4309729F08A813C
S1130EB09B81938382830AC0DE0112968D919C915B
S1130EC0139790939F0280939E02ED0160E070E07F
S1130ED08EE792E0D6D22296A8C0FE010817190721
S1130EE048F42115310529F08217930718F49C0161
S1130EF001C09C01C281D381209791F6211531054F
S1130F0009F446C0C901801B910B049708F487C0FB
S1130F1087C0F701808191812817390781F520174F
S1130F203107D9F4109739F08281938113969C93F9
S1130F308E9312970AC0D70112968D919C911397A4
S1130F4090939F0280939E027D0160E070E08EE7A3
S1130F5092E097D2E701229668C0201B310BE7018B
S1130F60C20FD31F0993199322503109F70131831A
S1130F70208360E070E08EE792E083D256C0D70110
S1130F801296ED90FC901397E114F10409F0C1CF8F
S1130F9080917C0290917D02892B41F48091020121
S1130FA09091030190937D0280937C0280910001D3
S1130FB090910101009741F48DB79EB720910401EF
S1130FC030910501821B930BC0917C02D0917D026C
S1130FD08C1B9D0B80179107A0F098012E5F3F4F4B
S1130FE08217930770F02C0F3D1F30937D022093DE
S1130FF07C020993199360E070E08EE792E041D29D
S113100014C060E070E08EE792E03BD2C0E0D0E034
S11310100CC02017310709F48FCF7D019ECF8901C1
S11310202417350709F0ACCFF4CFCE01DF91CF916F
S11310301F910F91FF90EF9008950F931F93CF93FB
S1131040DF93009709F484C08C0160E070E08EE7C0
S113105092E0ACD1D801129713961C921E9212976B
S1131060E0919E02F0919F02309721F0EA17FB076E
S113107078F05FC0B0939F02A0939E0260E070E09E
S11310808EE792E0FED164C08A179B0730F4FC011E
S1131090828193810097C1F72EC0980122503109B3
S11310A0E9019B838A8328813981A801420F531F58
S11310B084179507A1F402C0E0E0F0E0EC01688138
S11310C079816E5F7F4F260F371FE8013A932A9389
S11310D0AE01EC018A819B81EA019B838A8330976C
S11310E051F4B0939F02A0939E0260E070E08EE7FB
S11310F092E0C7D12DC0B383A283EF012991399126
S1131100CE01820F931FA817B90769F4E8015A9119
S11311104A91240F351F2E5F3F4F318320838A81EC
S11311209B819383828360E070E08EE792E0A9D193
S11311300FC0C8010297EC01FB83EA83288139813F
S1131140C801820F931FE817F90709F4B5CFC9CF77
S1131150DF91CF911F910F9108950F931F93CF9318
S1131160DF938C01EB012CE631E040E050E061E0DC
S113117070E08EE792E07AD90115110521F0109301
S1131180030100930201209721F0D0930101C09341
S11311900001DF91CF911F910F910895EF92FF927B
S11311A00F931F93CF93DF938C017B010696880FD7
S11311B0991F53DEEC0160E070E08091A2019091F0
S11311C0A301F4D01B821A821D821C821F821E82FC
S11311D0CE010C969B878A8719870887A70160E050
S11311E070E080E090E074D99983888360E070E0D7
S11311F08091A2019091A30144D1CE01DF91CF91BE
S11312001F910F91FF90EF900895FF920F931F93FA
S1131210CF93DF93009709F43FC08B01EC018091D9
S1131220120290911302892B21F40E946E00F82E71
S113123001C0F12C2E813F818885998528173907B3
S113124014F5EA85FB858A819B819C012F5F3F4FC2
S11312503B832A83880F991FE80FF91F11830083AA
S11312602A813B81888599852817390711F41B82C7
S11312701A828E819F8101969F838E8360E070E045
S113128088819981FED08091120290911302892B5A
S113129019F48F2D0E947200DF91CF911F910F914D
S11312A0FF9008950F931F93CF93DF93009739F125
S11312B0EC0160E070E08881998178D00E946E0032
S11312C0EA85FB852C813D81A9014F5F5F4F5D83DA
S11312D04C83220F331FE20FF31F008111812885F5
S11312E039854217530711F41D821C822E813F81D8
S11312F0215031093F832E830E94720002C000E016
S113130010E0C801DF91CF911F910F910895CF9301
S1131310DF93EC010D96A1DD009799F02091A001D7
S11313203091A1012F5F3F4F3093A1012093A00181
S1131330FC01D583C483118610861382128213861E
S11313401286DF91CF91089578CE089543E751E056
S113135060E070E081E090E0BBD89093A3018093BB
S1131360A2010895CF93DF93DC01ED91FC91EB0191
S1131370A881B9818681978116962D913C91179702
S1131380821B930B41F41C968D919C911D9724858F
S11313903585821B930BDF91CF91089542EB59E081
S11313A060E270E080E092E0D8C00895EF92FF928E
S11313B01F93CF93DF93EC017B010E946E00182FE3
S11313C08A859B85181619064CF401979B878A8792
S11313D0812F0E94720080E090E04DC001979B87AE
S11313E08A8788819981892B39F480910E029091A2
S11313F00F029983888308C0EA81FB8180910E02E1
S113140090910F02958B848BE0910E02F0910F0264
S1131410FB83EA831186108688859985892B11F0D0
S1131420F18AE08A8091A0029091A1029587848735
S11314306AE072E080E092E084D1892B59F0E09177
S11314400A02F0910B028685978501969787868715
S113145032D908C0E0910E02F0910F028FEF9FEF96
S113146091878087812F0E947200E0910E02F09193
S11314700F0280859185DF91CF911F91FF90EF90AE
S11314800895EF92FF921F93CF93DF93EC017B01BA
S11314908091120290911302892B21F40E946E0014
S11314A0182F01C010E08A859B858E3F2FE7920795
S11314B0CCF599236CF001969B878A87C091120220
S11314C0D09113022097D1F5812F0E9472003EC063
S11314D001969B878A87E881F9813097C9F08489CE
S11314E0958999838883158A148AF186E086BF01D9
S11314F080E092E096D08091120290911302892BA1
S113150019F4812F0E94720012D6C0E0D0E01EC0F0
S1131510C0911202D0911302209799F4812F0E9456
S1131520720014C08091120290911302892B61F40D
S1131530812F0E947200CEEFDFEF08C0C0E0D0E040
S113154005C0C0E0D0E002C0CEEFDFEFCE01DF91F6
S1131550CF911F91FF90EF900895CF93DF93EC010B
S1131560598348831B821A827D836C83CB01880F45
S1131570991F73DC9987888702979F838E83DF91F5
S1131580CF910895CF92DF92EF92FF920F931F9322
S1131590CF93DF936C01DC0112968D919C9113978C
S11315A0EC01219702977C011AF4BFEFEB1AFB0AB6
S11315B0F594E794FF2014F42BC07C01F601808598
S11315C09185CC0FDD1FC80FD91F8701000F111F94
S11315D0080F191F0190F081E02DBE01C801099583
S11315E09923B4F4D8018D919C9111972881398164
S11315F02D933C9399838883970121503109C90124
S113160099230CF4019695958795E7019923ACF6F7
S1131610DF91CF911F910F91FF90EF90DF90CF90CA
S11316200895CF93DF93FC0122813381C481D58156
S1131630C21BD30B1C161D0694F4DC012F5F3F4F15
S1131640338322830680F781E02D9F012E5F3F4F75
S113165017963C932E9316977383628393DFCE0180
S1131660DF91CF9108956F927F928F929F92AF9264
S1131670BF92CF92DF92EF92FF920F931F93CF937B
S1131680DF93DC011896AD90BC90199712962D91BA
S11316903C911397223031050CF444C06C01EE24C4
S11316A0E394F12CC0E0D0E002C0E7017C01CC0F50
S11316B0DD1FCA0DDB1D8701000F111F0A0D1B1D45
S11316C03701BFEF6B1A7B0A6216730674F4480184
S11316D0E2E08E0E911CD601ED91FC91B401C8019B
S11316E00995992314F484017301D601ED91FC91B9
S11316F0B801CE0109959923ACF488819981F80148
S1131700208131813983288391838083C701880FA5
S1131710991F0196D60112962D913C911397821729
S113172093071CF2DF91CF911F910F91FF90EF90DF
S1131730DF90CF90BF90AF909F908F907F906F90ED
S11317400895CF93DF93DC011296CD91DC9113972A
S11317501C161D06ECF4FC01A085B1858D919C91AD
S1131760DB018D939C9380859185A681B7819D0132
S113177022503109378326832D913C91DC012D932E
S11317803C9382819381019793838283CF016BDFA2
S1131790CE01DF91CF910895CF92DF92EF92FF9225
S11317A00F931F93CF93DF9300D0CDB7DEB75A8347
S11317B04983DC011296CD90DC9013971C141D0410
S11317C04CF57B018C01FC01608571850190F081F1
S11317D0E02DCE01019609951816190634F4898175
S11317E09A81D7018D939C931AC0D8011896ED91D4
S11317F0FC91199780819181F701918380831896D8
S1131800ED91FC91199789819A8191838083C80114
S11318102ADF05C089819A81DB018D939C93C601DF
S11318200F900F90DF91CF911F910F91FF90EF9048
S1131830DF90CF900895DC011896ED91FC911997F3
S11318406115710521F06130710521F00BC08481AF
S11318509581089581E090E024893589232B21F036
S113186080E0089580E090E00895CF93DF93672BA4
S1131870C1F4DC011896ED91FC91199700A0F1A137
S1131880E02DC085D185FA012081318142815381C7
S113189060E472E48FE090E074D42150310939831C
S11318A0288380E090E0DF91CF9108956AE171E0B0
S11318B08FE791E00E94FD0080E090E00895CF93CF
S11318C0DF93EC01E8A1F9A1A281B3818C91882373
S11318D0B4F583FF09C08091A8019091A9010196F4
S11318E09093A9018093A8014E855F858881998191
S11318F09C012F5F3F4F398328830190F081E02DB5
S11319002081FA01E80FF91F2083288139818E8113
S11319109F812817390711F4198218828C819D81BF
S113192001969D838C8360E070E08A859B85A9DDA8
S1131930E8A1F9A1A281B3818C91882354F2DF91AB
S1131940CF9108950F931F93CF93DF93EC0101E0A0
S113195010E039C08C899D898038910529F460E0B4
S113196070E08A8D9B8D8DDD8C899D89892B11F189
S1131970E8A1F9A10190F081E02D2E8D3F8D8A8997
S11319809B89AC014F5F5F4F5B8B4A8BD901A80FDA
S1131990B91F8C9180832A893B898E899F89281756
S11319A0390711F41B8A1A8A8C899D8901979D8BAA
S11319B08C8B09C0E8A1F9A10480F581E02D808118
S11319C08F7D8083012FE8A1F9A10280F381E02DAE
S11319D0808185FF02C00111BDCFDF91CF911F919E
S11319E00F9108951F93CF93DF93162FFC01C085A9
S11319F0D1852C893D898E899F892817390729F437
S1131A0060E070E08A8D9B8DD1DC0E946E004C8971
S1131A105D892E893F894217530748F54E8D5F8DA6
S1131A2028893989B9016F5F7F4F798B688BFA01F7
S1131A30E20FF31F1083488959892E893F89421781
S1131A40530711F4198A188A2C893D89232B41F4F0
S1131A50E8A1F9A10480F581E02D90819062908342
S1131A602C893D892F5F3F4F3D8B2C8B06C0288DE1
S1131A70398D2F5F3F4F398F288F0E94720080E08D
S1131A8090E0DF91CF911F9108958F929F92AF9232
S1131A90BF92CF92DF92EF92FF920F931F93CF9357
S1131AA0DF938C017B016A01FC01A084B18460E0B6
S1131AB070E0F501848D958D79DC1C141D04CCF443
S1131AC0E701EC0CFD1C4E0188818A3041F4F801D9
S1131AD0868186FF04C06DE070E0C80183DF219633
S1131AE0F401608170E0C8017DDFCE15DF0559F790
S1131AF002C0C12CD12C60E070E0F501848D958D7D
S1131B00C0DCC601DF91CF911F910F91FF90EF9040
S1131B10DF90CF90BF90AF909F908F9008950F93D8
S1131B201F93CF93DF93DC0118960D911C911997A5
S1131B30F801828593853ADCEC01892B91F50E94AA
S1131B406E00D80114962D913C91159721153105FD
S1131B5021F11E96ED91FC911F9712964D915C9187
S1131B601397BA016F5F7F4F13967C936E9312970E
S1131B70E40FF51FC081D0E016964D915C91179744
S1131B806417750721F413961C921E921297215024
S1131B903109F8013583248302C0CFEFDFEF0E94BF
S1131BA07200CE01DF91CF911F910F910895AF92F2
S1131BB0BF92CF92DF92EF92FF920F931F93CF9336
S1131BC0DF93DC0112960D911C91139702301105DD
S1131BD00CF0B0C07C0182E290E03FD9EC01F70147
S1131BE091878087C801880F991F880F991F880FD4
S1131BF0991F9801220F331F820F931F8A5F9E4FF4
S1131C0099A388A380E091E028D99F8F8E8F20E04C
S1131C1030E0EE8DFF8DE20FF31F10822F5F3F4FF8
S1131C202115F1E03F07A9F7198E188E198A188A31
S1131C301B8A1A8A1D8A1C8AC12CDD24D394DF8A4C
S1131C40CE8AF801EE0FFF1FED56FE4FA080B18043
S1131C50A50160E070E081E090E00E9468029D8F41
S1131C608C8FA50161E070E080E090E00E94680242
S1131C709B8F8A8F1986188680E091E0EED89F8723
S1131C808E87198218821B821A821D821C82DF822F
S1131C90CE8220E030E0EE85FF85E20FF31F108254
S1131CA02F5F3F4F211581E03807A9F7000F111F5F
S1131CB0F801E956FE4F4081518160E070E080E018
S1131CC090E00E9468029B878A87E8A1F9A10480BA
S1131CD0F581E02D1082E8A1F9A10280F381E02DC5
S1131CE01082E8A1F9A10680F781E02D86E08083C7
S1131CF0E8A1F9A10084F185E02D83E390E09183CC
S1131D008083E8A1F9A10480F581E02D88E980832E
S1131D10D7011296ED91FC911397EE0FFF1FEC552E
S1131D20FE4F18968D919C9119979183808380E042
S1131D3090E002C08FEF9FEFDF91CF911F910F9141
S1131D40FF90EF90DF90CF90BF90AF900895FF93F6
S1131D50FFB7F068FF93EF93DF93CF93BF93AF93F5
S1131D609F938F937F936F935F934F933F932F939F
S1131D701F930F93FF92EF92DF92CF92BF92AF9295
S1131D809F928F927F926F925F924F923F922F9287
S1131D901F9211240F9280911202909113020196C6
S1131DA090931302809312028091A4019091A50153
S1131DB086DD0E94C0030F901F902F903F904F909C
S1131DC05F906F907F908F909F90AF90BF90CF90D7
S1131DD0DF90EF90FF900F911F912F913F914F91C2
S1131DE05F916F917F918F919F91AF91BF91CF91AF
S1131DF0DF91EF91FF91FF77FFBFFF911895FF935C
S1131E00FFB7F068FF93EF93DF93CF93BF93AF9344
S1131E109F938F937F936F935F934F933F932F93EE
S1131E201F930F93FF92EF92DF92CF92BF92AF92E4
S1131E309F928F927F926F925F924F923F922F92D6
S1131E401F9211240F928091120290911302019615
S1131E5090931302809312028091A4019091A501A2
S1131E6071DD0E94C0030F901F902F903F904F9000
S1131E705F906F907F908F909F90AF90BF90CF9026
S1131E80DF90EF90FF900F911F912F913F914F9111
S1131E905F916F917F918F919F91AF91BF91CF91FE
S1131EA0DF91EF91FF91FF77FFBFFF911895FF93AB
S1131EB0FFB7F068FF93EF93DF93CF93BF93AF9394
S1131EC09F938F937F936F935F934F933F932F933E
S1131ED01F930F93FF92EF92DF92CF92BF92AF9234
S1131EE09F928F927F926F925F924F923F922F9226
S1131EF01F9211240F928091120290911302019665
S1131F0090931302809312028091A6019091A701ED
S1131F10D6DC0E94C0030F901F902F903F904F90EB
S1131F205F906F907F908F909F90AF90BF90CF9075
S1131F30DF90EF90FF900F911F912F913F914F9160
S1131F405F916F917F918F919F91AF91BF91CF914D
S1131F50DF91EF91FF91FF77FFBFFF911895FF93FA
S1131F60FFB7F068FF93EF93DF93CF93BF93AF93E3
S1131F709F938F937F936F935F934F933F932F938D
S1131F801F930F93FF92EF92DF92CF92BF92AF9283
S1131F909F928F927F926F925F924F923F922F9275
S1131FA01F9211240F9280911202909113020196B4
S1131FB090931302809312028091A6019091A7013D
S1131FC0C1DC0E94C0030F901F902F903F904F9050
S1131FD05F906F907F908F909F90AF90BF90CF90C5
S1131FE0DF90EF90FF900F911F912F913F914F91B0
S1131FF05F916F917F918F919F91AF91BF91CF919D
S1132000DF91EF91FF91FF77FFBFFF9118956AE091
S113201072E080E092E095DB80910A0290910B02DD
S113202090930F0280930E02A0910A02B0910B02CA
S1132030CD91CDBFDD91DEBF0F901F902F903F90CB
S11320404F905F906F907F908F909F90AF90BF90D4
S1132050CF90DF90EF90FF900F911F912F913F91C0
S11320604F915F916F917F918F919F91AF91BF91AC
S1132070CF91DF91EF91FF91F7FD03C0FFBFFF9177
S11320800895FF77FFBFFF911895EF92FF920F938A
S11320901F93CF93DF938091A0029091A1020196A8
S11320A09093A1028093A002E090FE01F090FF01C2
S11320B0E114F104A9F10DEF1FEFF701C081D18103
S11320C0209741F18889998918161906E4F4019733
S11320D0998B888B18161906B4F0D7011A968D912E
S11320E09C911B9701961B969C938E931A97198724
S11320F008878C899D89918380831D8A1C8ABE01EF
S113210080E092E08EDAFE0174960C88DD89C02DA1
S11321102097C1F6F701E480F580E114F10469F633
S1132120DF91CF911F910F91FF90EF900895CF937E
S11321308091120290911302892B09F50E946E007E
S1132140C82F40910E0250910F028091A0029091ED
S1132150A102FA01958784876AE072E080E092E048
S11321601BDBE0910A02F0910B02868597850196AC
S1132170978786870E945B038C2F0E947200CF9101
S11321800895052E97FB16F400940FD057FD05D043
S11321901DD007FC02D046F408C0509540953095F8
S11321A021953F4F4F4F5F4F0895909580957095BF
S11321B061957F4F8F4F9F4F0895EE0FFF1F0024AF
S11321C0001C0BBE0790F691E02D0994A1E21A2E93
S11321D0AA1BBB1BFD010DC0AA1FBB1FEE1FFF1FC7
S11321E0A217B307E407F50720F0A21BB30BE40B17
S11321F0F50B661F771F881F991F1A9469F760955E
S11322007095809590959B01AC01BD01CF01089517
S1132210FC0188279927E89421912032E9F3293099
S113222010F02E30C8F32B3239F02D3231F468948B
S113223003C03ED0820F911D219120532A30C8F350
S11322401EF4909581959F4F0895FB01DC01019048
S11322500D920020E1F70895DC015D91552331F0E2
S1132260FB01019005160110E1F7B9F780959095EF
S11322708A0F9B1F0895FB01DC014150504030F050
S11322808D910190801919F40020B9F7881B990BDE
S11322900895FB01DC014150504048F001900D923B
S11322A00020C9F701C01D9241505040E0F7089545
S11322B07AE0979F902D879F802D910D112408958A
S10722C0F894FFCFBC
S11322C4FF40A2022000C600C000C100C200C40036
S11322D4CE00C800C900CA00CC00D70D00008F0D81
S11322E40000F20C450D1B0C350C560C494F4342AF
S11322F4426C6F636B657200393837363534333268
S113230431303A00434F4D3000434F4D31004D6559
S1132314726765510049646C65004D6964693100F4
S11323244D69646932004D65726765004D616C6C7A
S11323346F63004D53475F424C4F434B4552004338
S11323444F4D005458300054583100525830005204
S10F2354583100830187018B018F0100C8
S9030000FC
