:100000005FC0000094C50000E9C500003CC60000C8
:1000100075C0000073C0000071C000006FC0000018
:100020006DC000006BC0000069C0000067C0000028
:1000300065C0000063C0000061C000005FC0000038
:100040005DC000005BC0000009C5000057C0000093
:100050000C9426130C94DE1351C000004FC0000016
:10006000A0C400004BC0000049C0000047C0000011
:1000700045C0000043C0000041C000003FC0000078
:100080003DC000003BC0000039C00000610B680BA0
:100090006D0B720B5A0C5A0C5A0C770B7B0B5A0CCB
:1000A0007D0B7F0B810B5A0C5A0C830B44104110B3
:1000B0005D10A11059115911CF101D113F1156118A
:1000C00011241FBECFEFD0E4DEBFCDBF11E0A0E012
:1000D000B1E0EEE8FAE200E00BBF02C007900D923B
:1000E000A03CB107D9F723E0A0ECB1E001C01D921C
:1000F000AB31B207E1F730D60C94451581CF8FB7FD
:10010000F894807808959FB7982B9FBF0895CF9358
:10011000DF93EC017B876A8759874887B9010C9682
:100120000E940B15198218821B821A82E8DF28852B
:10013000398521303105C9F4E091E401F091E50100
:10014000309759F0FD83EC831F821E82D783C683CC
:10015000D093E501C093E40108C0D093E501C093BA
:10016000E4011D821C821F821E82CDDFDF91CF91B0
:100170000895CF92DF92EF92FF920F931F93CF9348
:10018000DF938C017B016A01BADFC091C001D0917D
:10019000C101209741F02C813D813093C101209312
:1001A000C001B1DF07C0AFDF80E290E0A4D6EC0170
:1001B000892B29F09601A701B801CE01A8DFCE0155
:1001C000DF91CF911F910F91FF90EF90DF90CF9033
:1001D0000895FF920F931F93CF93DF93EC018FDF6E
:1001E000F82EE881F981309799F00CEF1FEF8489A0
:1001F000958999838883158A148A11870087BF019E
:1002000086EE91E00E94BE0EE881F981309779F781
:1002100076DF28853985232BE9F02091E4013091A0
:10022000E501C217D30731F42C813D813093E501FC
:100230002093E401EE81FF81309721F02C813D81F4
:1002400035832483EC81FD81309721F02E813F811D
:10025000378326832091C0013091C1013D832C83D7
:10026000D093C101C093C0014EDF8F2D4CDFDF91D1
:10027000CF911F910F91FF9008958F929F92AF920F
:10028000BF92CF92DF92EF92FF920F931F93CF9383
:10029000DF93EC01862E972E8A015901CA012BD6D5
:1002A0006C012DDF209709F45CC01F861E861D831C
:1002B0000C83BF82AE821D861C86DB82CA821D8AA9
:1002C0001C8A1F8A1E8AF8013197EC0DFD1D808261
:1002D000DF0111979C9211971C92119790E89C93C3
:1002E00011971C9211971C9211971C9211971C92B6
:1002F00011971C921197FC921197EC9211971C92F6
:1003000011971C9211971C9211971C9211971C9295
:1003100011971C9211971C9211971C9211971C9285
:1003200011971C9211971C9211971C9211971C9275
:1003300011971C9211971C9211971C9211971C9265
:1003400011971C9211971C9211971C9211971C9255
:1003500011971C9211971C9211971C92B397F983D5
:10036000E883D1DEDF91CF911F910F91FF90EF9045
:10037000DF90CF90BF90AF909F908F9008956F9235
:100380007F928F929F92AF92BF92CF92DF92EF9225
:10039000FF920F931F93CF93DF933C016B015A01A0
:1003A000490188E190E0A7D5EC017801840195012D
:1003B000A601B30162DFCE01DF91CF911F910F91B2
:1003C000FF90EF90DF90CF90BF90AF909F908F9075
:1003D0007F906F900895FF93FFB7F894FF93EF938A
:1003E000DF93CF93BF93AF939F938F937F936F933D
:1003F0005F934F933F932F931F930F93FF92EF922F
:10040000DF92CF92BF92AF929F928F927F926F9224
:100410005F924F923F922F921F9211240F92A091C0
:10042000F001B091F1010DB60D920EB60D928091D2
:10043000F4019091F5019093F1018093F001A09166
:10044000F401B091F501CD91CDBFDD91DEBF0F90EC
:100450001F902F903F904F905F906F907F908F9064
:100460009F90AF90BF90CF90DF90EF90FF900F9153
:100470001F912F913F914F915F916F917F918F913C
:100480009F91AF91BF91CF91DF91EF91FF91F7FDD8
:1004900003C0FFBFFF910895FF77FFBFFF9118953D
:1004A0008091F6019091F70101979093F701809365
:1004B000F6018091F6019091F701892B09F060C057
:1004C0004091F0015091F1018091190390911A032C
:1004D000FA019587848764EF71E086EE91E00E94CF
:1004E000540FE091F401F091F5018091F0019091A9
:1004F000F101E817F90709F443C08685978501964D
:10050000978786879EB78DB70296A091F001B0912C
:10051000F1018D939D93F093F101E093F001A0918F
:10052000F401B091F501CD91CDBFDD91DEBF0F900B
:100530001F902F903F904F905F906F907F908F9083
:100540009F90AF90BF90CF90DF90EF90FF900F9172
:100550001F912F913F914F915F916F917F918F915B
:100560009F91AF91BF91CF91DF91EF91FF91F7FDF7
:1005700003C0FFBFFF910895FF77FFBFFF9118955C
:1005800008958091F6019091F70101969093F701FB
:100590008093F60108958091EF029091F002019608
:1005A0009093F0028093EF02F6CFCF93DF9300D0C9
:1005B000CDB7DEB71A82198289819A8160E070E036
:1005C0000E94C31100E010E0EE24E394F12C80912E
:1005D0006F0290917002ADD6FC01208131812130F3
:1005E0003105E1F038F02230310551F12330310589
:1005F000A9F141C089819A81019709F03CC082E04C
:1006000090E09A83898398014CE050E062E070E0CA
:100610008091A5029091A6023BD62DC0FC010281DB
:10062000138189819A81029731F598014CE050E05D
:1006300062E070E08091A5029091A60229D61BC0CD
:10064000FA82E9822FEF33E04CE050E062E070E0A4
:100650008091A5029091A6021BD60DC01A82198224
:1006600020E030E04CE050E062E070E08091A502D4
:100670009091A6020DD689819A8160E070E00E9477
:10068000C311A5CFCF93DF9300D0CDB7DEB71A82C9
:10069000198289819A8161E070E00E94C311E12C86
:1006A000F12C01E010E08091F8019091F90141D620
:1006B000FC012081318121303105E1F038F0223018
:1006C000310551F123303105A9F141C089819A8169
:1006D000019709F03CC082E090E09A8389839701FA
:1006E0004DE050E062E070E08091A5029091A6029A
:1006F000CFD52DC0FC01E280F38089819A810297D9
:1007000031F597014DE050E062E070E08091A50284
:100710009091A602BDD51BC01A8309832FEF33E049
:100720004DE050E062E070E08091A5029091A60259
:10073000AFD50DC01A82198220E030E04DE050E0C4
:1007400062E070E08091A5029091A602A1D5898116
:100750009A81B8010E94C311A6CFEAE7F0E0808138
:100760008068808310927C00808180648083808197
:100770008F608083C0E0D0E00F2EFCE7EF2EF12CDD
:10078000F02D0AE710E060E070E080913D0290916A
:100790003E020E94830CCD2B61F09C01AC0161E014
:1007A00070E080916F029091700272D5C0E0D0E04D
:1007B0000BC09C01AC0161E070E08091F801909168
:1007C000F90166D5C1E0D0E082E390E00E94981282
:1007D000F701C083F801808180648083D4CF20E05A
:1007E00030E040E050E061E070E08091A50290913F
:1007F000A6024ED5C0E0D0E08091A5029091A6025D
:1008000098D5DC012D913C9122303105C9F038F0AA
:100810002330310529F12430310579F1EDCFFE0186
:10082000EE0FFF1FE050FF4FBE01808191810E94BB
:1008300096112196CE30D105F9F6C0E0D0E0DCCF9C
:10084000FC01C281D381FE01EE0FFF1FE050FF4F7C
:10085000DC0114968D919C91159791838083CCCF68
:10086000FC0182810E94911180E090E00E94590D6C
:1008700080E090E00E94420DBFCFDC0112968D9186
:100880009C9113979C012170332796958795823010
:10089000910521F128F4009749F0019799F0ACCF28
:1008A0008330910539F1049789F1A6CF232B29F0E4
:1008B00087E090E00E94710D9FCF87E090E00E945A
:1008C000880D9ACF232B29F085E090E00E94A00D9F
:1008D00093CF85E090E00E94B70D8ECF232B29F0B7
:1008E00086E090E00E94A00D87CF86E090E00E9415
:1008F000B70D82CF232B29F087E090E00E94A00D56
:100900007BCF87E090E00E94B70D76CF232B29F0B4
:1009100083E090E00E94420D6FCF83E090E00E9460
:10092000590D6ACF60E070E080917102909172027F
:10093000EAD781E090E00E94981286E090E00E9461
:10094000880DF0CFCF93DF9300D0CDB7DEB794D52D
:1009500097D58CE090E0CFD28C010E949E139A83B1
:10096000898369817A81C8018ED6F7CF60E070E013
:1009700080918B0290918C02C6D782E090E00E9419
:10098000981282E090E00E940D0DF0CF80E184BDCE
:1009900083E085BD81E080936E008EEF87BD249A51
:1009A0000895FF93FFB7F068FF93EF93DF93CF9322
:1009B000BF93AF939F938F937F936F935F934F9367
:1009C0003F932F931F930F93FF92EF92DF92CF925B
:1009D000BF92AF929F928F927F926F925F924F924F
:1009E0003F922F921F9211240F92CBDD60917800DD
:1009F00070917900EAE7F0E0808180618083660F82
:100A0000771F660F771F80913D0290913E020E94F2
:100A1000CF0D46DD0F901F902F903F904F905F902D
:100A20006F907F908F909F90AF90BF90CF90DF900E
:100A3000EF90FF900F911F912F913F914F915F91F8
:100A40006F917F918F919F91AF91BF91CF91DF91E6
:100A5000EF91FF91FF77FFBFFF911895FF93FFB7CD
:100A6000F068FF93EF93DF93CF93BF93AF939F9380
:100A70008F937F936F935F934F933F932F931F9326
:100A80000F93FF92EF92DF92CF92BF92AF929F921D
:100A90008F927F926F925F924F923F922F921F920E
:100AA00011240F926EDD8AED86BD0E94D412F8DC0F
:100AB0000F901F902F903F904F905F906F907F907E
:100AC0008F909F90AF90BF90CF90DF90EF90FF906E
:100AD0000F911F912F913F914F915F916F917F9156
:100AE0008F919F91AF91BF91CF91DF91EF91FF9146
:100AF000FF77FFBFFF91189583E090E077D784E000
:100B000090E00E94B70D84E090E00E94A00DE89A6A
:100B10000895E9E6F0E080818C608083E99A089589
:100B2000E9E6F0E0808180638083EA9A0895FF938C
:100B3000FFB7F068FF93EF93DF93CF93BF93AF932B
:100B40009F938F937F936F935F934F933F932F93D5
:100B50001F930F93FF92EF92DF92CF92BF92AF92CB
:100B60009F928F927F926F925F924F923F922F92BD
:100B70001F9211240F9205DD5C985C9A20E030E012
:100B800040E050E060E070E08091A5029091A60204
:100B90007FD386DC0F901F902F903F904F905F90F7
:100BA0006F907F908F909F90AF90BF90CF90DF908D
:100BB000EF90FF900F911F912F913F914F915F9177
:100BC0006F917F918F919F91AF91BF91CF91DF9165
:100BD000EF91FF91FF77FFBFFF911895FF93FFB74C
:100BE000F068FF93EF93DF93CF93BF93AF939F93FF
:100BF0008F937F936F935F934F933F932F931F93A5
:100C00000F93FF92EF92DF92CF92BF92AF929F929B
:100C10008F927F926F925F924F923F922F921F928C
:100C200011240F92AEDC20E030E040E050E060E0C4
:100C300070E080916F02909170022AD331DC0F90A6
:100C40001F902F903F904F905F906F907F908F906C
:100C50009F90AF90BF90CF90DF90EF90FF900F915B
:100C60001F912F913F914F915F916F917F918F9144
:100C70009F91AF91BF91CF91DF91EF91FF91FF775E
:100C8000FFBFFF911895FF93FFB7F068FF93EF93B5
:100C9000DF93CF93BF93AF939F938F937F936F9384
:100CA0005F934F933F932F931F930F93FF92EF9276
:100CB000DF92CF92BF92AF929F928F927F926F926C
:100CC0005F924F923F922F921F9211240F9259DC04
:100CD00020E030E040E050E060E070E08091F8011A
:100CE0009091F901D5D2DCDB0F901F902F903F90AF
:100CF0004F905F906F907F908F909F90AF90BF903C
:100D0000CF90DF90EF90FF900F911F912F913F9127
:100D10004F915F916F917F918F919F91AF91BF9113
:100D2000CF91DF91EF91FF91FF77FFBFFF91189572
:100D300080EF8AB980EC87B98BEB84B98CEF81B9ED
:100D4000E2E1F2E0108289E081838AE082838BE035
:100D500083838CE084830895D2D9EADF40D616DEFF
:100D600060E070E080E090E046D2C6DEC4D50E942C
:100D700080110E948C1473D380E190E05ED2909336
:100D8000A6028093A50288E090E057D2909370026B
:100D900080936F0288E090E050D29093F9018093A5
:100DA000F80142E251E060E070E080E090E0E1D9DB
:100DB000909372028093710241E351E060E070E031
:100DC00080E090E0D6D990938C0280938B0240E42F
:100DD00051E060E070E080E090E0CBD990933E027B
:100DE00080933D02E12CF12C08E411E023E030E097
:100DF00040E051E06DEA73E08FEB92E03EDA6FEB9A
:100E000072E086EE91E0BAD70CE411E021E030E028
:100E100040E051E06BEC72E08FE392E02EDA6FE39A
:100E200072E086EE91E0AAD706E511E024E130E019
:100E300040E051E06FEE73E08AEF91E01EDA6AEF76
:100E400071E086EE91E09AD70FE511E022E030E004
:100E500040E051E062E974E087ED92E00EDA67ED80
:100E600072E086EE91E08AD709E611E022E030E0F8
:100E700040E051E066EB74E087EA92E0FED967EA71
:100E800072E086EE91E07AD704E711E02AE030E0E4
:100E900040E051E062EA74E08DE892E0EED96DE85E
:100EA00072E086EE91E06AD70CE711E023E030E0D3
:100EB00040E051E065ED72E089E192E0DED969E160
:100EC00072E086EE91E05AD703E811E023E030E0CB
:100ED00040E051E062E473E083E792E0CED963E75B
:100EE00072E086EE91E04AD70E945E1112DE18DEB3
:100EF0000E945A12FFCFEF92FF920F931F93CF934E
:100F0000DF938C0160E070E083EF92E0FCD402306C
:100F1000110510F402E010E0A0911303B091140346
:100F2000109709F483C04D915C9111970417150730
:100F300091F0CA01FD0120E030E01EC08881998156
:100F400008171907C1F4309729F08A819B81938390
:100F500082830AC0DE0112968D919C911397909323
:100F6000140380931303ED0160E070E083EF92E0DF
:100F700016D62296A8C0FE010817190748F42115B5
:100F8000310529F08217930718F49C0101C09C01D8
:100F9000C281D381209791F62115310509F446C00D
:100FA000C901801B910B049708F487C087C0F70123
:100FB000808191812817390781F520173107D9F4ED
:100FC000109739F08281938113969C938E93129798
:100FD0000AC0D70112968D919C9113979093140398
:100FE000809313037D0160E070E083EF92E0D7D53A
:100FF000E701229668C0201B310BE701C20FD31F07
:101000000993199322503109F7013183208360E05D
:1010100070E083EF92E0C3D556C0D7011296ED90F1
:10102000FC901397E114F10409F0C1CF8091F10213
:101030009091F202892B41F480911E0190911F0141
:101040009093F2028093F10280911C0190911D0116
:10105000009741F48DB79EB7209120013091210176
:10106000821B930BC091F102D091F2028C1B9D0B5D
:1010700080179107A0F098012E5F3F4F82179307CA
:1010800070F02C0F3D1F3093F2022093F102099370
:10109000199360E070E083EF92E081D514C060E0C6
:1010A00070E083EF92E07BD5C0E0D0E00CC0201769
:1010B000310709F48FCF7D019ECF890124173507B1
:1010C00009F0ACCFF4CFCE01DF91CF911F910F91FA
:1010D000FF90EF9008950F931F93CF93DF930097A6
:1010E00009F484C08C0160E070E083EF92E00BD4DF
:1010F000D801129713961C921E921297E091130337
:10110000F0911403309721F0EA17FB0778F05FC0E5
:10111000B0931403A093130360E070E083EF92E0B8
:101120003ED564C08A179B0730F4FC01828193810D
:101130000097C1F72EC0980122503109E9019B8325
:101140008A8328813981A801420F531F841795078C
:10115000A1F402C0E0E0F0E0EC01688179816E5F0B
:101160007F4F260F371FE8013A932A93AE01EC0117
:101170008A819B81EA019B838A83309751F4B093E3
:101180001403A093130360E070E083EF92E007D5AF
:101190002DC0B383A283EF0129913991CE01820F33
:1011A000931FA817B90769F4E8015A914A91240FCF
:1011B000351F2E5F3F4F318320838A819B8193832C
:1011C000828360E070E083EF92E0E9D40FC0C80151
:1011D0000297EC01FB83EA8328813981C801820FE1
:1011E000931FE817F90709F4B5CFC9CFDF91CF9165
:1011F0001F910F9108950F931F93CF93DF938C014D
:10120000EB012AE831E040E050E061E070E083EF7C
:1012100092E00E9487000115110521F010931F0133
:1012200000931E01209721F0D0931D01C0931C0153
:10123000DF91CF911F910F9108950F931F93CF933B
:10124000DF938C018CE090E056DEEC01C801880F42
:10125000991F800F911F880F991F4DDE9B878A87EA
:1012600041E951E060E070E080E090E00E94B90068
:10127000998388831D821C82198708871F821E829A
:101280001B821A82CE01DF91CF911F910F91089599
:10129000FC01A281B38180859185A817B9070CF064
:1012A00047C084819581DC01AA0FBB1F8A0F9B1F59
:1012B000880F991FA285B385A80FB91F6D937C93E2
:1012C00084819581DC01AA0FBB1F8A0F9B1F880FA9
:1012D000991FA285B385A80FB91F13965C934E93EF
:1012E000129784819581DC01AA0FBB1F8A0F9B1F77
:1012F000880F991FA285B385A80FB91F15963C9337
:101300002E931497848195810196958384832085FB
:1013100031858217930711F415821482828193819B
:1013200001969383828360E070E08081918137C46D
:101330000895CF93DF93EC0160E070E0888199819C
:10134000E2D22E813F81C901880F991F820F931F1E
:10135000880F991F4A855B85840F951F2F5F3F4F2C
:101360003F832E83488559852417350711F41F8242
:101370001E822A813B81215031093B832A83DF91E0
:10138000CF910895EF92FF920F931F93CF93DF9326
:101390008C017B010696880F991FADDDEC0160E0A2
:1013A00070E08091C2019091C301ADD21B821A827C
:1013B0001D821C821F821E82CE010C969B878A870B
:1013C00019870887A70160E070E080E090E00E9444
:1013D000B9009983888360E070E08091C2019091A8
:1013E000C301DDD3CE01DF91CF911F910F91FF900B
:1013F000EF9008950F931F93CF93DF93009739F1E8
:10140000EC0160E070E0888199817DD20E947F00CC
:10141000EA85FB852C813D81A9014F5F5F4F5D838C
:101420004C83220F331FE20FF31F008111812885A7
:1014300039854217530711F41D821C822E813F818A
:10144000215031093F832E830E94830002C000E0B7
:1014500010E0C801DF91CF911F910F91089549E9E4
:1014600051E060E070E081E090E00E94B90090936C
:10147000C3018093C20108958CE090E03CCD0895B3
:10148000CF93DF93EC011A8219821D821F821E8284
:1014900080E890E030DD9987888718821B821C8263
:1014A000DF91CF910895FC01808591852681378158
:1014B000A9014F5F5F4F57834683FC01E20FF31F83
:1014C0006083089587E090E00CC3089587E090E082
:1014D00008C3089587E090E01BC3089582E090E080
:1014E00085D260E070E080918B0290918C0257C3AE
:1014F000089586E090E0F5D260E070E0809171029E
:10150000909172024CC3089590911202981324C0D6
:1015100080E2689F9001112440E050E062E070E0BA
:101520008091A5029091A602B3DE20E030E040E079
:1015300050E063E070E080916F0290917002A8DE4D
:1015400020E030E040E050E063E070E08091F8019E
:101550009091F9019DCE089590911302891749F059
:1015600090911402891729F09091150289138091A6
:1015700016020895CF93DF93C42F9091120298130F
:1015800029C080E2689F9001112440E050E062E0B1
:1015900070E08091A5029091A6027ADEC11103C08D
:1015A000C3E0D0E002C0C2E0D0E020E030E040E0A4
:1015B00050E0BE0180916F029091700269DE20E0E0
:1015C00030E040E050E0BE018091F8019091F901D7
:1015D0005FDE47C09091130289130EC080E2689FBE
:1015E0009001112444E050E062E070E08091A50297
:1015F0009091A6024DDE35C09091140289130EC061
:1016000080E2689F9001112445E050E062E070E0C4
:101610008091A5029091A6023BDE23C09091150215
:1016200089130EC080E2689F9001112446E050E0CB
:1016300062E070E08091A5029091A60229DE11C0BF
:101640009091160289130DC080E2689F90011124C9
:1016500047E050E062E070E08091A5029091A60220
:1016600017DEDF91CF9108959091120298130AC06E
:10167000AB0120E030E063E070E08091A502909142
:10168000A60206CE0895CF93DF93EC0166230CF0FB
:101690003CC0603F48F4862F807F8983E62FEF703F
:1016A000EA8381E08D8306C1462F50E0FA01E05FB6
:1016B000F109E031F10508F0FDC0EA5BFF4F0C9441
:1016C000021585E08D8380EF89831F821E82F2C020
:1016D00081EF898384E08D83EDC082EF898381E08F
:1016E0008D83E8C083EF898384E08D83E3C01D820E
:1016F00087EF8983DFC0FDDEDDC0E4DEDBC0E6DE30
:10170000D9C0E8DED7C0EADED5C08981803D09F4C2
:1017100064C080F4803A09F44CC028F48038E1F0C9
:10172000803969F1C7C0803B09F454C0803C09F49A
:1017300084C0C0C0813F09F49DC038F4803E09F4E4
:101740005BC0803F09F47CC0B5C0823F09F494C0FF
:10175000833F09F4AEC0AEC08D81813019F0823074
:1017600029F0A8C06B8382E08D83A4C08B818C8319
:10177000462F682F8A81C8DE81E08D839BC08D81D2
:10178000813019F0823029F095C06B8382E08D831F
:1017900091C08B818C83662329F0462F682F8A8124
:1017A000E9DE04C040E0682F8A81AEDE81E08D83EF
:1017B00081C08D81813019F0823029F07BC06B832C
:1017C00082E08D8377C081E08D838B818C838091D3
:1017D000120270C0809112026DC08D81813019F0AB
:1017E000823029F067C082E08D836B8363C081E023
:1017F0008D838B818C835EC08D81813019F0823026
:1018000041F058C0E62FF0E0FB87EA8782E08D8345
:1018100051C080E8689FF00111246A857B85E62B22
:10182000F72BBF01660F771F660F771F7B876A87CD
:1018300081E08D838A8118DF3DC081E08D833AC0CD
:101840008D81863061F0873091F0853099F56D3764
:1018500019F486E08D832EC088E08D832BC0603123
:1018600019F487E08D8326C088E08D8323C0CE01E4
:101870001ADE20C01D821EC08D81813019F0823099
:1018800041F018C0E62FF0E0FB87EA8782E08D8305
:1018900011C080E8689FF00111244A855B85E42B24
:1018A000F52BEE0FFF1FEE0FFF1FFB87EA871D8250
:1018B00001C01D8280E090E0DF91CF910895CF9329
:1018C000DF93DC01ED91FC91EB01A881B981868168
:1018D000978116962D913C911797821B930B41F49B
:1018E0001C968D919C911D9724853585821B930BA9
:1018F000DF91CF9108954FE55CE060E270E086EE05
:1019000091E027C20895EF92FF921F93CF93DF9348
:10191000EC017B010E947F00182F8A859B85181699
:1019200019064CF401979B878A87812F0E948300B8
:1019300080E090E04EC001979B878A8788819981DB
:10194000892B39F48091F0019091F101998388837A
:1019500008C0EA81FB818091F0019091F101958BA3
:10196000848BE091F001F091F101FB83EA83118611
:10197000108688859985892B11F0F18AE08A8091FB
:10198000190390911A039587848764EF71E086EEBE
:1019900091E05FD2892B61F0E091F401F091F501C3
:1019A000868597850196978786870E94EB0108C0F8
:1019B000E091F001F091F1018FEF9FEF9187808727
:1019C000812F0E948300E091F001F091F101808568
:1019D0009185DF91CF911F91FF90EF90089512B8FC
:1019E00081E485B918B880E18BB90895CF93C82FE9
:1019F0000E947F009091C70121E030E002C0220FD9
:101A0000331FCA95E2F7292B2093C7019091C70194
:101A100092B90E948300CF910895CF93C82F0E945E
:101A20007F009091C70121E030E002C0220F331FF8
:101A3000CA95E2F7209529232093C7019091C70109
:101A400092B90E948300CF910895CF93DF93EC0168
:101A50000E947F009091C7019F709093C701909161
:101A6000C701C295D295D07FDC27C07FDC27C92B68
:101A7000C093C7019091C70192B90E948300DF9182
:101A8000CF910895CF93C82F0E947F009091C601F7
:101A900021E030E002C0220F331FCA95E2F7292B64
:101AA0002093C6019091C60195B90E948300CF9101
:101AB0000895CF93C82F0E947F009091C60121E026
:101AC00030E002C0220F331FCA95E2F72095292388
:101AD0002093C6019091C60195B90E948300CF91D1
:101AE0000895CF93C82F0E947F009091C50121E0F7
:101AF00030E002C0220F331FCA95E2F7292B209352
:101B0000C5019091C50198B90E948300CF910895B5
:101B1000CF93C82F0E947F009091C50121E030E053
:101B200002C0220F331FCA95E2F720952923209384
:101B3000C5019091C50198B90E948300CF91089585
:101B4000CF93C82F0E947F009091C40121E030E024
:101B500002C0220F331FCA95E2F7292B2093C4013C
:101B60009091C4019BB90E948300CF910895CF93B7
:101B7000C82F0E947F009091C40121E030E002C094
:101B8000220F331FCA95E2F7209529232093C40121
:101B90009091C4019BB90E948300CF910895EF9268
:101BA000FF921F93CF93DF93EC017B018091F601AD
:101BB0009091F701892B21F40E947F00182F01C01A
:101BC00010E08A859B858E3F2FE79207CCF59923FD
:101BD0006CF001969B878A87C091F601D091F7013E
:101BE0002097D1F5812F0E9483003EC001969B87EC
:101BF0008A87E881F9813097C9F08489958999832A
:101C00008883158A148AF186E086BF0186EE91E00A
:101C1000B5D08091F6019091F701892B19F4812FAD
:101C20000E948300C5D6C0E0D0E01EC0C091F6017E
:101C3000D091F701209799F4812F0E94830014C05E
:101C40008091F6019091F701892B61F4812F0E9418
:101C50008300CEEFDFEF08C0C0E0D0E005C0C0E0F9
:101C6000D0E002C0CEEFDFEFCE01DF91CF911F9128
:101C7000FF90EF9008956F927F928F929F92AF9214
:101C8000BF92CF92DF92EF92FF920F931F93CF9369
:101C9000DF93DC011896AD90BC90199712962D91A8
:101CA0003C911397223031050CF444C06C01EE24B2
:101CB000E394F12CC0E0D0E002C0E7017C01CC0F3E
:101CC000DD1FCA0DDB1D8701000F111F0A0D1B1D33
:101CD0003701BFEF6B1A7B0A6216730674F4480172
:101CE000E2E08E0E911CD601ED91FC91B401C80189
:101CF0000995992314F484017301D601ED91FC91A7
:101D0000B801CE0109959923ACF488819981F80135
:101D1000208131813983288391838083C701880F93
:101D2000991F0196D60112962D913C911397821717
:101D300093071CF2DF91CF911F910F91FF90EF90CD
:101D4000DF90CF90BF90AF909F908F907F906F90DB
:101D50000895CF93DF93EC01598348831B821A8245
:101D60007D836C83CB01880F991FC5D8998788879D
:101D700002979F838E83DF91CF910895AF92BF9298
:101D8000CF92DF92EF92FF920F931F93CF93DF9347
:101D9000DC0112962D913C9113971496ED90FC90D6
:101DA0001597E21AF30A1E141F040CF046C08C01AA
:101DB0002F5F3F4FFC01338322830680F781E02DA4
:101DC000CF01029617969C938E9316977383628326
:101DD00012966D917C911397615071091616170632
:101DE00064F5CB0101976C011AF4BFEFCB1ADB0A43
:101DF000D594C794F80180859185660F771FEC0113
:101E0000C60FD71F5601AA0CBB1CA80EB91E019005
:101E1000F081E02DBE01C5010995992374F4D50127
:101E20008D919C911197288139812D933C939983B1
:101E30008883B6011C141D04A4F2C701DF91CF9161
:101E40001F910F91FF90EF90DF90CF90BF90AF90D8
:101E50000895CF93DF93DC011296CD91DC91139717
:101E60001C161D06ECF4FC01A085B1858D919C919A
:101E7000DB018D939C9380859185A681B7819D011F
:101E800022503109378326832D913C91DC012D931B
:101E90003C9382819381019793838283CF01EBDE10
:101EA000CE01DF91CF910895CF92DF92EF92FF9212
:101EB0000F931F93CF93DF9300D0CDB7DEB75A8334
:101EC0004983DC011296CD90DC9013971C141D04FD
:101ED0004CF57B018C01FC01608571850190F081DE
:101EE000E02DCE01019609951816190634F4898162
:101EF0009A81D7018D939C931AC0D8011896ED91C1
:101F0000FC91199780819181F701918380831896C4
:101F1000ED91FC91199789819A8191838083C80101
:101F2000AADE05C089819A81DB018D939C93C6014D
:101F30000F900F90DF91CF911F910F91FF90EF9035
:101F4000DF90CF900895EF92FF920F931F93CF935E
:101F5000DF937C018B01EA0180EF90E0A7D48DE74D
:101F600090E0A4D4CE01A2D4101611064CF4E701DF
:101F70000E0D1F1D899190E099D4C017D107D1F79C
:101F800087EF90E093D4DF91CF911F910F91FF9055
:101F9000EF9008950F931F93CF93DF93082F162F81
:101FA00080E290E00E947B07EC01088319834AE0FD
:101FB00050E062E070E0C7DFCE018DD8DF91CF91B5
:101FC0001F910F910895CF93DF9300D000D000D0E0
:101FD000CDB7DEB780E091E00E947B077C0188E00E
:101FE00090E00E947B074C018B839C821C0188E05F
:101FF000280E311C84016894CC24C3F8D12C0F2EF8
:10200000F8E1BF2EF02D0F2EF2E1AF2EF02D86E07D
:1020100090E00E947B079A838983D8018D939D93DA
:102020008D01FC01D182C0821382128288E290E08D
:102030000E947B07A981BA8115969C938E93149771
:10204000FC018896B382B482A282118210823596F6
:102050008E179F07B9F702151305C9F6412C512CAD
:102060008091170390911803C5D99E838D83DC015D
:10207000ED91FC91EA30F10508F01BC1EA5AFF4FDF
:10208000C1C4412C512C15C1AB81BC81ED91FD9196
:10209000138212820480F581E02D9F01285D3F4F5D
:1020A0008381848335962E173F07D1F72A163B0686
:1020B00069F744244394512CFCC0ED81FE812485B2
:1020C0003585F901EE0FFF1FE80DF91DA081B181E3
:1020D000ED81FE8186859785FC01EE0FFF1FEE0FD7
:1020E000FF1F8E0F9F1F1496ED91FC911597E80F1F
:1020F000F91FD7012C93AD81BE811E968C91D7011B
:1021000011968C93119780818F7712968C931297EA
:1021100080819181880F892F881F990B91958F77E6
:1021200013968C931397838114968C9314978281C2
:1021300015968C9344E050E066E070E0C70103DF41
:10214000B8C0AD81BE811C96ED91FC911D97EE0F3C
:10215000FF1FE80DF91DA081B181ED81FE8186850B
:102160009785FC01EE0FFF1FEE0FFF1F8E0F9F1FC5
:102170001496ED91FC911597E80FF91FAD81BE8182
:1021800050968D919C9151979183808353968C9119
:1021900053978383848352968C9182838AC041149F
:1021A000510409F486C0BB81B983EC81EA83A12C78
:1021B000B12CA981BA81CD90DD90BA83A983F601B3
:1021C00084819581009781F1628073808301000F83
:1021D000111F000F111F060D171D080F191FD80121
:1021E00014969C91149713968C91981303C0B30185
:1021F000C501D0DEF801848181508483811114C02F
:1022000083818483FFEF6F1A7F0AD60113967C9235
:102210006E9212978D919C9111976816790621F410
:1022200013961C921E921297BFEFAB1ABB0AE4E002
:10223000AE16B10409F0BDCF3CC0AD81BE811C9685
:10224000ED91FC911D97EE0FFF1FE80DF91D008128
:1022500011811E968D919C911F97F8019183808327
:102260009C01220F331F220F331F820F931F0E94E6
:102270007B07D80115969C938E9314971AC0AD8155
:10228000BE811C96ED91FC911D97EE0FFF1FE80D8E
:10229000F91D0190F081E02D8081F701808349E0F4
:1022A00050E061E070E0C7014EDE03C04424439477
:1022B000512C8D819E810E946B08D2CE0F931F936B
:1022C00065EA71E080E490E05DD890931803809314
:1022D000170300E010E02CEA31E042E050E060E05B
:1022E00072E083EE9FE00E94BF01909316038093FB
:1022F0001503BC0186EE91E041DD1F910F91089519
:102300008CB580658CBD8CB5877D8CBD08958DB5F1
:10231000082E000C990B892F881F8827881F90E0B2
:1023200008958EBDF4DF892BE9F30895FF920F9392
:102330001F93CF93DF9300D0CDB7DEB79A83898305
:102340008B018A8199819A838EBDE1DF892BE9F324
:102350008A818EBDDCDF892BE9F30E947F00F82E95
:1023600083E090E05ADB83E090E040DB8F2D0E9419
:102370008300C8016ADB0F900F90DF91CF911F910E
:102380000F91FF900895CF938130910579F18230BC
:10239000910509F453C0892B09F077C0672B99F098
:1023A0008091C8019091C90187609093C901809381
:1023B000C8018091C8019091C9018B7F9093C90198
:1023C0008093C80162C08091C8019091C90188635F
:1023D0009093C9018093C8018091C8019091C9016F
:1023E0008F7D9093C9018093C8014FC0672B99F0EE
:1023F0008091C8019091C90187609093C901809331
:10240000C8018091C8019091C9018E7F9093C90144
:102410008093C8013AC08091C8019091C901886336
:102420009093C9018093C8018091C8019091C9011E
:10243000877F9093C9018093C80127C0672B99F0CB
:102440008091C8019091C90187609093C9018093E0
:10245000C8018091C8019091C9018D7F9093C901F5
:102460008093C80112C08091C8019091C90188630E
:102470009093C9018093C8018091C8019091C901CE
:102480008F7E9093C9018093C80141DF892BE9F3C6
:102490008091C8018EBD3BDF892BE9F3C5B10E9455
:1024A0007F009C2F9E7F95B9916095B90E94830013
:1024B000CF91089564EF71E086EE91E0CADC8091DF
:1024C000F4019091F5019093F1018093F001A091B6
:1024D000F401B091F501CD91CDBFDD91DEBF0F903C
:1024E0001F902F903F904F905F906F907F908F90B4
:1024F0009F90AF90BF90CF90DF90EF90FF900F91A3
:102500001F912F913F914F915F916F917F918F918B
:102510009F91AF91BF91CF91DF91EF91FF91F7FD27
:1025200003C0FFBFFF910895FF77FFBFFF9118958C
:10253000EF92FF920F931F93CF93DF937C0180E282
:1025400090E00E947B07D82FC92F682F792F84E451
:10255000FB018193BF018091CA019091CB019C0145
:102560002F5F3F4F3093CB012093CA014AE05AD2EC
:102570004D2F5C2F61E070E080E090E00E94B90098
:102580008C018D2F9C2F0E946B08B701C801BBD90D
:10259000EC01C8010E94E900CE01DF91CF911F91AB
:1025A0000F91FF90EF900895EF92FF920F931F937A
:1025B000CF93DF938091190390911A030196909322
:1025C0001A0380931903E090E401F090E501E1140F
:1025D000F104A9F10DEF1FEFF701C081D181209720
:1025E00041F18889998918161906E4F40197998BA5
:1025F000888B18161906B4F0D7011A968D919C9104
:102600001B9701961B969C938E931A9719870887A0
:102610008C899D89918380831D8A1C8ABE0186EEE8
:1026200091E0ACDBFE0174960C88DD89C02D20970B
:10263000C1F6F701E480F580E114F10469F6DF9159
:10264000CF911F910F91FF90EF900895FF93FFB7E7
:10265000F068FF93EF93DF93CF93BF93AF939F9374
:102660008F937F936F935F934F933F932F931F931A
:102670000F93FF92EF92DF92CF92BF92AF929F9211
:102680008F927F926F925F924F923F922F921F9202
:1026900011240F920E94C102E8EDF1E022853385FA
:1026A00084819581281739071CF5EF0160E070E0FF
:1026B0008081918174DA4091C6006A817B818E812C
:1026C0009F819C012F5F3F4F3F832E83FB01E80FCB
:1026D000F91F40838A859B8501969B878A878C8119
:1026E0009D812817390721F41092DF011092DE0135
:1026F0000E9450020F901F902F903F904F905F903C
:102700006F907F908F909F90AF90BF90CF90DF9011
:10271000EF90FF900F911F912F913F914F915F91FB
:102720006F917F918F919F91AF91BF91CF91DF91E9
:10273000EF91FF91FF77FFBFFF9118950F931F93C4
:10274000CF93DF93C8EDD1E060E070E0888199819C
:10275000DAD80E947F006A817B8128853985A901AA
:102760004F5F5F4F59874887FB01E20FF31F0081DE
:1027700010E02A853B85215031093B872A872C812F
:102780003D814217530721F41092E1011092E001BC
:102790000E948300C801DF91CF911F910F9108958E
:1027A000882331F0E1ECF0E080818062808308953D
:1027B000E1ECF0E080818F7D80830895FF93FFB787
:1027C000F068FF93EF93DF93CF93BF93AF939F9303
:1027D0008F937F936F935F934F933F932F931F93A9
:1027E0000F93FF92EF92DF92CF92BF92AF929F92A0
:1027F0008F927F926F925F924F923F922F921F9291
:1028000011240F920E94C102CCECD1E060E070E094
:1028100088819981C4D92A813B8188859985AC01B9
:102820004F5F5F4F59874887F901E80FF91F808193
:102830008093C6008A859B8501979B878A87892B11
:1028400011F480E0ADDFECECF1E02085318584818E
:1028500095812817390721F41092D5011092D401DF
:102860000E9450020F901F902F903F904F905F90CA
:102870006F907F908F909F90AF90BF90CF90DF90A0
:10288000EF90FF900F911F912F913F914F915F918A
:102890006F917F918F919F91AF91BF91CF91DF9178
:1028A000EF91FF91FF77FFBFFF9118950F931F9353
:1028B000CF93DF93082FCCECD1E060E070E088810B
:1028C000998121D80E947F00182F4A815B818E81D7
:1028D0009F819C012F5F3F4F3F832E83FA01E80FBA
:1028E000F91F00838C819D812817390721F41092EC
:1028F000D3011092D201ECECF1E082859385019630
:102900009387828781E04CDF812F0E948300DF91D3
:10291000CF911F910F9108950F931F93CF93DF9342
:1029200080E890E00E947B07CCECD1E09B838A8317
:102930001F821E82198618861B861A8600E810E000
:102940001D830C8340EB51E060E070E080E890E094
:102950000E94B9009983888380E890E00E947B07F9
:10296000C8EDD1E09B838A831F821E821986188658
:102970001B861A8648EB51E060E070E080E090E052
:102980000E94B900998388831D830C831092C5002F
:1029900087E28093C4001092C00088E98093C10050
:1029A00086E08093C200DF91CF911F910F9108952F
:1029B000CF938091F6019091F701892B09F50E9440
:1029C0007F00C82F4091F0015091F10180911903CF
:1029D00090911A03FA019587848764EF71E086EE7F
:1029E00091E062DAE091F401F091F5018685978536
:1029F0000196978786870E94EB018C2F0E948300A7
:102A0000CF910895EE0FFF1F0024001C0BBE07900E
:102A1000F691E02D0994FB01DC0101900D9200205C
:102A2000E1F70895BB274A3031F4992322F4BDE23F
:102A3000909581959F4F01C0BB27FB015527AA2781
:102A4000880F991FAA1FA41710F0A41B839550513B
:102A5000B9F7A05DAA3308F0A95DA193009779F7B3
:102A6000B111B1931192CB0100C0DC01FC01672FC1
:102A700071917723E1F7329704C07C916D93708355
:0E2A80006291AE17BF07C8F30895F894FFCF18
:102A8E000001000100010001000100010001000130
:102A9E00000100010001000100010000FF401B03C6
:102AAE0020004D69646920436C6F636B2053656D24
:102ABE00004D6964692052657365742053656D001D
:102ACE004164632053656D004144430049646C6565
:102ADE00205461736B00446163205461736B004D2D
:102AEE00696469436C6F636B004D6964692052655C
:102AFE00736574004D69646920496E004164737298
:102B0E00203100416473722032004D616C6C6F6332
:102B1E00004D657373616765004D53475F424C4FBF
:102B2E00434B4552005365714D73670053657100F9
:102B3E005478426C6F636B005278426C6F636B001B
:00000001FF
