S01800003230302D323031374669726D776172652E7372656346
S113000028C085C3D7C340C03FC03EC07EC427C4F8
S11300103BC058CC5ACD38C037C036C035C034C0C8
S113002033C0D7C2E1C2E0C2DFC2E0C2EAC2F4C256
S1130030FEC2BDC8C3C8C4C8C6C870C96FC96EC92A
S1130040C6C8CBC86BC9CBC8CAC8CBC867C966C940
S1130050CAC811241FBECFE5D2E0DEBFCDBF10E079
S1130060A0E6B0E0E6EAFCE102C005900D92A636F7
S1130070B107D9F721E0A6E6B0E001C01D92A4358E
S1130080B207E1F7AED40DCEBBCF8FB7F89480782A
S113009008959FB7982B9FBF089521E030E001C0D9
S11300A0220F8A95EAF780916600282B2093660038
S11300B020930082089521E030E001C0220F8A9548
S11300C0EAF7209580916600282320936600209308
S11300D000820895CF93DF93EC017B876A87598769
S11300E04887198218821B821A82CFDF28853985B6
S11300F021303105C9F4E0918900F0918A003097EC
S113010059F0FD83EC831F821E82D783C683D0936C
S11301108A00C093890008C0D0938A00C0938900E4
S11301201D821C821F821E82DF91CF91B2CFEF927B
S1130130FF920F931F93CF93DF938C017B01A5DF75
S1130140C0916700D0916800209741F02C813D81D7
S113015030936800209367009CDF07C09ADF8CE02F
S113016090E0CBD4EC01892B21F0A701B801CE019A
S1130170B1DFCE01DF91CF911F910F91FF90EF90EE
S11301800895EF92FF921F93CF93DF93EC017DDFED
S1130190182F8CEFE82EFF24FA94E881F981309728
S11301A069F08489958999838883158A148AF186EC
S11301B0E086BF018BE890E00ADAEFCF66DF28859E
S11301C03985232BD9F04091890050918A002C81E4
S11301D03D81C417D50721F430938A002093890008
S11301E0EE81FF81309711F035832483AC81BD818A
S11301F0109721F01796FC93EE93169720916700C1
S1130200309168003D832C83D0936800C0936700CD
S113021040DF812FDF91CF911F91FF90EF9039CF75
S11302208F929F92AF92BF92CF92DF92EF92FF9202
S11302300F931F93CF93DF937C014B01EA01590184
S1130240CA015BD46C01FC012DECCF018C199D0912
S11302508C179D0714F42193F8CF17DFE114F104F0
S113026009F46CC0D7011F961C921E921E97159616
S1130270DC93CE9314971796BC92AE9216971D9664
S11302801C921E921C971396DC92CE92129755964E
S11302901C921E92549757961C921E925697FE01DA
S11302A03197EC0DFD1D8082DF0111979C9211970F
S11302B01C92119790E89C9311971C9211971C9291
S11302C011971C9211971C9211971C9211971C93D1
S11302D011970C9311971C9211971C9211971C92D1
S11302E011971C9211971C9211971C9211971C92B2
S11302F011971C9211971C9211971C9211971C92A2
S113030011971C9211971C9211971C9211971C9291
S113031011971C9211971C9211971C9211971C9281
S113032011971C9211971C9211971C9211971C9271
S113033011971C92B397D701ED93FC93DF91CF9162
S11303401F910F91FF90EF90DF90CF90BF90AF90EF
S11303509F908F909ECEFF93FFB7F894FF93EF93F7
S1130360DF93CF93BF93AF939F938F937F936F93B9
S11303705F934F933F932F931F930F93FF92EF92AB
S1130380DF92CF92BF92AF929F928F927F926F92A1
S11303905F924F923F922F921F9211240F92A0913D
S11303A09500B09196000DB60D920EB60D92809107
S11303B0990090919A009093960080939500A09153
S11303C09900B0919A00CD91CDBFDD91DEBF0F9021
S11303D01F902F903F904F905F906F907F908F90E1
S11303E09F90AF90BF90CF90DF90EF90FF900F91D0
S11303F01F912F913F914F915F916F917F918F91B9
S11304009F91AF91BF91CF91DF91EF91FF91F7FD54
S113041003C0FFBFFF910895FF77FFBFFF911895B9
S113042080919B0090919C00019790939C008093F5
S11304309B0080919B0090919C00892B09F05FC0E8
S113044040919500509196008091520190915301F2
S1130450FA019587848769E970E08BE890E041D9D7
S1130460E0919900F0919A00809195009091960006
S1130470E817F90709F443C086859785019697879D
S113048086879EB78DB70296A0919500B09196008D
S11304908D939D93F0939600E0939500A09199001D
S11304A0B0919A00CD91CDBFDD91DEBF0F901F902A
S11304B02F903F904F905F906F907F908F909F9080
S11304C0AF90BF90CF90DF90EF90FF900F911F916E
S11304D02F913F914F915F916F917F918F919F9158
S11304E0AF91BF91CF91DF91EF91FF91F7FD03C0E1
S11304F0FFBFFF910895FF77FFBFFF9118950895FF
S113050080919B0090919C00019690939C00809315
S11305109B000895CF93DF9300D0CDB7DEB71A8246
S1130520198289819A8101969A838983FACF8AE113
S113053090E0E3D2EC01DC011296FC013A964A9673
S11305401D92119211928E179F07D1F7198218826A
S113055060E070E080910F019091100167D7809165
S1130560B5009091B6008BD48C01DC018D919C91E7
S1130570009719F00197D1F088C0F801848590E0C4
S113058099838883FC013596EE0FFF1FEC0FFD1F46
S1130590D8011D962D913C911E9731832083FE0135
S11305A0E80FF91F1F962C9122836FC0E880F98011
S11305B0FE01EE0DFF1D8281882309F442C0B8E0DC
S11305C0EB16F104F0F597012F5E3F4F2F933F9305
S11305D00895813019F480E060DD04C0823011F4A4
S11305E080E069DD1A822DC012822BC0813019F49B
S11305F084E053DD04C0823011F484E05CDD1E82AB
S113060020C0813019F485E048DD04C0823011F443
S113061085E051DD1F8215C0813019F486E03DDD8F
S113062004C0823011F486E046DD18860AC08130A9
S113063019F487E032DD04C0823011F487E03BDD39
S11306401986EFEFEE1AFE0AF8E0EF16F10419F03E
S1130650F982E88202C019821882E881F98135960C
S1130660EE0FFF1FEC0FFD1F808180930088E8814F
S1130670F9813596EE0FFF1FEC0FFD1F81818093EA
S11306800080888188BB10920084C80148D467CF59
S1130690C1E0D0E060E070E080910F019091100122
S11306A065D680E090E01ED4FC01D183C083BC01F8
S11306B08091B5009091B60098D3ECCF8BD9682F78
S11306C089EE90E05AD5FACF60E070E080910D0198
S11306D090910E014BD68AE090E08ED881E0EBDC5D
S11306E0F3CF60E070E08091290190912A013ED619
S11306F08AE090E081D883E0DEDCF3CF85B78360C5
S113070085BF1092008C8BB780648BBF0895FF93D4
S1130710FFB7F068FF93EF93DF93CF93BF93AF934B
S11307209F938F937F936F935F934F933F932F93F5
S11307301F930F93FF92EF92DF92CF92BF92AF92EB
S11307409F928F927F926F925F924F923F922F92DD
S11307501F9211240F92D4DE1092008C60E070E09E
S113076080910F019091100161D65ADE0F901F9075
S11307702F903F904F905F906F907F908F909F90BD
S1130780AF90BF90CF90DF90EF90FF900F911F91AB
S11307902F913F914F915F916F917F918F919F9195
S11307A0AF91BF91CF91DF91EF91FF91FF77FFBFA1
S11307B0FF911895FF93FFB7F068FF93EF93DF93D2
S11307C0CF93BF93AF939F938F937F936F935F93D5
S11307D04F933F932F931F930F93FF92EF92DF92C8
S11307E0CF92BF92AF929F928F927F926F925F92BD
S11307F04F923F922F921F9211240F9281DE10DEAE
S11308000F901F902F903F904F905F906F907F902C
S11308108F909F90AF90BF90CF90DF90EF90FF901C
S11308200F911F912F913F914F915F916F917F9104
S11308308F919F91AF91BF91CF91DF91EF91FF91F4
S1130840FF77FFBFFF91189513BE80E882BF8FEF3B
S113085081BF83E083BF89B7826089BF0895FF9316
S1130860FFB7F068FF93EF93DF93CF93BF93AF93FA
S11308709F938F937F936F935F934F933F932F93A4
S11308801F930F93FF92EF92DF92CF92BF92AF929A
S11308909F928F927F926F925F924F923F922F928C
S11308A01F9211240F922CDE80E882BF8091B70042
S11308B09091B80001969093B8008093B700B2D796
S11308C0AFDD0F901F902F903F904F905F906F90EF
S11308D07F908F909F90AF90BF90CF90DF90EF90DC
S11308E0FF900F911F912F913F914F915F916F91C5
S11308F07F918F919F91AF91BF91CF91DF91EF91B4
S1130900FF91FF77FFBFFF911895FF93FFB7F06842
S1130910FF93EF93DF93CF93BF93AF939F938F9303
S11309207F936F935F934F933F932F931F930F93F3
S1130930FF92EF92DF92CF92BF92AF929F928F92EB
S11309407F926F925F924F923F922F921F92112447
S11309500F92D6DD8FEF8DBD83E88CBD61DD0F90E6
S11309601F902F903F904F905F906F907F908F904B
S11309709F90AF90BF90CF90DF90EF90FF900F913A
S11309801F912F913F914F915F916F917F918F9123
S11309909F91AF91BF91CF91DF91EF91FF91FF773D
S11309A0FFBFFF9118951EBC8FEF8DBD93E89CBDD2
S11309B089BD88EF88BD80E18FBD82E08EBD329A0B
S11309C089B7806889BF089585B7806885BF87B374
S11309D0876087BB39DFE7DF91DEFCD81092008C9B
S11309E008950F931F9351DBEFDFB9D460E070E0FB
S11309F080E090E0AAD194D280E490E0C5D19093B5
S1130A00B6008093B50089EE90E094D200E010E047
S1130A102BE030E040E051E067E972E08BE291E0E6
S1130A20FFDB6BE271E08BE890E0D1D52AE030E0A7
S1130A3040E051E06EE573E081E191E0F1DB61E1DA
S1130A4071E08BE890E0C3D521E030E040E051E074
S1130A506AE872E085EF90E0E3DB65EF70E08BE835
S1130A6090E0B5D524E630E040E051E068E473E07E
S1130A708DE990E0D5DB6DE970E08BE890E0A7D5D7
S1130A8025E030E040E051E064E673E081ED90E081
S1130A90C7DB61ED70E08BE890E099D525E030E0AC
S1130AA040E051E061E773E089EB90E0B9DB69EB8A
S1130AB070E08BE890E08BD560E070E080E090E03F
S1130AC036DB9093100180930F0160E070E080E0CA
S1130AD090E02DDB90930E0180930D0160E070E0B7
S1130AE080E090E024DB90932A018093290146D68C
S1130AF080E090E01F910F910895EF92FF920F9381
S1130B001F93CF93DF938C0160E070E085E491E064
S1130B102DD40230110510F402E010E0E0906900D9
S1130B20F0906A00E70180E090E0E0E0F0E02097D8
S1130B3019F1288139815A814B810217130779F4FD
S1130B40309719F05283438304C050936900409353
S1130B506A0060E070E085E491E068D432C0021776
S1130B60130730F4009719F02817390708F4C9015E
S1130B70FE01C52FD42FDBCF0097B1F19C01201BC0
S1130B80310B2430310528F48C0103C0E701E280E5
S1130B90F380E114F10441F1F701208131818217DE
S1130BA09307A1F70817190799F482819381209775
S1130BB051F09B838A8360E070E085E491E036D451
S1130BC0E701229651C090936A0080936900F3CFA5
S1130BD0801B910BE701C80FD91F09931993029742
S1130BE0F7019183808333C0809143019091440144
S1130BF0892B41F4809162009091630090934401A9
S1130C00809343018091600090916100009741F4CA
S1130C108DB79EB72091640030916500821B930BC1
S1130C20C0914301D09144018C1B9D0B8017910707
S1130C30A0F098012E5F3F4F8217930770F02C0F9E
S1130C403D1F30934401209343010993199360E0BD
S1130C5070E085E491E0EAD307C060E070E085E4E9
S1130C6091E0E4D3C0E0D0E0CE01DF91CF911F91B9
S1130C700F91FF90EF900895CF93DF93009709F4BD
S1130C8061C0EC0160E070E085E491E06FD3FE01A7
S1130C90329713821282A0916900B0916A00109772
S1130CA049F180E090E0AE17BF0750F412962D9101
S1130CB03C911397CD012115310509F1D901F3CFE9
S1130CC0B383A28340815181C40FD51FAC17BD07E4
S1130CD079F42D913C911197240F351F2E5F3F4FCE
S1130CE03183208312962D913C9113973383228371
S1130CF0009729F4F0936A00E09369001CC0DC01BA
S1130D001396FC93EE9312974D915D91A40FB51F2A
S1130D10EA17FB0781F420813181240F351F2E5FF0
S1130D203F4FDC0111963C932E932281338113961D
S1130D303C932E93129760E070E085E491E0DF919C
S1130D40CF9174C3DF91CF9108950F931F93CF93E5
S1130D50DF938C01EB0140E050E061E070E085E45A
S1130D6091E0B8D90115110521F0109363000093A7
S1130D706200209721F0D0936100C0936000DF915E
S1130D80CF911F910F9108950F931F93CF93DF93EA
S1130D908C010696880F991FB0DEEC0160E070E0CC
S1130DA080916D0090916E00E1D21B821A821D82A7
S1130DB01C821F821E82CE010C969B878A8719870C
S1130DC0088760E070E080E090E0B1D9998388837F
S1130DD060E070E080916D0090916E0027D3CE01A9
S1130DE0DF91CF911F910F910895FF920F931F935D
S1130DF0CF93DF930097E9F18B01EC0180919B0085
S1130E0090919C00892B19F440D9F82E01C0F12C43
S1130E102E813F816885798526173707ECF4EA85AA
S1130E20FB858A819B81AC014F5F5F4F5B834A8363
S1130E30880F991FE80FF91F118300836417750742
S1130E4011F41B821A822F5F3F4F3F832E8360E091
S1130E5070E088819981EAD280919B0090919C00F6
S1130E60892B39F48F2DDF91CF911F910F91FF9032
S1130E7010C9DF91CF911F910F91FF9008950F93A7
S1130E801F93CF93DF93009729F1EC0160E070E0AA
S1130E90888199816BD2F9D8EA85FB852C813D81C3
S1130EA0A9014F5F5F4F5D834C83220F331FE20F15
S1130EB0F31F00811181288539854217530711F4E6
S1130EC01D821C822E813F81215031093F832E8354
S1130ED0E0D802C000E010E0C801DF91CF911F917B
S1130EE00F910895CF93DF93EC010D9606DE0097E2
S1130EF099F020916B0030916C002F5F3F4F30933D
S1130F006C0020936B00FC01D583C483118610868A
S1130F101382128213861286DF91CF910895ACCE8C
S1130F2060E070E081E090E002D990936E008093DD
S1130F306D000895FC0112821182158217821682B7
S1130F40108213821482138612860895CF93DF933E
S1130F50EC011F821E8280E890E0CFDD9B878A87A8
S1130F60DF91CF910895FC01268137812038310526
S1130F7058F482859385A9014F5F5F4F5783468359
S1130F80FC01E20FF31F60830895CF93DF93EC011C
S1130F90EA85FB8580818D37C9F48181813099F0A0
S1130FA08330A1F480EF90E051D58DE790E04ED5E9
S1130FB083E090E04BD58091700090E047D587EFB7
S1130FC090E044D503C08281809370008A859B851C
S1130FD053DE1F821E82DF91CF91089581E05DD898
S1130FE060E070E080910D0190910E011FC282E0DB
S1130FF054C882E060C883E050D860E070E080911B
S1131000290190912A0112C2CF93DF93909170002D
S113101098132AC0D0915101D61326C0C42F84E05E
S113102090E060DFFC011486DD0F1586D68782E030
S11310308787BF018091B5009091B600D6DE84E029
S113104090E050DFFC0181E0848780E8C89FA00124
S11310501124568745871786BF018091B50090916A
S1131060B600C3DE10926F00DF91CF910895CF9345
S1131070DF9390917000981330C0C42FD62F84E072
S113108090E030DFFC0114868D2F880F158686874B
S1131090C11102C082E001C081E08787BF01809155
S11310A0B5009091B600A1DE84E090E01BDFFC0166
S11310B081E084878C2F880F158686871786BF0169
S11310C08091B5009091B60090DE81E0C11101C01D
S11310D080E080936F00D0935101DF91CF91089508
S11310E0CF9390917000981312C0C42F84E090E0C5
S11310F0F9DEFC01CC0F1586C687178682E084874B
S1131100BF018091B5009091B600CF916ECECF9182
S11311100895CF9390917000981312C0C62F84E065
S113112090E0E0DEFC01CC0F1586C687178682E0CE
S11311308487BF018091B5009091B600CF9155CEC0
S1131140CF910895CF93DF9390917000981312C0BC
S1131150EB0184E090E0C6DEFC01D687C5871786E4
S113116083E08487BF018091B5009091B600DF9140
S1131170CF913BCEDF91CF910895CF93DF93EC01D4
S1131180462F67FF32C0603F38F4862F807F898303
S1131190E62FEF70EA83AEC050E0FA01E05FF10998
S11311A0E031F10508F0BAC0E75EFF4F099483E02F
S11311B08D8380EF8983CE01C9DEB0C081EF04C086
S11311C082EF898397C083EF898384E094C01D8272
S11311D087EF8983CE01D9DEA1C000DF9FC007DF7E
S11311E09DC007DF9BC007DF99C08981803D09F45A
S11311F04DC078F4803AD9F128F48038F1F0803980
S113120029F18CC0803B09F444C0803C09F472C0CD
S113121085C0813F09F481C048F4803E09F448C088
S1131220803F09F07BC0CE019EDE78C0823F09F486
S113123058C0833F09F471C071C08D81813021F1A0
S1131240823009F06BC06B816C830EC08D8181305C
S1131250D9F0823009F062C06B816C83442319F0A9
S11312608A8105DF47C040E08A81CEDE43C08D819C
S1131270813051F0823009F051C081E08D836B815F
S11312806C838A812DDF4AC04B8332C08A8141DF5F
S113129045C08D81813041F0823009F03FC081E04A
S11312A08D838B818C833AC082E08D836B8336C0BF
S11312B08D818130C9F0823089F580E8689FF00122
S11312C0112468857985E62BF72BBF01660F771FFC
S11312D0660F771F7987688781E08D838A8132DF83
S11312E01DC08D81813049F4E42FF0E0F987E8874F
S11312F082E001C081E08D8311C0823079F480E8FE
S1131300689FF001112448855985E42BF52BEE0FD5
S1131310FF1FEE0FFF1FF987E8871D8280E090E032
S1131320DF91CF910895CF93DF93DC01ED91FC9190
S1131330EB01A881B9818681978116962D913C9104
S11313401797821B930B41F41C968D919C911D97CA
S113135024853585821B930BDF91CF91089543E952
S113136059E060E270E08BE890E01CC1EF92FF92DC
S11313701F93CF93DF93EC017B0187D6182F2A8527
S11313803B85C90101979B878A87121613062CF4A3
S1131390812F7FD680E090E043C088819981E091DD
S11313A09500F0919600892B19F4F983E88306C01F
S11313B0AA81BB815596FC93EE935497FB83EA83F1
S11313C01186108688859985892B11F0F18AE08A27
S11313D080915201909153019587848769E970E067
S11313E08BE890E053D1892B59F0E0919900F0916A
S11313F09A0086859785019697878687ACD708C01B
S1131400E0919500F09196008FEF9FEF9187808790
S1131410812F3FD6E0919500F091960080859185CB
S1131420DF91CF911F91FF90EF900895EF92FF927B
S11314301F93CF93DF93EC017B0180919B009091EC
S11314409C00892B19F421D6182F01C010E08A853D
S11314509B858E3F2FE7920764F59C012F5F3F4FDA
S11314603B872A8797FF1CC0E881F9813097C1F038
S11314708489958999838883158A148AF186E086FC
S1131480BF018BE890E0A3D080919B0090919C00D9
S1131490892B11F4812FFDD5DCD3C0E0D0E013C03B
S11314A0C0919B00D0919C002097B9F7812FF1D572
S11314B00AC080919B0090919C00892B11F4812F8C
S11314C0E8D5CEEFDFEFCE01DF91CF911F91FF90F2
S11314D0EF9008956F927F928F929F92AF92BF92F6
S11314E0CF92DF92EF92FF920F931F93CF93DF93EC
S11314F06C01DC0118966D907C901997EE24E394AE
S1131500F12C00E010E0D60112968D919C91139776
S1131510E816F906C4F5000F111F060D171DE701A3
S1131520CC0FDD1FC60DD71D5701BFEFAB1ABB0A89
S1131530A816B90674F44E01E2E08E0E911CD60191
S1131540ED91FC91B401CE01099597FF02C0E4012D
S11315507501D601ED91FC91BE01C801099597FF73
S113156012C0F801808191812881398131832083DF
S113157099838883C701880F991F87019C012F5F76
S11315803F4F7901C0CFDF91CF911F910F91FF9011
S1131590EF90DF90CF90BF90AF909F908F907F900F
S11315A06F900895CF93DF93EC01598348831B8296
S11315B01A827D836C83CB01880F991F9EDA9987E9
S11315C0888702979F838E83DF91CF910895AF928E
S11315D0BF92CF92DF92EF92FF920F931F93CF931C
S11315E0DF93DC0112962D913C9113971496CD90C4
S11315F0DC901597C21AD30A1C141D04DCF58C0167
S1131600C9010196FD01938382830680F781E02D51
S1131610CF01029617969C938E93169773836283D9
S1131620121613063CF55901B1E0AB1AB108B59492
S1131630A794F80180859185220F331FEC01C20F16
S1131640D31F7501EE0CFF1CE80EF91E0190F0810A
S1131650E02DBE01C701099597FF0CC0D7018D91FC
S11316609C911197288139812D933C939983888388
S11316709501D6CFC601DF91CF911F910F91FF90B5
S1131680EF90DF90CF90BF90AF900895CF93DF930A
S1131690DC011296CD91DC9113971C161D06ECF417
S11316A0FC0180859185DC018D919C91DB018D93FA
S11316B09C9380859185A681B7819D012250310933
S11316C0378326832D913C91DC012D933C93CE01ED
S11316D0019793838283CF01FDDECE01DF91CF9109
S11316E00895CF92DF92EF92FF920F931F93CF93BF
S11316F0DF9300D0CDB7DEB75A834983DC0112965D
S1131700ED90FC9013971E141F043CF56B018C01A3
S1131710FC01608571850190F081E02DCE01019678
S1131720099529813A811816190624F4D6012D93B6
S11317303C9318C0D8011896ED91FC9119978081BB
S11317409181F601918380831896ED91FC9119970C
S113175031832083C801BEDE05C089819A81DB0103
S11317608D939C93C7010F900F90DF91CF911F91A0
S11317700F91FF90EF90DF90CF90089569E970E0AA
S11317808BE890E083DF8091990090919A00909388
S1131790960080939500A0919900B0919A00CD9104
S11317A0CDBFDD91DEBF0F901F902F903F904F90E3
S11317B05F906F907F908F909F90AF90BF90CF90ED
S11317C0DF90EF90FF900F911F912F913F914F91D8
S11317D05F916F917F918F919F91AF91BF91CF91C5
S11317E0DF91EF91FF91F7FD03C0FFBFFF910895D3
S11317F0FF77FFBFFF9118950F931F93CF93DF934C
S11318008C0161E070E080E090E091D4EC01B801DB
S1131810ADDD8C01CE01B5D4C801DF91CF911F910C
S11318200F910895EF92FF920F931F93CF93DF933D
S113183080915201909153010196909353018093AA
S113184052010091890010918A008DEFE82EFF2447
S1131850FA940115110579F1F801C081D18120971D
S113186031F18889998918161906DCF40197998B46
S1131870888B892BB1F4D8011A968D919C911B9772
S113188001961B969C938E931A97F986E8868C8909
S11318909D89918380831D8A1C8ABE018BE890E018
S11318A096DEFE0174960C88DD89C02DD8CFF80130
S11318B004811581CECFDF91CF911F910F91FF90BD
S11318C0EF900895FF93FFB7F068FF93EF93DF93D2
S11318D0CF93BF93AF939F938F937F936F935F93B4
S11318E04F933F932F931F930F93FF92EF92DF92A7
S11318F0CF92BF92AF929F928F927F926F925F929C
S11319004F923F922F921F9211240F92F9D520915A
S1131910870030918800809181009091820028177F
S113192039079CF560E070E080917D0090917E0025
S11319307DDD40917F0050918000809183009091E3
S113194084009C012F5F3F4F3093840020938300D9
S11319502CB1FA01E80FF91F208380918700909140
S113196088000196909388008093870020918300DB
S1131970309184008091810090918200281739076A
S113198021F410928400109283004AD50F901F9086
S11319902F903F904F905F906F907F908F909F908B
S11319A0AF90BF90CF90DF90EF90FF900F911F9179
S11319B02F913F914F915F916F917F918F919F9163
S11319C0AF91BF91CF91DF91EF91FF91FF77FFBF6F
S11319D0FF911895CF93DF9360E070E080917D00D4
S11319E090917E00C3DC51D340917F0050918000E0
S11319F02091850030918600B9016F5F7F4F70930D
S1131A00860060938500FA01E20FF31FC081D0E0E5
S1131A10209187003091880021503109309388004B
S1131A202093870040918500509186002091810089
S1131A30309182004217530721F4109286001092CD
S1131A40850027D3CE01DF91CF910895CF93C82F7E
S1131A5060E070E0809171009091720087DC15D392
S1131A604091730050917400209177003091780078
S1131A70B9016F5F7F4F7093780060937700FA012C
S1131A80E20FF31FC08340917700509178002091BA
S1131A907500309176004217530721F410927800B4
S1131AA01092770020917B0030917C002F5F3F4F94
S1131AB030937C0020937B00559ACF91EAC288230F
S1131AC011F0559A089555980895FF93FFB7F0685B
S1131AD0FF93EF93DF93CF93BF93AF939F938F9332
S1131AE07F936F935F934F933F932F931F930F9322
S1131AF0FF92EF92DF92CF92BF92AF929F928F921A
S1131B007F926F925F924F923F922F921F92112475
S1131B100F92F6D460E070E08091710090917200B1
S1131B2085DC20917300309174008091790090914C
S1131B307A00AC014F5F5F4F50937A004093790075
S1131B40F901E80FF91F80818CB980917B00909195
S1131B507C00019790937C0080937B0080917B00B4
S1131B6090917C00892B11F480E0A9DF2091790009
S1131B7030917A008091750090917600281739078A
S1131B8021F410927A00109279004AD40F901F9099
S1131B902F903F904F905F906F907F908F909F9089
S1131BA0AF90BF90CF90DF90EF90FF900F911F9177
S1131BB02F913F914F915F916F917F918F919F9161
S1131BC0AF91BF91CF91DF91EF91FF91FF77FFBF6D
S1131BD0FF9118950F931F93CF93DF9380E890E0C4
S1131BE08CD7C1E7D0E09B838A831F821E8219862B
S1131BF018861B861A8600E810E01D830C8360E0BB
S1131C0070E080E890E093D29983888380E890E044
S1131C1074D7CDE7D0E09B838A831F821E82198606
S1131C2018861B861A8660E070E080E090E07FD220
S1131C30998388831D830C8310BC8FE089B91BB8FA
S1131C4088E98AB986E880BDDF91CF911F910F9111
S1131C500895CF9380919B0090919C00892BF9F477
S1131C6014D2C82F40919500509196008091520152
S1131C7090915301FA019587848769E970E08BE8B4
S1131C8090E02FDDE0919900F0919A008685978588
S1131C900196978786875FD38C2FCF91FAC1CF9116
S1091CA00895F894FFCF43
S1091CA6FF7F6002200034
S9030000FC
